:020000040800F2
:1000000000A00020C52D0008012B0008092B0008C6
:10001000112B0008192B0008212B000800000000FC
:10002000000000000000000000000000292B000874
:10003000372B000800000000452B0008532B000858
:10004000152E0008152E0008152E0008152E000884
:10005000152E00085F2B0008152E0008152E00082D
:10006000152E0008152E0008152E0008152E000864
:10007000152E0008152E0008152E0008152E000854
:100080006D2B0008812B0008952B0008152E000809
:10009000152E0008152E0008152E0008152E000834
:1000A000152E0008152E0008152E0008152E000824
:1000B000152E0008B12B0008152E0008152E00087B
:1000C000152E0008152E0008152E0008152E000804
:1000D000152E0008152E0008C52B0008152E000847
:1000E000D92B0008152E0008152E0008152E000823
:1000F000152E0008152E0008152E0008152E0008D4
:10010000000000000000000000000000152E0008A4
:10011000152E0008152E0008152E0008152E0008B3
:10012000012C0008152E0008152E0008152E0008B9
:10013000152E0008152E0008000000000000000029
:10014000152E0008152E0008152E000800000000CE
:10015000000000000000000000000000000000009F
:100160000000000000000000152E0008152E0008F9
:10017000152E000800000000000000000000000034
:0801800000000000152E00082C
:1001900010B5054C237833B9044B13B10448AFF3C1
:1001A00000800123237010BDDC010020000000004E
:1001B000C0D0000808B5034B1BB103490348AFF397
:1001C000008008BD00000000E0010020C0D0000851
:1001D00001F0FF01102A2BDB10F0070F08D010F8F8
:1001E000013B013A8B422DD010F0070F42B3F6D1FC
:1001F000F0B441EA012141EA014122F007047FF015
:1002000000070023F0E80256083C85EA010586EA6B
:10021000010685FA47F5A3FA87F586FA47F6A5FAA7
:1002200087F68EB9EED1F0BC01F0FF0102F00702B3
:1002300032B110F8013B013A83EA010313B1F8D15E
:100240000020704701387047002D06BF354603383F
:10025000073815F0010F07D1013015F4807F02BF78
:10026000013015F4C03F0130F0BC0138704700BFC9
:10027000034613F8012B002AFBD1181A01387047E6
:1002800081F0004102E000BF83F0004330B54FEA47
:1002900041044FEA430594EA050F08BF90EA020FB4
:1002A0001FBF54EA000C55EA020C7FEA645C7FEA47
:1002B000655C00F0E2804FEA5454D4EB5555B8BF6A
:1002C0006D420CDD2C4480EA020281EA030382EADB
:1002D000000083EA010180EA020281EA0303362D6D
:1002E00088BF30BD11F0004F4FEA01314FF4801C40
:1002F0004CEA113102D0404261EB410113F0004F52
:100300004FEA03334CEA133302D0524263EB430308
:1003100094EA050F00F0A780A4F10104D5F1200EA6
:100320000DDB02FA0EFC22FA05F2801841F1000101
:1003300003FA0EF2801843FA05F359410EE0A5F1D5
:1003400020050EF1200E012A03FA0EFC28BF4CF006
:10035000020C43FA05F3C01851EBE37101F00045BC
:1003600007D54FF0000EDCF1000C7EEB00006EEBC9
:100370000101B1F5801F1BD3B1F5001F0CD3490853
:100380005FEA30004FEA3C0C04F101044FEA4452AA
:1003900012F5800F80F09A80BCF1004F08BF5FEA31
:1003A000500C50F1000041EB045141EA050130BD11
:1003B0005FEA4C0C404141EB0101013C28BFB1F523
:1003C000801FE9D291F0000F04BF01460020B1FA6E
:1003D00081F308BF2033A3F10B03B3F120020CDA41
:1003E0000C3208DD02F1140CC2F10C0201FA0CF01F
:1003F00021FA02F10CE002F11402D8BFC2F1200C84
:1004000001FA02F120FA0CFCDCBF41EA0C01904039
:10041000E41AA2BF01EB0451294330BD6FEA040482
:100420001F3C1CDA0C340EDC04F11404C4F120026D
:1004300020FA04F001FA02F340EA030021FA04F37F
:1004400045EA030130BDC4F10C04C4F1200220FAD6
:1004500002F001FA04F340EA0300294630BD21FA14
:1004600004F0294630BD94F0000F83F4801306BFDA
:1004700081F480110134013D4EE77FEA645C18BFCE
:100480007FEA655C29D094EA050F08BF90EA020F65
:1004900005D054EA000C04BF1946104630BD91EA5D
:1004A000030F1EBF0021002030BD5FEA545C05D160
:1004B0004000494128BF41F0004130BD14F580049F
:1004C0003CBF01F5801130BD01F0004545F0FE4113
:1004D00041F470014FF0000030BD7FEA645C1ABF48
:1004E000194610467FEA655C1CBF0B46024650EA7F
:1004F000013406BF52EA033591EA030F41F40021AB
:1005000030BD00BF90F0000F04BF0021704730B530
:100510004FF4806404F132044FF000054FF0000105
:1005200050E700BF90F0000F04BF0021704730B5C6
:100530004FF4806404F1320410F0004548BF40429B
:100540004FF000013EE700BF42004FEAE2014FEAF0
:1005500031014FEA02701FBF12F07F4393F07F4FCB
:1005600081F06051704732F07F4208BF704793F0CE
:100570007F4F04BF41F40021704730B54FF46074E1
:1005800001F0004521F000411CE700BF50EA0102E4
:1005900008BF704730B54FF000050AE050EA01028D
:1005A00008BF704730B511F0004502D5404261EBFD
:1005B00041014FF4806404F132045FEA915C3FF43E
:1005C000D8AE4FF003025FEADC0C18BF03325FEADB
:1005D000DC0C18BF033202EBDC02C2F1200300FA8C
:1005E00003FC20FA02F001FA03FE40EA0E0021FAB1
:1005F00002F11444BDE600BF70B54FF0FF0C4CF49F
:10060000E06C1CEA11541DBF1CEA135594EA0C0F50
:1006100095EA0C0F00F0DEF82C4481EA030621EA8B
:100620004C5123EA4C5350EA013518BF52EA0335C6
:1006300041F4801143F4801338D0A0FB02CE4FF078
:100640000005E1FB02E506F00042E0FB03E54FF0A8
:100650000006E1FB03569CF0000F18BF4EF0010EA0
:10066000A4F1FF04B6F5007F64F5407404D25FEA9C
:100670004E0E6D4146EB060642EAC62141EA55514F
:100680004FEAC52040EA5E504FEACE2EB4F1FD0C91
:1006900088BFBCF5E06F1ED8BEF1004F08BF5FEA0F
:1006A000500E50F1000041EB045170BD06F00046C1
:1006B00046EA010140EA020081EA0301B4EB5C046E
:1006C000C2BFD4EB0C0541EA045170BD41F4801166
:1006D0004FF0000E013C00F3AB8014F1360FDEBF8B
:1006E000002001F0004170BDC4F10004203C35DA67
:1006F0000C341BDC04F11404C4F1200500FA05F3EA
:1007000020FA04F001FA05F240EA020001F000428A
:1007100021F0004110EBD37021FA04F642EB060100
:100720005EEA430E08BF20EAD37070BDC4F10C042A
:10073000C4F1200500FA04F320FA05F001FA04F2EE
:1007400040EA020001F0004110EBD37041F10001DA
:100750005EEA430E08BF20EAD37070BDC4F12005E5
:1007600000FA05F24EEA020E20FA04F301FA05F24D
:1007700043EA020321FA04F001F0004121FA04F2F5
:1007800020EA020000EBD3705EEA430E08BF20EAC5
:10079000D37070BD94F0000F0FD101F000464000FF
:1007A00041EB010111F4801F08BF013CF7D041EA81
:1007B000060195F0000F18BF704703F00046520085
:1007C00043EB030313F4801F08BF013DF7D043EA56
:1007D0000603704794EA0C0F0CEA135518BF95EA0C
:1007E0000C0F0CD050EA410618BF52EA4306D1D193
:1007F00081EA030101F000414FF0000070BD50EAB2
:10080000410606BF1046194652EA430619D094EA3B
:100810000C0F02D150EA013613D195EA0C0F05D125
:1008200052EA03361CBF104619460AD181EA030179
:1008300001F0004141F0FE4141F470014FF0000031
:1008400070BD41F0FE4141F4780170BD70B54FF0CC
:10085000FF0C4CF4E06C1CEA11541DBF1CEA13554C
:1008600094EA0C0F95EA0C0F00F0A7F8A4EB05042E
:1008700081EA030E52EA03354FEA013100F0888025
:100880004FEA03334FF0805545EA131343EA1263EE
:100890004FEA022245EA111545EA10654FEA0026A3
:1008A0000EF000419D4208BF964244F1FD0404F55C
:1008B000407402D25B084FEA3202B61A65EB0305B8
:1008C0005B084FEA32024FF480104FF4002CB6EB75
:1008D000020E75EB030E22BFB61A754640EA0C00F5
:1008E0005B084FEA3202B6EB020E75EB030E22BF35
:1008F000B61A754640EA5C005B084FEA3202B6EB76
:10090000020E75EB030E22BFB61A754640EA9C0034
:100910005B084FEA3202B6EB020E75EB030E22BF04
:10092000B61A754640EADC0055EA060E18D04FEAC2
:10093000051545EA16754FEA06164FEAC30343EA62
:1009400052734FEAC2025FEA1C1CC0D111F4801F2F
:100950000BD141EA00014FF000004FF0004CB6E728
:1009600011F4801F04BF01430020B4F1FD0C88BFC7
:10097000BCF5E06F3FF6AFAEB5EB030C04BFB6EBD2
:10098000020C5FEA500C50F1000041EB045170BDC5
:100990000EF0004E4EEA113114EB5C04C2BFD4EBF2
:1009A0000C0541EA045170BD41F480114FF0000E76
:1009B000013C90E645EA060E8DE60CEA135594EAF2
:1009C0000C0F08BF95EA0C0F3FF43BAF94EA0C0FF5
:1009D0000AD150EA01347FF434AF95EA0C0F7FF46A
:1009E00025AF104619462CE795EA0C0F06D152EABE
:1009F00003353FF4FDAE1046194622E750EA4106A2
:100A000018BF52EA43067FF4C5AE50EA41047FF4B2
:100A10000DAF52EA43057FF4EBAE12E74FF0FF3C17
:100A200006E000BF4FF0010C02E000BF4FF0010CE8
:100A30004DF804CD4FEA410C7FEA6C5C4FEA430C61
:100A400018BF7FEA6C5C1BD001B050EA410C0CBFB0
:100A500052EA430C91EA030F02BF90EA020F002012
:100A6000704710F1000F91EA030F58BF994208BF79
:100A700090422CBFD8176FEAE37040F00100704736
:100A80004FEA410C7FEA6C5C02D150EA013C07D18D
:100A90004FEA430C7FEA6C5CD6D152EA033CD3D0D8
:100AA0005DF8040B704700BF8446104662468C46D2
:100AB0001946634600E000BF01B5FFF7B7FF002805
:100AC00048BF10F1000F01BD4DF808EDFFF7F4FF2E
:100AD0000CBF012000205DF808FB00BF4DF808EDB9
:100AE000FFF7EAFF34BF012000205DF808FB00BFDC
:100AF0004DF808EDFFF7E0FF94BF012000205DF8FE
:100B000008FB00BF4DF808EDFFF7CEFF94BF0120B2
:100B100000205DF808FB00BF4DF808EDFFF7C4FFAB
:100B200034BF012000205DF808FB00BF4FEA410CF4
:100B30007FEA6C5C02D150EA013C0AD14FEA430CD7
:100B40007FEA6C5C02D152EA033C02D14FF0000014
:100B500070474FF0010070474FEA410212F5001252
:100B600015D211D56FF47873B3EB625212D94FEAF4
:100B7000C12343F0004343EA505311F0004F23FADE
:100B800002F018BF404270474FF00000704750EA33
:100B9000013005D111F0004008BF6FF000407047F0
:100BA0004FF00000704700BF80B586B002AF03462B
:100BB0000A46FB711346BB71FB791B01DBB2FB7369
:100BC000FA7BBB791343DBB2FB73164B1B78DB005C
:100BD0005AB2FB7B5BB213435BB2DBB2FB73FB7BB2
:100BE00043F00403DBB2FB7307F10F0264230093AD
:100BF00001234E210C4804F01BFC012002F072F985
:100C0000FB7B23F00403DBB2FB7307F10F026423C9
:100C1000009301234E21044804F00AFC00BF103762
:100C2000BD4680BD00000020E802002080B584B0F1
:100C300000AF0346FB71FB791B09FB73FB7903F0E3
:100C40000F03BB73FB7B00211846FFF7ADFFBB7B97
:100C500000211846FFF7A8FFFB79012B02D0FB7992
:100C6000022B02D1022002F03DF900BF1037BD4631
:100C700080BD80B584B000AF0346FB71FB791B09D2
:100C8000FB73FB7903F00F03BB73FB7B0121184659
:100C9000FFF78AFFBB7B01211846FFF785FF00BFE6
:100CA0001037BD4680BD80B500AF322002F01AF982
:100CB00000210320FFF778FF052002F013F900213F
:100CC0000320FFF771FF012002F00CF9002103203F
:100CD000FFF76AFF012002F005F900210220FFF76B
:100CE00063FF2820FFF7A2FF0C20FFF79FFF0620DD
:100CF000FFF79CFF0120FFF799FF022002F0F2F8B6
:100D000000BF80BD80B582B000AF786006E07B6830
:100D10005A1C7A601B781846FFF7ABFF7B681B787C
:100D2000002BF4D100BF00BF0837BD4680BD0000D6
:100D300080B584B000AF03460A46FB711346BB7111
:100D4000FB79013B032B17D801A252F823F000BF17
:100D5000610D0008670D00086D0D0008730D000897
:100D60008023FB730AE0C023FB7307E09423FB732B
:100D700004E0D423FB7301E08023FB73FA7BBB798F
:100D80001344FB73FB7B63F07F03DBB21846FFF772
:100D90004DFF00BF1037BD4680BD00BF80B500AF1E
:100DA0000120FFF743FF022002F09CF800BF80BD46
:100DB00080B584B002AF78604FF0FF330093012319
:100DC0007A684821034804F04BFC00BF0837BD4651
:100DD00080BD00BFE802002080B584B000AF78601D
:100DE00007F10E031846FFF7E3FF0023FB7313E040
:100DF000BB7B1A46FB7B42FA03F303F00103002B93
:100E00000CBF01230023D9B2FB7B7A6813440A4646
:100E10001A70FB7B0133FB73FB7B072BE8D900BF08
:100E200000BF1037BD4680BD80B586B000AFF8600A
:100E3000B9607A60FB681A78314B1B789A4238D1D6
:100E4000FB685B787B757B7D013B0F2B52D801A241
:100E500052F823F0F50E0008F50E0008950E000874
:100E6000F50E0008F50E00089F0E0008F50E0008AC
:100E7000F50E0008F50E0008F50E0008F50E000846
:100E8000F50E0008F50E0008F50E0008F50E000836
:100E9000A90E0008B9681B4801F03CFA2BE07968FC
:100EA000184801F0B5FA26E07968164801F0B0FA62
:100EB00021E00023FB8207E0FB8AFA68134400224A
:100EC0001A70FB8A0133FB82FB8A3F2BF4D9002284
:100ED00010210D4804F0C6F94022F968094809F0CC
:100EE00054FA084B1B681A68064B1B6842F0100244
:100EF0001A6000E000BF00BF1837BD4680BD00BFCC
:100F0000060000206C0400200004004880B500AFFB
:100F100001F0DCFF0246054B1B68D31AB3F5FA6FEC
:100F200001D300F07BF800BF80BD00BF8C0500201E
:100F300080B584B000AF0346FB71FB79002B63D012
:100F4000FB79072B60D801F0C1FFF860FB79304ACC
:100F500052F82330FA68D31AB3F5967F55D3FB794C
:100F6000013B032B4AD801A252F823F07D0F000861
:100F70009D0F0008BD0F0008DD0F00084FF4005161
:100F8000244804F087F9244B5B78002B0CBF012325
:100F90000023DBB21A46204B5A702FE04FF48041F9
:100FA0001C4804F077F91C4B9B78002B0CBF0123E5
:100FB0000023DBB21A46184B9A701FE04FF4004131
:100FC000144804F067F9144BDB78002B0CBF0123A5
:100FD0000023DBB21A46104BDA700FE080214FF08D
:100FE000904004F057F90C4B1B79002B0CBF0123E8
:100FF0000023DBB21A46084B1A7100BFFB79044983
:10100000FA6841F8232000E000BF1037BD4680BDDC
:10101000A005002000080048BC05002080B500AFF6
:10102000274807F0C9FF274803F0F5FD264803F0DD
:10103000F2FD234B1B681A68214B1B6822F010023B
:101040001A601F4B1B681A681D4B1B6822F0400278
:101050001A601B4B1B681A68194B1B6822F0200290
:101060001A601A4B1B69194A43F4003313610120BB
:1010700001F038FF154B1B69144A23F40033136148
:1010800000F006FD00F0D4FC402211490C4809F0A4
:101090007CF90B4B1B681A68094B1B6842F0100265
:1010A0001A60084B1B681A68064B1B6822F0040282
:1010B0001A6001F00BFF0346064A136000BF80BDB3
:1010C0006C040020F40400203805002000100240C9
:1010D000640600208C05002080B500AF01F09CFE66
:1010E00000F00CF900F00EFD00F0D2FC00F094FAD4
:1010F00000F068F900F050FA00F09AFC00F0D2F924
:1011000000F006FC00F034FB00F0B4FB4FF47A7002
:1011100001F0E8FE01224FF40051644804F0A2F807
:1011200001224FF48041614804F09CF801224FF401
:1011300000415E4804F096F8012280214FF0904073
:1011400004F090F801224FF40061594804F08AF845
:1011500001224FF40071564804F084F80122202146
:10116000534804F07FF801221021514804F07AF826
:1011700040225049504809F008F9504B1B681A6842
:101180004E4B1B6822F004021A6000214C4802F00A
:101190002FFD00214B4802F02BFD642001F0A2FE40
:1011A00000221021424804F05DF8642001F09AFE0C
:1011B000FFF779FDFFF7F2FD434800F0F1FE4348E9
:1011C00006F0EAFA402242493D4802F0ADF86420B8
:1011D00001F088FE01F07AFE02463E4B1B68D31AEE
:1011E000B3F57A7F07D3384800F06AFF01F06EFE4E
:1011F0000346384A136001F069FE0346364A1288F6
:101200009B1AB3F5167F06D3344B01221A700120C6
:10121000FFF78EFE02E0314B00221A7001F056FEFD
:1012200003462F4A12889B1AB3F5167F06D32D4B1F
:1012300001221A700220FFF77BFE02E0294B0022F8
:101240001A7001F043FE0346274A12889B1AB3F531
:10125000167F06D3254B01221A700320FFF768FE84
:1012600002E0224B00221A70FFF750FE204B1B7841
:10127000012BAFD11F48FFF7AFFD1F4BAA221A80E9
:101280001D4B3F225A801C4B1F22DA801A4B192219
:101290001A810F4B00221A800D4B00225A800C4BF2
:1012A00000229A80124B00221A7093E7000800482F
:1012B00000040048640600206C040020F4040020B0
:1012C00054020020040200207C050020D4030020EA
:1012D000C805002090050020940500209A050020F4
:1012E000960500209B050020980500209C05002005
:1012F0008805002080050020A407002080B59EB04E
:1013000000AF07F1500328220021184609F00DFE16
:1013100007F13C0300221A605A609A60DA601A6191
:101320003B463C220021184609F0FFFD01233B65A6
:101330004FF480337B650123BB6501233B660223A9
:10134000FB664FF480333B674FF4E0137B6707F194
:101350005003184604F0B8FD0346002B01D000F0FE
:1013600019FE0F23FB6302233B6400237B644FF4CD
:101370008063BB640023FB6407F13C030221184631
:1013800005F0E0FD0346002B01D000F003FE43F220
:10139000A2033B600023FB604FF480737B62102349
:1013A000FB6100233B6300237B633B46184605F04B
:1013B000EBFF0346002B01D000F0ECFD00BF7837B7
:1013C000BD4680BD80B58AB000AF07F11C03002286
:1013D0001A605A609A603B1D00221A605A609A6037
:1013E000DA601A615A612E4B4FF0A0421A602C4B02
:1013F00000225A602A4B00229A60294B00221A616F
:10140000274B00225A76264B002283F82020244BBB
:101410000022DA62224B01229A62214B0022DA601A
:101420001F4B0122DA611E4B002283F830201C4B37
:1014300004225A611A4B00221A76194B00225A6371
:10144000174801F091FD0346002B01D000F0A2FDEA
:101450000023FB6107F11C031946114802F04CFF01
:101460000346002B01D000F095FD01237B60012392
:10147000BB6000233B610323FB6000237B610023EF
:10148000BB613B1D1946064802F04CFC0346002B8D
:1014900001D000F07FFD00BF2837BD4680BD00BFF2
:1014A0000402002080B586B000AF3B4600221A60DF
:1014B0005A609A60DA601A615A61354B354A1A608F
:1014C000334B00225A60324B00229A60304B01228B
:1014D0001A612F4B01225A762D4B002283F82020CF
:1014E0002B4B0022DA622A4B01229A62284B0022FF
:1014F000DA60274B0322DA61254B002283F8302083
:10150000234B04225A61224B00221A76204B0022E0
:101510005A631F4801F028FD0346002B01D000F05C
:1015200039FD01233B6001237B600023FB60002326
:10153000BB6000233B6100237B613B461946144896
:1015400002F0F0FB0346002B01D000F023FD022344
:101550003B6002237B603B4619460D4802F0E2FBEC
:101560000346002B01D000F015FD03233B6003234D
:101570007B603B461946064802F0D4FB0346002B2D
:1015800001D000F007FD00BF1837BD4680BD00BF89
:10159000540200200001005080B500AF1B4B1C4AD4
:1015A0001A601A4B1B4A5A60184B00229A60174B5C
:1015B0000122DA60154B00221A61144B00225A6195
:1015C000124B00229A61114B0022DA610F4B00226C
:1015D0001A620E4803F090FE0346002B01D000F083
:1015E000D9FC0021094804F0D7FB0346002B01D0A9
:1015F00000F0D0FC0021054804F019FC0346002B44
:1016000001D000F0C7FC00BF80BD00BFE802002091
:1016100000540040CC8DC11080B59AB000AF07F1E6
:10162000580300221A605A609A60DA6007F14C038E
:1016300000221A605A609A6007F1300300221A6093
:101640005A609A60DA601A615A619A613B1D2C22D5
:101650000021184609F069FC434B444A1A60424B8A
:1016600000225A60404B00229A603F4B4FF47A723E
:10167000DA603D4B00221A613B4B00225A613A4B23
:1016800080229A61384806F02FF80346002B01D0DB
:1016900000F080FC4FF48053BB6507F158031946F6
:1016A000314806F04DFC0346002B01D000F072FCDF
:1016B0002D4806F0DBF80346002B01D000F06AFC51
:1016C0000023FB6400233B6500237B6507F14C038B
:1016D0001946254807F08AFA0346002B01D000F08E
:1016E00059FC60233B6332237B630023BB630023ED
:1016F000FB6300233B6400237B640023BB6407F18E
:10170000300300221946184806F006FB0346002B5A
:1017100001D000F03FFC00237B600023BB6000236E
:10172000FB6000233B6100237B614FF40053BB61EE
:101730000023FB6100233B624FF000737B620023B8
:10174000BB620023FB623B1D1946074807F0CEFA37
:101750000346002B01D000F01DFC034801F0B4F853
:1017600000BF6837BD4680BD3C030020002C01400F
:1017700080B58CB000AF07F1200300221A605A60D8
:101780009A60DA6007F1140300221A605A609A60C6
:101790003B1D00221A605A609A60DA60344B4FF0A9
:1017A00080421A60324B00225A60314B00229A600C
:1017B0002F4B4FF0FF32DA602D4B00221A612C4B79
:1017C00000229A612A4805F08FFF0346002B01D0C2
:1017D00000F0E0FB4FF480533B6207F12003194611
:1017E000234806F0ADFB0346002B01D000F0D2FBEE
:1017F0001F4806F092F80346002B01D000F0CAFB08
:1018000000237B610023FB6107F11403194618488C
:1018100007F0ECF90346002B01D000F0BBFB0023DE
:101820007B600123BB600023FB600C233B613B1DFD
:10183000082219460E4806F0D3F90346002B01D0C2
:1018400000F0A8FB02237B600223BB6000233B6106
:101850003B1D0C221946064806F0C2F90346002B30
:1018600001D000F097FB00BF3037BD4680BD00BF00
:101870008803002080B588B000AF07F11003002274
:101880001A605A609A60DA603B1D00221A605A6042
:101890009A601D4B1D4A1A601B4B00225A601A4B5E
:1018A00000229A60184B49F64042DA60164B00223B
:1018B0001A61154B80229A61134805F015FF034603
:1018C000002B01D000F066FB4FF480533B6107F121
:1018D000100319460C4806F033FB0346002B01D0D9
:1018E00000F058FB00237B600023FB603B1D194682
:1018F000054807F07BF90346002B01D000F04AFBB6
:1019000000BF2037BD4680BDD40300200004004046
:1019100080B596B000AF07F14C0300221A605A6000
:101920009A6007F1300300221A605A609A60DA6008
:101930001A615A619A613B1D2C220021184609F058
:10194000F4FA394B394A1A60374B00225A60364B49
:1019500000229A60344B4FF6FF72DA60324B00225D
:101960001A61314B00225A612F4B00229A612E4896
:1019700005F07CFF0346002B01D000F00BFB002399
:10198000FB6400233B6500237B6507F14C0319468C
:10199000254807F02BF90346002B01D000F0FAFA96
:1019A00060233B6300237B630023BB630023FB6353
:1019B00000233B6400237B640023BB6407F13003F6
:1019C00000221946184806F0A7F90346002B01D05B
:1019D00000F0E0FA00237B600023BB600023FB6083
:1019E00000233B6100237B614FF40053BB61002364
:1019F000FB6100233B624FF000737B620023BB62FC
:101A00000023FB623B1D1946074807F06FF90346A8
:101A1000002B01D000F0BEFA034800F055FF00BFD4
:101A20005837BD4680BD00BF20040020003401406F
:101A300080B500AF144B154A1A60134B4FF4164291
:101A40005A60114B00229A600F4B0022DA600E4B55
:101A500000221A610C4B0C225A610B4B00229A6136
:101A6000094B0022DA61084B00221A62064B002261
:101A70005A62054807F0D6F90346002B01D000F062
:101A800089FA00BF80BD00BF6C0400200044004004
:101A900080B582B000AF1A4B5B69194A43F001036D
:101AA0005361174B5B6903F001037B607B68144B48
:101AB0005B69134A43F002035361114B5B6903F006
:101AC00002033B603B6800220621102002F0C7FFA2
:101AD000102002F0E0FF00220621112002F0BFFFDB
:101AE000112002F0D8FF00220021382002F0B7FFB9
:101AF000382002F0D0FF00BF0837BD4680BD00BFD0
:101B00000010024080B58AB000AF07F11403002234
:101B10001A605A609A60DA601A614B4B5B694A4AF4
:101B200043F400235361484B5B6903F400233B619A
:101B30003B69454B5B69444A43F480035361424B24
:101B40005B6903F48003FB60FB683F4B5B693E4AC3
:101B500043F4003353613C4B5B6903F40033BB60D7
:101B6000BB68394B5B69384A43F480235361364B79
:101B70005B6903F480237B607B6800224FF4604143
:101B8000324803F06FFB002280214FF0904003F0B9
:101B900069FB00224FF423612D4803F063FB4FF4EF
:101BA00060437B610123BB610023FB6100233B6237
:101BB00007F114031946254803F0C2F980237B611D
:101BC0000123BB610023FB6100233B6207F1140387
:101BD00019464FF0904003F0B3F94FF423637B6153
:101BE0000123BB610023FB6100233B6207F1140367
:101BF0001946174803F0A4F94FF4E0437B614FF412
:101C00004413BB610023FB6107F11403194610481C
:101C100003F096F94FF400437B614FF44413BB612A
:101C20000123FB6107F114031946094803F088F901
:101C300000220521282002F012FF282002F02BFFAD
:101C400000BF2837BD4680BD001002400008004894
:101C50000004004880B582B000AF78607B681B68E4
:101C6000084A93420AD101224FF40061064803F06A
:101C7000F9FA40220549064801F056FB00BF083733
:101C8000BD4680BD0004004000040048C805002097
:101C90005402002080B582B000AF78607B681B687A
:101CA000B3F1804F24D17B681B7F042B20D1124BD2
:101CB00000221A604FF0804300225A6208210F4828
:101CC00006F008FA03460C4A13600C210B4806F094
:101CD00001FA03460A4A1360074B1B68094AB2FB24
:101CE000F3F307EE903AF8EE677A074BC3ED007A0C
:101CF00000BF0837BD4680BD48060020880300208D
:101D00004C0600200048E8016006002080B584B041
:101D100000AF0346FB80FB88B3F5805F21D14FF411
:101D20008051544803F086FA0346012B0BD101225F
:101D30004FF40051504803F095FA01F0C7F80346FC
:101D40009AB24E4B1A804FF480514A4803F072FA0F
:101D50000346002B05D100224FF40051464803F002
:101D600081FAFB88B3F5005F21D14FF4005141485F
:101D700003F060FA0346012B05D101224FF48041A4
:101D80003D4803F06FFA01F0A1F803469AB23C4BCC
:101D90001A804FF40051374803F04CFA0346002BE9
:101DA00005D100224FF48041334803F05BFAFB88F1
:101DB000B3F5804F21D14FF480412E4803F03AFA19
:101DC0000346012B0BD101224FF400412A4803F0B6
:101DD00049FA01F07BF803469AB22A4B1A804FF475
:101DE0008041244803F026FA0346002B05D1002247
:101DF0004FF40041204803F035FAFB88B3F5004F5B
:101E000034D14FF400411B4803F014FA0346002B71
:101E10001AD1012280214FF0904003F023FA0023D1
:101E2000FB730EE0FB7B184AD35C002B06D0FB7BD8
:101E30000133DBB21946154800F0C4F8FB7B0133CF
:101E4000FB73FB7B072BEDD94FF40041094803F0EE
:101E5000F1F90346012B05D1002280214FF090407B
:101E600003F000FA0A4B4FF400425A6100BF1037EA
:101E7000BD4680BD000400480008004894050020CD
:101E80009605002098050020800500207C05002094
:101E90000004014080B582B000AF786000221021BC
:101EA000104803F0DFF901F011F803460E4A136001
:101EB00040220E490E4808F068FA0D4B1B681A685C
:101EC0000B4B1B6842F010021A600A4B1B681A6821
:101ED000084B1B6822F004021A6000BF0837BD4699
:101EE00080BD00BF000400488C050020640600206F
:101EF0006C040020F404002080B582B000AF78604C
:101F00000B467B807B681B680D4A934214D100F01E
:101F1000DDFF03460B4A13600B4B1B681A680A4B24
:101F20001B6822F010021A60084802F074FE084A8A
:101F300008490948FEF778FF00BF0837BD4680BD55
:101F4000004400408C0500206C040020F4040020B4
:101F500024080020A40700206406002080B582B079
:101F600000AF78607B681B68074A934208D1074836
:101F700001F0F6FA00224FF40061054803F072F90F
:101F800000BF0837BD4680BD00010050540200204C
:101F90000004004880B400AF72B600BF00BFFDE788
:101FA00080B582B000AF78607B6800221A707B68D1
:101FB00000225A70786800F083F800BF0837BD46E9
:101FC00080BD000080B483B000AF78600B46FB702A
:101FD000FB78013B032B62D801A252F823F000BF2B
:101FE000F11F000815200008312000086D200008AE
:101FF0007B681B78013BDAB27B681A707B681B78C0
:10200000002B03D07B681B78032B4AD97B68002206
:102010001A7046E07B681B780133DAB27B681A706D
:102020007B681B78032B3ED97B6800221A703AE04C
:102030007B681B78002B12D1204B1B680A331F4A88
:1020400013601E4B1B68B3F5FA6F03D81B4B1B685C
:10205000002B2AD1194B4FF4FA621A6025E07B68F5
:102060005B780133DAB27B685A701EE07B681B78BC
:10207000002B0DD1114B1B680A3B104A13600F4B0C
:102080001B68B3F5FA6F12D90C4B00221A600EE0F0
:102090007B685B78013BDAB27B685A7007E000BF6F
:1020A00006E000BF04E000BF02E000BF00E000BFA8
:1020B00000BF0C37BD465DF8047B7047C4050020A7
:1020C00090B587B004AF78607B681B78032B70D81D
:1020D00001A252F823F000BFE92000088321000884
:1020E00093210008A321000800210120FEF720FE13
:1020F0003248FEF707FE00210220FEF719FE304BA2
:102100001B881C462F4B1B681846FEF71DFA02461B
:102110000B462D4909880291CDE9002322462B491F
:102120002B4808F09FFE2A48FEF7ECFD0021032013
:10213000FEF7FEFD274B1B881A46274B1B881946C6
:10214000264B1B8800930B462549214808F08AFE40
:102150001F48FEF7D7FD00210420FEF7E9FD214BC3
:102160001B881A46204B1B8819461C4B1B88009362
:102170000B461B49164808F075FE1548FEF7C2FDD0
:1021800018E000210120FEF7D3FD1848FEF7BAFD44
:1021900010E000210120FEF7CBFD1548FEF7B2FD4F
:1021A00008E000210120FEF7C3FD1248FEF7AAFD5A
:1021B00000E000BF00BF0C37BD4690BDD8D000087E
:1021C000500600205C06002002000020F0D000082D
:1021D000F8010020520600205606002004000020CE
:1021E00008D10008540600205806002020D100081D
:1021F00038D1000850D1000880B487B000AF7860B3
:102200000B46FB704FF6FF737B610023FB7423E0EA
:10221000FB7C7A6813441B781A467B6953407B61C8
:102220000123BB7412E07B6903F00103BB607B698F
:102230005B087B61BB68002B05D07B6983F420437E
:1022400083F001037B61BB7C0133BB74BB7C082B37
:10225000E9D9FB7C0133FB74FA7CFB789A42D7D333
:102260007B691B0AFB607B691B02FA6813437B6175
:102270007B699BB27B617B699BB218461C37BD466C
:102280005DF8047B7047000080B586B000AFF86051
:10229000B9601346FB71FB791946B868FFF7ACFFCC
:1022A0000346FB82FB790133BA681344FA8AD2B23F
:1022B0001A70FB8A1B0A99B2FB79BA681344CAB236
:1022C0001A7001221021114802F0CCFFFB799BB259
:1022D00002339BB21A46B968F86806F0F1FD03466E
:1022E000002B07D000221021084802F0BBFFFFF7A7
:1022F00051FE05E000224FF40051054802F0B2FF04
:1023000000BF18461837BD4680BD00BF0004004816
:102310000008004880B586B000AF78603960394B5E
:102320009B781B021AB2374BDB781BB213431BB2EC
:10233000FB82344B1B791B021AB2324B5B791BB206
:1023400013431BB27B81FB8AA3F5EA43313BFB823B
:10235000FA8A7B8913449BB2013B3B817B897D2BAD
:1023600005D90321786800F0D3F8002345E03B89C4
:102370003C2B05D90221786800F0CAF800233CE024
:10238000214B1A78214B1A701E4B5A781F4B5A70EA
:102390007B89DBB25B00DAB21C4B9A7003233B6192
:1023A0000023FB601DE0FB8A5B003A6813441B8836
:1023B0001B0A99B23B695A1C3A61C9B2134AD154FB
:1023C000FB8A5B003A68134419883B695A1C3A61DE
:1023D000C9B20E4AD154FB8A0133FB82FB68013338
:1023E000FB607B89FA689A42DDDB3B69DBB21A4607
:1023F00006497868FFF748FF012318461837BD469D
:1024000080BD00BF6406002006000020A406002056
:1024100080B586B000AF786039603A4B9B781B027C
:102420001AB2384BDB781BB213431BB2FB82354B1D
:102430001B791B021AB2334B5B791BB213431BB2DD
:102440007B817B89002B02D07B897B2B05D90321E3
:10245000786800F05DF800234FE0FA8A7B89134426
:102460009BB2013B3B813B893C2B05D9022178681B
:1024700000F04EF8002340E007233B610023FB609F
:1024800019E03B695A1C3A611E4AD35C1B021AB21E
:102490003B69591C39611B49CB5C1BB2134319B210
:1024A000FB8A5A1CFA825B003A6813448AB21A808B
:1024B000FB680133FB607B89FA689A42E1DB124BCF
:1024C0001A78124B1A700F4B5A78104B5A700D4BEA
:1024D0009A780E4B9A700B4BDA780C4BDA70094BEA
:1024E0001A790A4B1A71074B5A79084B5A7106220E
:1024F00006497868FFF7C8FE012318461837BD461D
:1025000080BD00BF6406002006000020A406002055
:1025100080B582B000AF78600B46FB700B4B1A7829
:102520000B4B1A70094B5B7863F07F03DAB2084BF0
:102530005A70074AFB789370032205497868FFF7C1
:10254000A3FE034618460837BD4680BD640600203A
:10255000A406002080B582B000AF124B9B69114ADF
:1025600043F0010393610F4B9B6903F001037B6010
:102570007B680C4BDB690B4A43F08053D361094BFA
:10258000DB6903F080533B603B680022002105209B
:1025900002F065FA052002F07EFA00BF0837BD465A
:1025A00080BD00BF0010024080B58CB000AF7860E5
:1025B00007F11C0300221A605A609A60DA601A61FF
:1025C0007B681B68B3F1A04F36D14F4B1B680133BA
:1025D0004D4A13604C4B1B68012B0BD14B4B5B6975
:1025E0004A4A43F080535361484B5B6903F0805380
:1025F000BB61BB69454B5B69444A43F4003353619B
:10260000424B5B6903F400337B617B690F23FB6101
:1026100003233B6200237B6207F11C0319464FF042
:10262000904002F08DFC00220021122002F017FAE7
:10263000122002F030FA63E07B681B68344A934250
:102640005ED1314B1B6801332F4A13602E4B1B6840
:10265000012B0BD12D4B5B692C4A43F08053536106
:102660002A4B5B6903F080533B613B69274B5B69F5
:10267000264A43F400335361244B5B6903F400336F
:10268000FB60FB687023FB6103233B6200237B62DA
:1026900007F11C0319464FF0904002F051FC1D4B0E
:1026A0001D4A1A601B4B00225A601A4B00229A6086
:1026B000184B8022DA60174B4FF480721A61154B69
:1026C0004FF480625A61134B00229A61114B4FF410
:1026D0000052DA610F4802F0F8F90346002B01D0EE
:1026E000FFF758FC7B680B4A9A630A4A7B6853627F
:1026F00000220021122002F0B2F9122002F0CBF9E0
:1027000000BF3037BD4680BDA40800200010024045
:1027100000010050A40200200804024080B58AB0E5
:1027200000AF786007F1140300221A605A609A60C3
:10273000DA601A617B681B68174A934228D1174BED
:102740005B69164A43F480235361144B5B6903F4BD
:1027500080233B613B694FF4C0737B611223BB61F3
:102760000023FB6103233B6204237B6207F1140314
:1027700019460B4802F0E4FB084BDB69074A43F4B7
:102780000013D361054BDB6903F40013FB60FB68A6
:1027900000BF2837BD4680BD0054004000100240F5
:1027A0000004004880B58CB000AF786007F11C03CE
:1027B00000221A605A609A60DA601A617B681B68AE
:1027C0002D4A93420CD12D4B9B692C4A43F4006354
:1027D00093612A4B9B6903F40063BB61BB6947E0CB
:1027E0007B681B68B3F1804F29D1244BDB69234AF6
:1027F00043F00103D361214BDB6903F001037B61EB
:102800007B691E4B5B691D4A43F4802353611B4B5C
:102810005B6903F480233B613B694FF48063FB6198
:1028200002233B6200237B620023BB620123FB6225
:1028300007F11C031946124802F082FB18E07B687E
:102840001B68104A934213D10C4BDB690B4A43F0CF
:102850000203D361094BDB6903F00203FB60FB68F1
:10286000002200211D2002F0FAF81D2002F013F9C9
:1028700000BF3037BD4680BD002C01400010024033
:10288000000400480004004080B485B000AF7860C8
:102890007B681B680A4A93420BD10A4B9B69094A21
:1028A00043F400539361074B9B6903F40053FB60AF
:1028B000FB6800BF1437BD465DF8047B704700BF5E
:1028C000003401400010024080B58AB000AF78604B
:1028D00007F1140300221A605A609A60DA601A61E4
:1028E0007B681B68234A93421ED1234B5B69224AB3
:1028F00043F400335361204B5B6903F400333B61C5
:102900003B694FF480737B610223BB610023FB6151
:1029100000233B6206237B6207F1140319464FF044
:10292000904002F00DFB20E07B681B68134A934245
:102930001BD1114B5B69104A43F4802353610E4B4A
:102940005B6903F48023FB60FB6840237B61022307
:10295000BB610023FB6100233B6205237B6207F11F
:1029600014031946064802F0EBFA00BF2837BD46AB
:1029700080BD00BF002C0140001002400034014027
:102980000004004880B58AB000AF786007F11403F6
:1029900000221A605A609A60DA601A617B681B68CC
:1029A000504A934240F09A804F4BDB694E4A43F4C1
:1029B0000033D3614C4BDB6903F400333B613B696B
:1029C000494B5B69484A43F400335361464B5B69AA
:1029D00003F40033FB60FB68434B5B69424A43F4FA
:1029E00080235361404B5B6903F48023BB60BB6869
:1029F0004FF400437B610223BB610023FB6103238F
:102A00003B6207237B6207F1140319464FF09040A5
:102A100002F096FA08237B610223BB610023FB616D
:102A200003233B6207237B6207F1140319462F48F7
:102A300002F086FA2E4B2F4A1A602D4B00225A6064
:102A40002B4B00229A602A4B8022DA60284B00220E
:102A50001A61274B00225A61254B00229A61244BB0
:102A60000022DA61224802F030F80346002B01D040
:102A7000FFF790FA7B681E4A5A671D4A7B685362CB
:102A80001D4B1E4A1A601C4B10225A601A4B002222
:102A90009A60194B8022DA60174B00221A61164B9C
:102AA00000225A61144B00229A61134B0022DA6112
:102AB000114802F00AF80346002B01D0FFF76AFA2A
:102AC0007B680D4A1A670C4A7B685362002200211A
:102AD000262001F0C4FF262001F0DDFF00BF2837CB
:102AE000BD4680BD00440040001002400004004884
:102AF000F40400206C0002403805002080000240F1
:102B000080B400AF00BFFDE780B400AF00BFFDE7B9
:102B100080B400AF00BFFDE780B400AF00BFFDE7A9
:102B200080B400AF00BFFDE780B400AF00BFBD467A
:102B30005DF8047B704780B400AF00BFBD465DF810
:102B4000047B704780B400AF00BFBD465DF8047BD6
:102B5000704780B500AF00F0A5F900BF80BD80B41C
:102B600000AF00BFBD465DF8047B704780B500AF85
:102B7000024802F0CCF800BF80BD00BFF404002082
:102B800080B500AF024802F0C2F800BF80BD00BFB0
:102B90003805002080B500AF034800F043FD03482E
:102BA00000F040FD00BF80BD040200205402002060
:102BB00080B500AF024804F011FF00BF80BD00BF28
:102BC000D403002080B500AF024806F087FA00BFAA
:102BD00080BD00BF6C04002080B500AF4FF4805072
:102BE00002F072FB4FF4005002F06EFB4FF4804095
:102BF00002F06AFB4FF4004002F066FB00BF80BDAC
:102C000080B500AF024802F082F800BF80BD00BF6F
:102C1000A402002080B400AF01231846BD465DF831
:102C2000047B704780B582B000AF7860396008F0EF
:102C3000CFF9034616221A604FF0FF3318460837C3
:102C4000BD4680BD80B582B000AF78604FF0FF31E7
:102C50007868FFF7E7FF00BFFDE780B586B000AFFB
:102C6000F860B9607A6000237B610AE0AFF300800E
:102C70000146BB685A1CBA60CAB21A707B6901333C
:102C80007B617A697B689A42F0DB7B68184618376B
:102C9000BD4680BD80B586B000AFF860B9607A608F
:102CA00000237B6109E0BB685A1CBA601B78184698
:102CB000AFF300807B6901337B617A697B689A425C
:102CC000F1DB7B6818461837BD4680BD80B483B001
:102CD00000AF78604FF0FF3318460C37BD465DF803
:102CE000047B704780B483B000AF786039603B6884
:102CF0004FF400525A60002318460C37BD465DF869
:102D0000047B704780B483B000AF7860012318461D
:102D10000C37BD465DF8047B704780B485B000AFCA
:102D2000F860B9607A60002318461437BD465DF834
:102D3000047B704780B586B000AF7860144A154BAD
:102D4000D31A7B617B693B61134B1B68002B02D15B
:102D5000114B124A1A60104B1A687B6813443A6987
:102D60009A4207D208F034F903460C221A604FF059
:102D7000FF3309E0084B1B68FB60074B1A687B6850
:102D80001344054A1360FB6818461837BD4680BDDA
:102D900000A0002000040000A8080020000A002075
:102DA00080B400AF064BD3F88830054A43F4700373
:102DB000C2F8883000BFBD465DF8047B704700BF95
:102DC00000ED00E0DFF834D0FFF7EAFF0C480D49D2
:102DD0000D4A002302E0D458C4500433C4188C4276
:102DE000F9D30A4A0A4C002301E013600432A242DC
:102DF000FBD308F0F3F8FEF76FF9FEE700A0002020
:102E000000000020DC01002020D50008DC010020AB
:102E1000FC090020FEE7000080B500AF084B1B68EE
:102E2000074A43F010031360032001F00DFE0F204A
:102E300000F008F8FFF78EFB0023184680BD00BFA6
:102E40000020024080B582B000AF7860124B1A6853
:102E5000124B1B7819464FF47A73B3FBF1F3B2FBB4
:102E6000F3F3184601F025FE0346002B01D00123A1
:102E70000EE07B680F2B0AD8002279684FF0FF30F4
:102E800001F0EDFD064A7B681360002300E001239A
:102E900018460837BD4680BD0800002010000020FD
:102EA0000C00002080B400AF064B1B781A46064B7E
:102EB0001B681344044A136000BFBD465DF8047BE1
:102EC000704700BF10000020AC08002080B400AFA5
:102ED000034B1B681846BD465DF8047B704700BF76
:102EE000AC08002080B584B000AF7860FFF7EEFF3B
:102EF000B8607B68FB60FB68B3F1FF3F05D00A4B0D
:102F00001B781A46FB681344FB6000BFFFF7DEFF27
:102F10000246BB68D31AFA689A42F7D800BF00BFCE
:102F20001037BD4680BD00BF1000002080B483B0C4
:102F300000AF786000BF0C37BD465DF8047B70477A
:102F400080B483B000AF786000BF0C37BD465DF839
:102F5000047B704780B483B000AF786000BF0C374B
:102F6000BD465DF8047B704780B59AB000AF7860CD
:102F7000002387F8673000233B660023BB607B6833
:102F8000002B01D10123C9E17B681B69002B7B6801
:102F90001B6C03F01003002B76D17B681B6C002B9D
:102FA00052D17B6800225A647B680022DA647B6815
:102FB00000229A647B68002283F83C207868FFF73F
:102FC000F3FA7B681B689B6803F08053002B3BD1AE
:102FD000786801F04DFB034687F867307B681B6C0F
:102FE00003F01003002B2FD197F86730002B2BD163
:102FF0007B681B6C23F4885323F0020343F0020226
:103000007B681A647B681B689A687B681B6822F07F
:1030100040529A607B681B689A687B681B6842F024
:1030200080529A60864B1B68864AA2FB03239A0C47
:1030300013469B0013445B00BB6002E0BB68013B8E
:10304000BB60BB68002BF9D17B681B689B6803F0F1
:103050008053002B07D07B681B689B6803F00053EC
:10306000B3F1005F10D17B681B6C23F0120343F0B7
:1030700010027B681A647B685B6C43F001027B681A
:103080005A64012387F867307B681B6C03F01003D8
:10309000002B40F0368197F86730002B40F03181EB
:1030A0007B681B689B6803F00403002B40F02981B8
:1030B0007B681B6C23F4817343F002027B681A6403
:1030C0007B681B68B3F1A04F04D07B681B685E4A25
:1030D000934201D15D4B00E05D4BFB657B681B6853
:1030E000B3F1A04F02D1584BFB601AE07B681B681C
:1030F000554A934203D14FF0A043FB6011E07B6837
:103100001B68544A934202D1534BFB6009E07B6831
:103110001B68514A934202D14E4BFB6001E00023F1
:10312000FB607B681B689B6803F00303012B08D1DD
:103130007B681B681B6803F00103012B01D101238D
:1031400000E00023002B1CD1FB68002B10D0FB6893
:103150009B6803F00303012B07D1FB681B6803F096
:103160000103012B01D1012300E00023002B08D132
:10317000FB6D9B6823F440327B685B681A43FB6DF0
:103180009A607B685B7E5B037A68526B012A02D08F
:103190004FF4805200E000221A437B68DB681A4338
:1031A0007B689B6813433A6E13433B667B6893F8D6
:1031B0002030012B1BD17B685B7E002B09D17B6803
:1031C0005B6A013B5A043B6E134343F480333B6616
:1031D0000DE07B681B6C23F0220343F020027B6828
:1031E0001A647B685B6C43F001027B685A647B68FD
:1031F0009B6A012B3AD07B681B68164A934204D025
:103200007B681B68144A934228D17B689B6AB3F59C
:10321000307F12D07B689B6AB3F5807F0AD07B68D1
:103220009B6AB3F5E07F02D07B689B6A18E04FF49D
:10323000807315E04FF4307312E04FF4E0730FE049
:103240000800002083DE1B430001005000030050F3
:103250000007005000040050000500507B689B6A86
:103260007A68D26A13433A6E13433B667B681B68E5
:103270009B6803F00C03002B14D17B681B68DB6890
:103280007A68126823F4804323F00203D3607B68DA
:103290001B7E9A037B6893F830305B0013433A6ED1
:1032A00013433B667B681B68DA681E4B13407A68E1
:1032B0001268396E0B43D3607B681B69012B0CD1FC
:1032C0007B681B681B6B23F00F017B68DB695A1E50
:1032D0007B681B680A431A6307E07B681B681A6BEC
:1032E0007B681B6822F00F021A637B6800225A6415
:1032F0007B681B6C23F0030343F001027B681A64B4
:103300000AE07B681B6C23F0120343F010027B6819
:103310001A64012387F8673097F8673018466837D2
:10332000BD4680BD07C0F0FF80B586B000AFF86035
:10333000B9607A600023FB75FB681B689B6803F02B
:103340000403002B40F0F780FB6893F83C30012B1E
:1033500001D10223F2E0FB68012283F83C20FB68E4
:103360001B68B3F1A04F04D0FB681B68754A9342F9
:1033700009D1754B9B6803F01F03002B0CBF012381
:103380000023DBB208E0714B9B6803F01F03002BA6
:103390000CBF01230023DBB2002B00F0C580F868CE
:1033A00001F002F90346FB75FB7D002B40F0B7806E
:1033B000FB681B6C23F4706323F0010343F48072F9
:1033C000FB681A64FB681B68B3F1A04F04D0FB686C
:1033D0001B685C4A934206D15B4B9B6803F01F035A
:1033E000002B10D005E0594B9B6803F01F03002B06
:1033F00009D0FB681B68B3F1A04F04D0FB681B68C1
:10340000534A934215D1FB681B6C23F48012FB686E
:103410001A64FB681B68DB6803F00073002B36D06E
:10342000FB681B6C23F4405343F48052FB681A641E
:103430002DE0FB681B6C43F48012FB681A64FB6888
:103440001B68B3F1A04F04D0FB681B683D4A934250
:103450000AD14FF0A043DB6803F00073002B14BFC8
:1034600001230023DBB208E0394BDB6803F0007373
:10347000002B14BF01230023DBB2002B07D0FB6815
:103480001B6C23F4405343F48052FB681A64FB68BE
:103490001B6C03F48053B3F5805F06D1FB685B6C53
:1034A00023F00602FB685A6402E0FB6800225A64BB
:1034B000FB68002283F83C20FB689B6B254A9A62DC
:1034C000FB689B6B244ADA62FB689B6B234A1A6396
:1034D000FB681B681C221A60FB681B685A68FB6843
:1034E0001B6842F010025A60FB681B68DA68FB68D0
:1034F0001B6842F00102DA60FB68986BFB681B688E
:1035000040331946BA687B6801F026FBFB681B68EC
:103510009A68FB681B6842F004029A600DE0FB6841
:10352000002283F83C2008E00123FB75FB680022A1
:1035300083F83C2001E00223FB75FB7D1846183719
:10354000BD4680BD00010050000300500007005040
:1035500000040050DD44000857450008734500088A
:1035600080B584B000AF78600023FB737B6893F86C
:103570003C30012B01D1022350E07B68012283F80B
:103580003C206C21786801F0D9F80346FB73FB7B83
:10359000002B3ED17B681B68DA687B681B6822F0D1
:1035A0000102DA607B689B6B93F82130022B0FD10C
:1035B0007B689B6B184601F02EFB0346FB73FB7B7D
:1035C000002B05D07B681B6C43F040027B681A64BB
:1035D0007B681B685A687B681B6822F010025A607F
:1035E000FB7B002B05D1786801F042F80346FB73A2
:1035F00002E0786801F03CF8FB7B002B09D17B6886
:103600001B6C23F4885323F0010343F001027B6811
:103610001A647B68002283F83C20FB7B1846103735
:10362000BD4680BD80B588B000AF78600023FB61E7
:103630000023BB6100237B617B681B681B683B61C7
:103640007B681B685B68FB603B6903F00403002B2D
:1036500004D0FB6803F00403002B0BD13B6903F09B
:103660000803002B00F0BC80FB6803F00803002B6C
:1036700000F0B6807B681B6C03F01003002B05D1B3
:103680007B681B6C43F400727B681A647B681B6860
:10369000B3F1A04F04D07B681B68904A934206D1D7
:1036A0008F4B9B6803F01F03002B3ED005E08D4B32
:1036B0009B6803F01F03002B37D07B681B68B3F1B6
:1036C000A04F04D07B681B68844A934206D1844B88
:1036D0009B6803F01F03052B27D005E0814B9B68F7
:1036E00003F01F03052B20D07B681B68B3F1A04FAC
:1036F00004D07B681B68794A934206D1784B9B685B
:1037000003F01F03092B10D005E0764B9B6803F0F4
:103710001F03092B09D07B681B68B3F1A04F04D0AD
:103720007B681B68704A934204D17B681B68DB6826
:10373000BB610FE07B681B68B3F1A04F04D07B68CE
:103740001B68664A934202D14FF0A04300E0664BEB
:10375000DB68BB617B681B68DB6803F44063002B9C
:1037600037D1BB6903F40053002B32D13B6903F01E
:103770000803002B2DD07B681B689B6803F00403B3
:10378000002B1AD17B681B685A687B681B6822F083
:103790000C025A607B681B6C23F480727B681A648D
:1037A0007B681B6C03F48053002B12D17B681B6C6D
:1037B00043F001027B681A640BE07B681B6C43F0EA
:1037C00010027B681A647B685B6C43F001027B68C3
:1037D0005A647868FEF7C2FB7B681B680C221A608B
:1037E0003B6903F02003002B04D0FB6803F02003A7
:1037F000002B0BD13B6903F04003002B00F0388114
:10380000FB6803F04003002B00F032817B681B6CE7
:1038100043F400527B681A647B681B68B3F1A04FC5
:1038200004D07B681B682D4A934206D12C4B9B68C1
:1038300003F01F03002B3ED005E02A4B9B6803F0EA
:103840001F03002B37D07B681B68B3F1A04F04D057
:103850007B681B68214A934206D1214B9B6803F089
:103860001F03052B27D005E01E4B9B6803F01F03A9
:10387000052B20D07B681B68B3F1A04F04D07B6878
:103880001B68164A934206D1154B9B6803F01F0331
:10389000092B10D005E0134B9B6803F01F03092B85
:1038A00009D07B681B68B3F1A04F04D07B681B680C
:1038B0000D4A934204D17B681B68DB68BB6118E04A
:1038C0007B681B68B3F1A04F04D07B681B68034A78
:1038D00093420BD14FF0A04309E000BF000100501C
:1038E000000300500007005000040050924BDB68BA
:1038F000BB617B681B68DB6C03F0C003002B40F0EE
:10390000B080BB6903F00073002B0DD07B681B688F
:10391000DB6803F44063002B40F0A380BB6903F431
:103920000053002B40F09D803B6903F04003002BC7
:1039300000F097807B681B68B3F1A04F04D07B68D0
:103940001B687E4A934206D17D4B9B6803F01F03A0
:10395000002B3ED005E07B4B9B6803F01F03002B40
:1039600037D07B681B68B3F1A04F04D07B681B681D
:10397000724A934206D1724B9B6803F01F03062BD9
:1039800027D005E06F4B9B6803F01F03062B20D068
:103990007B681B68B3F1A04F04D07B681B68674A43
:1039A000934206D1664B9B6803F01F03072B10D090
:1039B00005E0644B9B6803F01F03072B09D07B686D
:1039C0001B68B3F1A04F04D07B681B685A4A93422E
:1039D00004D17B681B68DB687B610FE07B681B6838
:1039E000B3F1A04F04D07B681B68544A934202D1C4
:1039F0004FF0A04300E0504BDB687B617B6903F430
:103A00000013002B2DD17B681B689B6803F0080313
:103A1000002B1AD17B681B685A687B681B6822F0F0
:103A200060025A607B681B6C23F480527B681A64C6
:103A30007B681B6C03F48073002B12D17B681B6CBA
:103A400043F001027B681A640BE07B681B6C43F057
:103A500010027B681A647B685B6C43F001027B6830
:103A60005A64786800F036F97B681B6860221A6037
:103A70003B6903F08003002B11D0FB6803F0800347
:103A8000002B0CD07B681B6C43F480327B681A647B
:103A90007868FFF755FA7B681B6880221A603B69DB
:103AA00003F48073002B12D0FB6803F48073002BA7
:103AB0000DD07B681B6C43F400327B681A64786815
:103AC00000F01CF97B681B684FF480721A603B6938
:103AD00003F40073002B12D0FB6803F40073002B77
:103AE0000DD07B681B6C43F480227B681A64786875
:103AF00000F00EF97B681B684FF400721A603B6996
:103B000003F01003002B4FD0FB6803F01003002BD1
:103B10004AD07B685B6B012B02D10123FB612DE056
:103B20007B681B68B3F1A04F04D07B681B68034A15
:103B3000934209D1024B08E00004005000010050FC
:103B40000003005000070050284BBB60BB689B6817
:103B500003F01F03002B09D17B681B68DB6803F0AF
:103B60000103012B0AD10123FB6107E0BB689B68BD
:103B700003F44043002B01D00123FB61FB69012BBF
:103B80000ED17B681B6C43F480627B681A647B688F
:103B90005B6C43F002027B685A647868FFF7DAF9DD
:103BA0007B681B6810221A603B6903F48063002B5A
:103BB00018D0FB6803F48063002B13D07B681B6C68
:103BC00043F480427B681A647B685B6C43F00802B4
:103BD0007B685A647B681B684FF480621A6078685F
:103BE00000F082F800BF2037BD4680BD00070050BE
:103BF00080B584B000AF786039600023FB737B68C8
:103C000093F83C30012B01D102235FE07B68012255
:103C100083F83C20786800F02BFD0346FB73FB7BA8
:103C2000002B4ED17B6801221A647B681B689A685E
:103C30007B681B6822F080429A603B68012B07D1A9
:103C40007B681B689A687B681B6842F080429A60B8
:103C50007B681B689A687B681B6842F000429A6028
:103C6000FFF734F9B8601CE0FFF730F90246BB6893
:103C7000D31A0A2B15D97B681B689B6803F0004395
:103C8000B3F1004F0DD17B681B6C23F0120343F09E
:103C900010027B681A647B68002283F83C200123B1
:103CA00014E07B681B689B6803F00043B3F1004F8E
:103CB000DAD07B681B6C23F0030343F001027B68BE
:103CC0001A647B68002283F83C20FB7B184610377F
:103CD000BD4680BD80B483B000AF786000BF0C37B4
:103CE000BD465DF8047B704780B483B000AF786058
:103CF00000BF0C37BD465DF8047B704780B483B0CD
:103D000000AF786000BF0C37BD465DF8047B70479C
:103D100080B483B000AF786000BF0C37BD465DF85B
:103D2000047B704780B49BB000AF7860396000239B
:103D300087F867300023BB607B6893F83C30012B29
:103D400001D10223C8E27B68012283F83C207B6812
:103D50001B689B6803F00403002B40F0AC823B68B7
:103D60005B68042B1CD87B681B68196B3B685A681E
:103D700013465B0013445B001A461F239340DB434A
:103D800019403B6818683B685A6813465B00134447
:103D90005B0000FA03F27B681B680A431A6363E066
:103DA0003B685B68092B1ED87B681B68596B3B68B6
:103DB0005A6813465B0013445B001E3B1F2202FA45
:103DC00003F3DB4319403B6818683B685A681346A5
:103DD0005B0013445B001E3B00FA03F27B681B6828
:103DE0000A435A6340E03B685B680E2B1ED87B6831
:103DF0001B68996B3B685A6813465B0013445B0071
:103E00003C3B1F2202FA03F3DB4319403B6818686E
:103E10003B685A6813465B0013445B003C3B00FA66
:103E200003F27B681B680A439A631DE07B681B688A
:103E3000D96B3B685A6813465B0013445B005A3BDE
:103E40001F2202FA03F3DB4319403B6818683B6802
:103E50005A6813465B0013445B005A3B00FA03F2B6
:103E60007B681B680A43DA637B681B689B6803F006
:103E70000C03002B40F0E5803B681B68092B1CD924
:103E80007B681B6899693B681A6813465B0013449A
:103E90001E3B072202FA03F3DB4319403B68986894
:103EA0003B681A6813465B0013441E3B00FA03F29A
:103EB0007B681B680A439A6119E07B681B68596933
:103EC0003B681A6813465B001344072202FA03F3A7
:103ED000DB4319403B6898683B681A6813465B00EF
:103EE000134400FA03F27B681B680A435A613B687B
:103EF0005A697B681B68DB68DB0803F003035B001F
:103F000002FA03F33B663B681B69013B032B4FD866
:103F100001A252F823F000BF293F00084B3F0008E0
:103F20006D3F00088F3F00087B681B681A6E994B35
:103F300013403A68126891063A6E0A431A437B6846
:103F40001B6842F000421A667BE07B681B685A6E71
:103F5000904B13403A68126891063A6E0A431A432E
:103F60007B681B6842F000425A666AE07B681B6807
:103F70009A6E884B13403A68126891063A6E0A436B
:103F80001A437B681B6842F000429A6659E07B68DE
:103F90001B68DA6E7F4B13403A68126891063A6EDE
:103FA0000A431A437B681B6842F00042DA6648E025
:103FB0007B681B681B6E03F0F8423B681B689B061E
:103FC0009A4207D17B681B681A6E7B681B6822F0D7
:103FD00000421A667B681B685B6E03F0F8423B6820
:103FE0001B689B069A4207D17B681B685A6E7B68E8
:103FF0001B6822F000425A667B681B689B6E03F0C8
:10400000F8423B681B689B069A4207D17B681B6895
:104010009A6E7B681B6822F000429A667B681B6878
:10402000DB6E03F0F8423B681B689B069A4207D19F
:104030007B681B68DA6E7B681B6822F00042DA66D8
:1040400000BF7B681B689B6803F00303012B08D14A
:104050007B681B681B6803F00103012B01D101235E
:1040600000E00023002B40F031813B68DB68012B2E
:104070000FD07B681B68D3F8B0103B681B68012227
:1040800002FA03F3DA437B681B680A40C3F8B020E6
:1040900049E07B681B68D3F8B0103B681B680122BD
:1040A0009A407B681B680A43C3F8B0203B681B68D2
:1040B000092B1CD97B681B6899693B681A681346F1
:1040C0005B0013441B3B072202FA03F3DB43194056
:1040D0003B6898683B681A6813465B0013441B3BB7
:1040E00000FA03F27B681B680A439A611BE07B6855
:1040F0001B6859693B681B685A1C13465B001344D4
:10410000072202FA03F3DB4319403B6898683B68D7
:104110001B685A1C13465B00134400FA03F27B68C9
:104120001B680A435A617B681B68B3F1A04F04D037
:104130007B681B68184A934201D1184B00E0184B6A
:10414000FB653B681B68102B05D1FB6D9B6803F476
:104150000003002B15D03B681B68112B05D1FB6DAC
:104160009B6803F08073002B0BD03B681B68122BFD
:1041700040F0AC80FB6D9B6803F48003002B40F0A3
:10418000A5807B681B68B3F1A04F0BD1024BFB608D
:1041900023E000BF00F0FF83000100500003005047
:1041A000000700507B681B684E4A934203D14FF0D2
:1041B000A043FB6011E07B681B684B4A934202D12D
:1041C0004A4BFB6009E07B681B68484A934202D176
:1041D000454BFB6001E00023FB607B681B689B682C
:1041E00003F00303012B08D17B681B681B6803F0F5
:1041F0000103012B01D1012300E00023002B50D14A
:10420000FB68002B10D0FB689B6803F00303012BB5
:1042100007D1FB681B6803F00103012B01D10123C7
:1042200000E00023002B3CD13B681B68102B1DD104
:104230007B681B68B3F1A04F18D1FB6D9B6843F4FA
:104240000002FB6D9A602A4B1B682A4AA2FB0323DB
:104250009A0C13469B0013445B00BB6002E0BB68F2
:10426000013BBB60BB68002BF9D12EE03B681B68AB
:10427000112B0BD17B681B68B3F1A04F06D1FB6DEE
:104280009B6843F08072FB6D9A601EE03B681B6880
:10429000122B1AD1FB6D9B6843F48002FB6D9A6070
:1042A00013E07B681B6C43F020027B681A640123D7
:1042B00087F867300AE07B681B6C43F020027B685C
:1042C0001A64012387F8673000E000BF7B68002292
:1042D00083F83C2097F8673018466C37BD465DF888
:1042E000047B70470001005000040050000500509E
:1042F0000800002083DE1B4380B499B000AF7860D3
:104300003960002387F85F307B681B68B3F1A04FEA
:1043100002D16D4BBB601AE07B681B686A4A93420E
:1043200003D14FF0A043BB6011E07B681B68674A74
:10433000934202D1664BBB6009E07B681B68644A0C
:10434000934202D1614BBB6001E00023BB60BB68BC
:10435000002B01D10123B0E07B6893F83C30012BA6
:1043600001D10223A9E07B68012283F83C207B680D
:104370001B689B6803F00403002B40F08D80BB6832
:104380009B6803F00403002B40F086807B681B6869
:10439000B3F1A04F04D07B681B684B4A934201D114
:1043A0004C4B00E04C4BBB653B681B68002B40D07E
:1043B000BB6D9B6823F460423B6859687B6893F847
:1043C00030305B030B431A43BB6D9A607B681B68FC
:1043D0009B6803F00303012B08D17B681B681B68F3
:1043E00003F00103012B01D1012300E00023002B86
:1043F0005CD1BB689B6803F00303012B07D1BB684A
:104400001B6803F00103012B01D1012300E000230D
:10441000002B4BD1BB6D9B6823F4716323F00F031A
:104420003A6811683A6892680A431A43BB6D9A6009
:104430003CE0BB6D9B6823F46042BB6D9A607B6877
:104440001B689B6803F00303012B08D17B681B6882
:104450001B6803F00103012B01D1012300E00023BD
:10446000002B23D1BB689B6803F00303012B07D10A
:10447000BB681B6803F00103012B01D1012300E09D
:104480000023002B12D1BB6D9B6823F4716323F0D2
:104490000F03BA6D936009E07B681B6C43F0200248
:1044A0007B681A64012387F85F3000E000BF7B68F7
:1044B000002283F83C2097F85F3018466437BD46E9
:1044C0005DF8047B704700BF0001005000040050FD
:1044D00000050050000300500007005080B584B074
:1044E00000AF78607B685B6AFB60FB681B6C03F065
:1044F0005003002B26D1FB681B6C43F40072FB6851
:104500001A64FB681B68DB6803F44063002B15D159
:10451000FB685B7E002B11D1FB681B6C23F480725F
:10452000FB681A64FB681B6C03F48053002B05D1F5
:10453000FB681B6C43F00102FB681A64F868FDF726
:104540000DFD04E0FB689B6B1B6B7868984700BF10
:104550001037BD4680BD80B584B000AF78607B6801
:104560005B6AFB60F868FEF7E1FC00BF1037BD46F0
:1045700080BD80B584B000AF78607B685B6AFB600B
:10458000FB681B6C43F04002FB681A64FB685B6CC1
:1045900043F00402FB685A64F868FEF7DBFC00BFD6
:1045A0001037BD4680BD000080B584B000AF786094
:1045B0000023FB607B681B689B6803F00303012BEF
:1045C00008D17B681B681B6803F00103012B01D134
:1045D000012300E00023002B43D17B681B689A680D
:1045E000224B1340002B0DD07B681B6C43F0100254
:1045F0007B681A647B685B6C43F001027B685A64D9
:1046000001232FE07B681B689A687B681B6842F077
:1046100001029A60FEF75AFCF8601BE0FEF756FCB8
:104620000246FB68D31A022B14D97B681B681B68EF
:1046300003F00103012B0DD07B681B6C43F01002CB
:104640007B681A647B685B6C43F001027B685A6488
:10465000012307E07B681B681B6803F00103012B43
:10466000DCD1002318461037BD4680BD3F000080D6
:1046700080B584B000AF78600023FB607B681B6866
:104680009B6803F00303012B08D17B681B681B6840
:1046900003F00103012B01D1012300E00023002BD3
:1046A00047D07B681B689B6803F00D03012B0FD17B
:1046B0007B681B689A687B681B6842F002029A60FC
:1046C0007B681B6803221A60FEF700FCF86029E093
:1046D0007B681B6C43F010027B681A647B685B6C20
:1046E00043F001027B685A64012323E0FEF7EEFBEE
:1046F0000246FB68D31A022B14D97B681B689B689F
:1047000003F00103012B0DD17B681B6C43F01002F9
:104710007B681A647B685B6C43F001027B685A64B7
:10472000012307E07B681B689B6803F00103012BF2
:10473000DCD0002318461037BD4680BD80B586B05A
:1047400000AF7860396000237B610023FB600023A9
:104750003B617B681B689B6803F00C03002B00F037
:104760009B807B681B68DB6803F00073B3F1007FFC
:104770002AD17B685B7E012B26D17B681B7E012BB7
:1047800022D10C233B6014E03B69464A93420DD989
:104790007B681B6C43F010027B681A647B685B6C5F
:1047A00043F001027B685A64012376E03B690133E0
:1047B0003B617B681B681B6803F04003402BE3D11F
:1047C0007B681B6840221A603B68602B15D07B68B1
:1047D0001B689B6803F00403042B0ED17B681B68E5
:1047E0009B6803F00203002B07D17B681B689A6863
:1047F0007B681B6842F010029A603B680C2B15D056
:104800007B681B689B6803F00803082B0ED17B684C
:104810001B689B6803F00203002B07D17B681B68B1
:104820009A687B681B6842F020029A603B68602BA4
:1048300005D03B686C2B05D10C237B6105E0082378
:104840007B6102E004237B6100BFFEF73FFBF86061
:104850001BE0FEF73BFB0246FB68D31A0B2B14D977
:104860007B681B689A687B691340002B0DD07B68BE
:104870001B6C43F010027B681A647B685B6C43F02E
:1048800001027B685A64012307E07B681B689A6811
:104890007B691340002BDCD1002318461837BD4636
:1048A00080BD00BFFF93090080B485B000AF786081
:1048B0007B6803F00703FB600C4BDB68BB60BA68E6
:1048C0004FF6FF031340BB60FB681A02BB6813433B
:1048D00043F0BF6343F40033BB60044ABB68D3605A
:1048E00000BF1437BD465DF8047B704700ED00E063
:1048F00080B400AF044BDB681B0A03F007031846C3
:10490000BD465DF8047B704700ED00E080B483B0E5
:1049100000AF0346FB7197F90730002B0BDBFB79E7
:1049200003F01F02074997F907305B09012000FADD
:1049300002F241F8232000BF0C37BD465DF8047B2E
:10494000704700BF00E100E080B483B000AF0346D1
:104950003960FB7197F90730002B0ADB3B68DAB24C
:104960000C4997F907301201D2B20B4483F80023A7
:104970000AE03B68DAB20849FB7903F00F03043B15
:104980001201D2B20B441A7600BF0C37BD465DF857
:10499000047B704700E100E000ED00E080B489B0E6
:1049A00000AFF860B9607A60FB6803F00703FB6151
:1049B000FB69C3F10703042B28BF0423BB61FB6918
:1049C0000433062B02D9FB69033B00E000237B6123
:1049D0004FF0FF32BB6902FA03F3DA43BB681A40B7
:1049E0007B699A404FF0FF317B6901FA03F3D943A9
:1049F0007B680B40134318462437BD465DF8047BA3
:104A00007047000080B582B000AF78607B68013BE2
:104A1000B3F1807F01D301230FE00A4A7B68013B99
:104A200053600F214FF0FF30FFF78EFF054B002240
:104A30009A60044B07221A60002318460837BD46C7
:104A400080BD00BF10E000E080B582B000AF7860AC
:104A50007868FFF729FF00BF0837BD4680BD80B5E5
:104A600086B000AF0346B9607A60FB7300237B61B8
:104A7000FFF73EFF78617A68B9687869FFF78EFFC3
:104A8000024697F90F3011461846FFF75DFF00BF49
:104A90001837BD4680BD80B582B000AF0346FB71BC
:104AA00097F907301846FFF731FF00BF0837BD46BA
:104AB00080BD80B582B000AF78607868FFF7A2FF54
:104AC000034618460837BD4680BD80B584B000AFA8
:104AD00078600023FB607B68002B01D1012337E065
:104AE0007B68022283F821207B681B681B68FB60BF
:104AF000FB6823F47F5323F03003FB607B685A6824
:104B00007B689B681A437B68DB681A437B681B6978
:104B10001A437B685B691A437B689B691A437B680D
:104B2000DB691343FA681343FB607B681B68FA6810
:104B30001A60786800F0C8F97B6800229A637B6885
:104B4000012283F821207B68002283F820200023A3
:104B500018461037BD4680BD80B586B000AFF860FE
:104B6000B9607A603B600023FB75FB6893F82030E6
:104B7000012B01D102234AE0FB68012283F82020A7
:104B8000FB6893F82130012B3AD1FB68022283F8AD
:104B90002120FB6800229A63FB681B681A68FB6887
:104BA0001B6822F001021A603B687A68B968F868ED
:104BB00000F05CF9FB68DB6A002B08D0FB681B681F
:104BC0001A68FB681B6842F00E021A600FE0FB686F
:104BD0001B681A68FB681B6842F00A021A60FB68CF
:104BE0001B681A68FB681B6822F004021A60FB68E5
:104BF0001B681A68FB681B6842F001021A6005E036
:104C0000FB68002283F820200223FB75FB7D1846F9
:104C10001837BD4680BD80B483B000AF78607B6834
:104C2000002B01D101232EE07B6893F82130022B69
:104C300008D07B6804229A637B68002283F82020D6
:104C4000012320E07B681B681A687B681B6822F0E0
:104C50000E021A607B681B681A687B681B6822F06A
:104C600001021A607B681A6C7B68DB6B012101FA18
:104C700002F25A607B68012283F821207B680022BF
:104C800083F82020002318460C37BD465DF8047BCE
:104C9000704780B584B000AF78600023FB737B68F9
:104CA00093F82130022B05D07B6804229A630123FC
:104CB000FB7327E07B681B681A687B681B6822F01F
:104CC0000E021A607B681B681A687B681B6822F0FA
:104CD00001021A607B681A6C7B68DB6B012101FAA8
:104CE00002F25A607B68012283F821207B6800224F
:104CF00083F820207B685B6B002B03D07B685B6BA9
:104D000078689847FB7B18461037BD4680BD80B554
:104D100084B000AF78607B68DB6B1B68FB607B68EE
:104D20001B681B68BB607B681B6C04229A40FB6895
:104D30001340002B24D0BB6803F00403002B1FD0CA
:104D40007B681B681B6803F02003002B07D17B687E
:104D50001B681A687B681B6822F004021A607B6873
:104D60001A6C7B68DB6B042101FA02F25A607B68E3
:104D7000DB6A002B6AD07B68DB6A7868984765E05D
:104D80007B681B6C02229A40FB681340002B2CD0DE
:104D9000BB6803F00203002B27D07B681B681B68ED
:104DA00003F02003002B0BD17B681B681A687B681B
:104DB0001B6822F00A021A607B68012283F8212016
:104DC0007B681A6C7B68DB6B022101FA02F25A6085
:104DD0007B68002283F820207B689B6A002B35D0FB
:104DE0007B689B6A7868984730E07B681B6C082278
:104DF0009A40FB681340002B28D0BB6803F00803DF
:104E0000002B23D07B681B681A687B681B6822F024
:104E10000E021A607B681A6C7B68DB6B012101FA59
:104E200002F25A607B6801229A637B68012283F850
:104E300021207B68002283F820207B681B6B002BDD
:104E400004D07B681B6B78689847FFE700BF10377A
:104E5000BD4680BD80B483B000AF78607B689B6B3B
:104E600018460C37BD465DF8047B704780B485B0AA
:104E700000AFF860B9607A603B60FB681A6CFB6851
:104E8000DB6B012101FA02F25A60FB681B683A6889
:104E90005A60FB685B68102B08D1FB681B687A6856
:104EA0009A60FB681B68BA68DA6007E0FB681B68F9
:104EB000BA689A60FB681B687A68DA6000BF1437CA
:104EC000BD465DF8047B704780B483B000AF786066
:104ED0007B681B681A46144B9A420FD87B681B6884
:104EE0001A46124B1344124AA2FB03231B099A00D1
:104EF0007B681A647B680F4ADA630EE07B681B6884
:104F00001A460D4B13440A4AA2FB03231B099A00BD
:104F10007B681A647B68094ADA6300BF0C37BD46B8
:104F20005DF8047B704700BF07040240F8FFFDBF37
:104F3000CDCCCCCC00000240F8FBFDBF0004024009
:104F400080B487B000AF7860396000237B6154E1A2
:104F50003B681A6801217B6901FA03F31340FB6087
:104F6000FB68002B00F046813B685B6803F003039D
:104F7000012B05D03B685B6803F00303022B30D1A3
:104F80007B689B683B617B695B00032202FA03F349
:104F9000DB433A6913403B613B68DA687B695B003D
:104FA00002FA03F33A6913433B617B683A699A60FA
:104FB0007B685B683B6101227B6902FA03F3DB4398
:104FC0003A6913403B613B685B681B0903F00102CF
:104FD0007B6902FA03F33A6913433B617B683A69E0
:104FE0005A603B685B6803F00303032B17D07B68B0
:104FF000DB683B617B695B00032202FA03F3DB435E
:105000003A6913403B613B689A687B695B0002FA2E
:1050100003F33A6913433B617B683A69DA603B68A2
:105020005B6803F00303022B23D17B69DA087B68FA
:10503000083253F822303B617B6903F007039B0081
:105040000F2202FA03F3DB433A6913403B613B68EA
:105050001A697B6903F007039B0002FA03F33A69BC
:1050600013433B617B69DA087B680832396943F88E
:1050700022107B681B683B617B695B00032202FA9C
:1050800003F3DB433A6913403B613B685B6803F021
:1050900003027B695B0002FA03F33A6913433B6145
:1050A0007B683A691A603B685B6803F44033002B05
:1050B00000F0A080584B9B69574A43F0010393616D
:1050C000554B9B6903F00103BB60BB68534A7B6986
:1050D0009B08023352F823303B617B6903F00303E2
:1050E0009B000F2202FA03F3DB433A6913403B6152
:1050F0007B68B3F1904F19D07B68494A934213D033
:105100007B68484A93420DD07B68474A934207D058
:105110007B68464A934201D1042308E0052306E058
:10512000032304E0022302E0012300E000237A6964
:1051300002F00302920093403A6913433B613749FE
:105140007B699B0802333A6941F82320384B9B68FE
:105150003B61FB68DB433A6913403B613B685B683A
:1051600003F48013002B03D03A69FB6813433B61BF
:105170002F4A3B6993602E4BDB683B61FB68DB4346
:105180003A6913403B613B685B6803F40013002BF2
:1051900003D03A69FB6813433B61254A3B69D360FE
:1051A000234B5B683B61FB68DB433A6913403B611F
:1051B0003B685B6803F40033002B03D03A69FB685B
:1051C00013433B611A4A3B695360194B1B683B61AF
:1051D000FB68DB433A6913403B613B685B6803F45F
:1051E0008033002B03D03A69FB6813433B61104ABC
:1051F0003B6913607B6901337B613B681A687B699B
:1052000022FA03F3002B7FF4A3AE00BF00BF1C37CC
:10521000BD465DF8047B704700100240000001406D
:105220000004004800080048000C00480010004836
:105230000004014080B485B000AF78600B467B80ED
:105240007B681A697B881340002B02D00123FB7313
:1052500001E00023FB73FB7B18461437BD465DF865
:10526000047B704780B483B000AF78600B467B80CE
:1052700013467B707B78002B03D07A887B689A6119
:1052800002E07A887B689A6200BF0C37BD465DF801
:10529000047B704780B485B000AF78600B467B809C
:1052A0007B685B69FB607A88FB6813401A04FB68C3
:1052B000D9437B880B401A437B689A6100BF14373F
:1052C000BD465DF8047B704780B582B000AF0346F1
:1052D000FB80084B5A69FB881340002B06D0054A17
:1052E000FB885361FB881846FCF710FD00BF0837A8
:1052F000BD4680BD0004014080B582B000AF78603B
:105300007B68002B01D101238DE07B6893F841304D
:10531000DBB2002B06D17B68002283F8402078683E
:10532000FDF7FCF97B68242283F841207B681B6829
:105330001A687B681B6822F001021A607B685A6851
:105340007B681B6822F070621A617B681B689A6830
:105350007B681B6822F400429A607B68DB68012B43
:1053600007D17B689A687B681B6842F400429A60A8
:1053700006E07B689A687B681B6842F404429A6086
:105380007B68DB68022B08D17B681B685A687B68E6
:105390001B6842F400625A6007E07B681B685A6829
:1053A0007B681B6822F400625A607B681B685B683C
:1053B0007A68126843F0007343F4004353607B68DB
:1053C0001B68DA687B681B6822F40042DA607B683D
:1053D0001A697B685B6942EA03017B689B691A0270
:1053E0007B681B680A43DA607B68D9697B681A6A44
:1053F0007B681B680A431A607B681B681A687B68B5
:105400001B6842F001021A607B6800225A647B68C4
:10541000202283F841207B6800221A637B680022E7
:1054200083F84220002318460837BD4680BD00009F
:1054300080B588B002AFF8607A601A460B467B816F
:1054400013463B81FB6893F84130DBB2202B40F0E0
:10545000FD80FB6893F84030012B01D10223F6E078
:10546000FB68012283F84020FDF730FD38613B697D
:105470000093192301224FF40041F86800F00AFA62
:105480000346002B01D00123E1E0FB68212283F8D1
:105490004120FB68102283F84220FB6800225A64F6
:1054A000FB687A685A62FB683A895A85FB68002271
:1054B0005A63FB685B8D9BB2FF2B06D9FB68FF220A
:1054C0001A854FF080737B6107E0FB685B8D9AB2B1
:1054D000FB681A854FF000737B61FB681B8D002B06
:1054E00024D0FB685B6A1A78FB681B689A62FB68C9
:1054F0005B6A5A1CFB685A62FB685B8D9BB2013B7E
:105500009AB2FB685A85FB681B8D013B9AB2FB6817
:105510001A85FB681B8DDBB20133DAB279894E4BF9
:1055200000937B69F86800F005FC66E0FB681B8D62
:10553000DAB27989484B00937B69F86800F0FAFB8E
:105540005BE03A69396AF86800F0FDF90346002B20
:1055500001D001237BE0FB685B6A1A78FB681B685B
:105560009A62FB685B6A5A1CFB685A62FB685B8D37
:105570009BB2013B9AB2FB685A85FB681B8D013BCD
:105580009AB2FB681A85FB685B8D9BB2002B34D006
:10559000FB681B8D002B30D13B6900933B6A0022D6
:1055A0008021F86800F076F90346002B01D0012332
:1055B0004DE0FB685B8D9BB2FF2B0ED9FB68FF2291
:1055C0001A85FB681B8DDAB27989002300934FF0AE
:1055D0008073F86800F0AEFB0FE0FB685B8D9AB259
:1055E000FB681A85FB681B8DDAB27989002300936A
:1055F0004FF00073F86800F09DFBFB685B8D9BB279
:10560000002B9ED13A69396AF86800F0E3F9034645
:10561000002B01D001231AE0FB681B682022DA610D
:10562000FB681B685968FB681A680C4B0B40536099
:10563000FB68202283F84120FB68002283F8422087
:10564000FB68002283F84020002300E00223184674
:105650001837BD4680BD00BF0020008000E800FE76
:1056600080B588B002AFF8607A601A460B467B813D
:1056700013463B81FB6893F84130DBB2202B40F0AE
:10568000DB80FB6893F84030012B01D10223D4E08A
:10569000FB68012283F84020FDF718FC78617B69E4
:1056A0000093192301224FF40041F86800F0F2F84A
:1056B0000346002B01D00123BFE0FB68222283F8C0
:1056C0004120FB68102283F84220FB6800225A64C4
:1056D000FB687A685A62FB683A895A85FB6800223F
:1056E0005A63FB685B8D9BB2FF2B0ED9FB680122CE
:1056F0001A85FB681B8DDAB27989524B00934FF003
:105700008073F86800F016FB6DE0FB685B8D9AB261
:10571000FB681A85FB681B8DDAB27989494B0093C7
:105720004FF00073F86800F005FB5CE07A69396AB5
:10573000F86800F093F90346002B01D001237CE0C8
:10574000FB681B685A6AFB685B6AD2B21A70FB6816
:105750005B6A5A1CFB685A62FB681B8D013B9AB25C
:10576000FB681A85FB685B8D9BB2013B9AB2FB68B4
:105770005A85FB685B8D9BB2002B34D0FB681B8D78
:10578000002B30D17B6900933B6A00228021F868AE
:1057900000F080F80346002B01D001234DE0FB68A8
:1057A0005B8D9BB2FF2B0ED9FB68FF221A85FB682D
:1057B0001B8DDAB27989002300934FF08073F8686B
:1057C00000F0B8FA0FE0FB685B8D9AB2FB681A85AF
:1057D000FB681B8DDAB27989002300934FF00073C8
:1057E000F86800F0A7FAFB685B8D9BB2002B9DD197
:1057F0007A69396AF86800F0EDF80346002B01D0A9
:1058000001231AE0FB681B682022DA61FB681B6831
:105810005968FB681A680C4B0B405360FB682022E8
:1058200083F84120FB68002283F84220FB680022B5
:1058300083F84020002300E0022318461837BD46B5
:1058400080BD00BF0024008000E800FE80B483B06B
:1058500000AF78607B681B689B6903F00203022B32
:1058600003D17B681B6800229A627B681B689B6976
:1058700003F00103012B07D07B681B689A697B68E2
:105880001B6842F001029A6100BF0C37BD465DF80B
:10589000047B704780B584B000AFF860B9603B60AE
:1058A0001346FB713BE0BA693968F86800F062F9A9
:1058B0000346002B01D0012341E03B68B3F1FF3FD9
:1058C0002DD0FDF703FB0246BB69D31A3A689A4212
:1058D00002D33B68002B22D1FB681B689A69BB6826
:1058E0001340BA689A420CBF01230023DBB21A4668
:1058F000FB799A4213D1FB685B6C43F02002FB6892
:105900005A64FB68202283F84120FB68002283F858
:105910004220FB68002283F8402001230FE0FB684F
:105920001B689A69BB681340BA689A420CBF01238E
:105930000023DBB21A46FB799A42B4D00023184602
:105940001037BD4680BD80B584B000AFF860B96047
:105950007A6033E07A68B968F86800F00BF90346BA
:10596000002B01D0012331E0BB68B3F1FF3F25D00C
:10597000FDF7ACFA02467B68D31ABA689A4202D3A2
:10598000BB68002B1AD1FB681B689B6903F00203FC
:10599000022B13D0FB685B6C43F02002FB685A6457
:1059A000FB68202283F84120FB68002283F8422014
:1059B000FB68002283F84020012307E0FB681B6896
:1059C0009B6903F00203022BC4D100231846103751
:1059D000BD4680BD80B584B000AFF860B9607A6024
:1059E0002FE07A68B968F86800F0C4F80346002B25
:1059F00001D001232DE0FDF769FA02467B68D31A36
:105A0000BA689A4202D3BB68002B1AD1FB681B68A4
:105A10009B6903F02003202B13D0FB685B6C43F0E1
:105A20002002FB685A64FB68202283F84120FB684F
:105A3000002283F84220FB68002283F840200123E3
:105A400007E0FB681B689B6903F02003202BC8D18B
:105A5000002318461037BD4680BD000080B586B0D3
:105A600000AFF860B9607A600023FB7571E07A6876
:105A7000B968F86800F07EF80346002B01D00123D6
:105A8000FB75FB681B689B6903F02003202B3BD14F
:105A9000FB7D002B38D1FB681B689B6903F0040376
:105AA000042B05D1FB681B8D002B01D00023FB7557
:105AB000FB681B689B6903F01003102B21D1FB6866
:105AC0001B681022DA61FB6804225A64FB681B68B9
:105AD0002022DA61FB681B685968FB681A68244B4E
