:020000040800F2
:1000000000A00020952B00089129000897290008DE
:100010009D290008A3290008A92900080000000064
:10002000000000000000000000000000AF290008F0
:10003000BD29000800000000CB290008D9290008CC
:10004000E52B0008E52B0008E52B0008E52B000850
:10005000E52B0008E5290008E52B0008F329000836
:10006000E52B0008E52B0008E52B0008E52B000830
:10007000E52B0008E52B0008E52B0008E52B000820
:10008000012A0008152A0008292A0008E52B000883
:10009000E52B0008E52B0008E52B0008E52B000800
:1000A000452A0008E52B0008E52B0008E52B000891
:1000B000612A0008752A0008E52B0008892A000833
:1000C0009D2A0008E52B0008E52B0008E52B000819
:1000D000E52B0008E52B0008B12A0008E52B0008F5
:1000E000C52A0008E52B0008E52B0008DD2A0008DA
:1000F000E52B0008E52B0008E52B0008E52B0008A0
:10010000000000000000000000000000E52B0008D7
:10011000E52B0008E52B0008E52B0008E52B00087F
:10012000F12A0008E52B0008E52B0008E52B000864
:10013000E52B0008E52B000800000000000000008F
:10014000E52B0008E52B0008E52B00080000000067
:10015000000000000000000000000000000000009F
:100160000000000000000000E52B0008E52B00085F
:10017000E52B000800000000000000000000000067
:0801800000000000E52B00085F
:1001900010B5054C237833B9044B13B10448AFF3C1
:1001A00000800123237010BD7C00002000000000AF
:1001B00054CF000808B5034B1BB103490348AFF304
:1001C000008008BD000000008000002054CF00081F
:1001D00001F0FF01102A2BDB10F0070F08D010F8F8
:1001E000013B013A8B422DD010F0070F42B3F6D1FC
:1001F000F0B441EA012141EA014122F007047FF015
:1002000000070023F0E80256083C85EA010586EA6B
:10021000010685FA47F5A3FA87F586FA47F6A5FAA7
:1002200087F68EB9EED1F0BC01F0FF0102F00702B3
:1002300032B110F8013B013A83EA010313B1F8D15E
:100240000020704701387047002D06BF354603383F
:10025000073815F0010F07D1013015F4807F02BF78
:10026000013015F4C03F0130F0BC0138704700BFC9
:1002700080B586B000AF194B1B787B61184B1B789B
:10028000BB607A69BB681344013B7B607B68092BC8
:1002900009DD0B22002111480CF0E6F9114B002278
:1002A0001A70002316E001233B610023FB600CE081
:1002B0003A69531C3B617B69591C79610749895C28
:1002C000094AD154FB680133FB60FA68BB689A4263
:1002D000EEDB012318461837BD4680BDA400002080
:1002E000B2000020AF0000209800002080B582B04E
:1002F00000AF7860786805F06FFE00BF0837BD4634
:1003000080BD000080B582B000AF78600B46FB7006
:1003100013463B80FB78002B10D1164B00221A703D
:10032000154B00221A70144B1B781A46114BD1182A
:1003300000230122786805F09DFD16E00F4B002296
:100340001A700C4B1A780E4B1A700A4B00221A7056
:100350000B4B1B781A46094B1B781344094A991812
:1003600000230122786805F0D3FC00BF0837BD46A2
:1003700080BD00BFA4000020AF000020B00000201E
:10038000B10000209800002080B582B000AF7860F6
:100390000B4B1B780133DAB2094B1A70094B1B78EF
:1003A0001A46074B1B781344074A99184FF080737D
:1003B0000122786805F0ACFC00BF0837BD4680BD5F
:1003C000B0000020B10000209800002080B582B06D
:1003D00000AF7860174B1B780133DAB2154B1A70F7
:1003E000144B1B780A2B1AD8124B1B780A2B0BD1F3
:1003F000104B1B781A46104BD1184FF00073012296
:10040000786805F037FD0AE00A4B1B781A460A4B5C
:10041000D1184FF080730122786805F02BFD054B51
:100420001B780B2B01D1FFF723FF00BF0837BD4618
:1004300080BD00BFAF000020A400002080B584B0C4
:1004400000AF7860786805F094FEF860FB68042BD4
:1004500019D1194B1B78002B0BD1184B1B78013B82
:10046000DAB2174B1A70154B00221A70FFF700FF13
:100470001AE0114B1B78013BDAB2124B1A700E4B8B
:1004800000221A7010E0FB68012B0DD1786805F08E
:1004900012FA786805F080F90B2200210A480CF066
:1004A000E3F8064B00221A70786805F095FD00BF4E
:1004B0001037BD4680BD00BFB0000020AF00002057
:1004C000B2000020B3000020A400002080B586B058
:1004D00000AF3B4600221A605A609A60DA601A61E7
:1004E0005A6101233B6001237B600323BB603B46D1
:1004F0001946034803F05AFD00BF1837BD4680BDBA
:100500005401002080B586B000AF3B4600221A603F
:100510005A609A60DA601A615A610C233B600123C9
:100520007B600323BB603B461946034803F03EFD56
:1005300000BF1837BD4680BD5401002080B500AF14
:10054000FFF7C4FF0B4B00225A800B4802F0D4FD8A
:100550006421094802F01CFF074803F099F903469B
:100560009AB2044B5A80044802F0DCFE014B5B88CF
:10057000184680BD700500205401002080B500AFF2
:10058000FFF7C0FF0B4B00221A800B4802F0B4FDAE
:100590006421094802F0FCFE074803F079F903469C
:1005A0009AB2044B1A80044802F0BCFE014B1B882F
:1005B000184680BD700500205401002080B582B02F
:1005C00000AF0023FB716FE0FB79444A128891B2BF
:1005D000434A22F81310FB79424A32F81320424B67
:1005E0001B889A4214D3FB793D4A32F81330092B09
:1005F0000ED9FB793A4A32F81320FB790A3A91B2C4
:10060000374A22F8131001220121384805F07AF800
:10061000FB79344A32F81330B3F5A57F30D300218B
:10062000334809F0A1FA0421314809F09DFA00216C
:10063000304809F099FA00212F4809F095FA002175
:100640002B480AF0C9FE042129480AF0C5FE002102
:1006500028480AF0C1FE002127480AF0BDFE204BC1
:100660000A221A801E4B0A225A801D4B0A229A80A7
:100670001B4B0A22DA80012201211C4805F042F8B6
:10068000FB79174A32F81330092B0AD9FB79154A3E
:1006900032F813300A2B04D800220121134805F048
:1006A00031F8FB790133FB71FB79032B8CD90C4BAF
:1006B0001B881A460A4B5B881344094A92881344E4
:1006C000074AD2881344002B00DA03339B109AB2F6
:1006D0000A4B1A8000BF0837BD4680BD8405002044
:1006E00000000020700500200800002000140048D1
:1006F0005C020020400300208C03002082050020C3
:1007000080B586B002AF03460A46FB711346BB7143
:100710004FF0FF3301224E21204805F0EFF9034648
:10072000FB73FB7B002B00D0F2E700BFFB7923F0CB
:100730000F03BB73FB791B017B73BA7BBB7913433C
:10074000DBB243F00C03DBB23B72BA7BBB791343E1
:10075000DBB243F00803DBB27B727A7BBB791343D5
:10076000DBB243F00C03DBB2BB727A7BBB79134381
:10077000DBB243F00803DBB2FB7207F108024FF073
:10078000FF33009304234E21044805F0C3F80520ED
:1007900002F090FA00BF1037BD4680BDE80100208E
:1007A00080B586B002AF03460A46FB711346BB71A3
:1007B000FB791B01DBB2FB73FA7BBB791343DBB222
:1007C000FB73164B1B78DB005AB2FB7B5BB2134307
:1007D0005BB2DBB2FB73FB7B43F00403DBB2FB7366
:1007E00007F10F026423009301234E210C4805F00A
:1007F00091F8012002F05EFAFB7B23F00403DBB2E8
:10080000FB7307F10F026423009301234E21044878
:1008100005F080F800BF1037BD4680BD0A000020FB
:10082000E801002080B584B000AF0346FB71FB797E
:100830001B09FB73FB7903F00F03BB73FB7B0021E8
:100840001846FFF7ADFFBB7B00211846FFF7A8FF56
:10085000FB79012B02D0FB79022B02D1022002F09E
:1008600029FA00BF1037BD4680BD80B584B000AF07
:100870000346FB71FB791B09FB73FB7903F00F0344
:10088000BB73FB7B01211846FFF78AFFBB7B01216D
:100890001846FFF785FF00BF1037BD4680BD80B505
:1008A00000AF322002F006FA00210320FFF778FFA4
:1008B000052002F0FFF900210320FFF771FF01205E
:1008C00002F0F8F900210320FFF76AFF012002F08F
:1008D000F1F900210220FFF763FF2820FFF7A2FFB4
:1008E0000C20FFF79FFF0620FFF79CFF0120FFF77A
:1008F00099FF022002F0DEF900BF80BD80B582B012
:1009000000AF786006E07B685A1C7A601B78184656
:10091000FFF7ABFF7B681B78002BF4D100BF00BF53
:100920000837BD4680BD000080B584B000AF0346E7
:100930000A46FB711346BB71FB79013B032B17D8A9
:1009400001A252F823F000BF590900085F0900080E
:10095000650900086B0900088023FB730AE0C023C7
:10096000FB7307E09423FB7304E0D423FB7301E0E3
:100970008023FB73FA7BBB791344FB73FB7B63F02F
:100980007F03DBB21846FFF74DFF00BF1037BD46AF
:1009900080BD00BF80B500AF0120FFF743FF0220FC
:1009A00002F088F900BF80BD80B483B000AF7860EA
:1009B000174B1B68174A52F823307A68D21A164B25
:1009C0001B681344144A1360114B1B6811497A6861
:1009D00041F823200E4B1B68591C104B83FB01234D
:1009E000DA10CB17D21A13469B0013449B00CA1A85
:1009F000074B1A60084B1B68084A82FB0312D2108F
:100A0000DB17D31A18460C37BD465DF8047B7047D8
:100A1000C0050020C4050020140600206766666635
:100A200080B500AF20211B4804F054FE0346002B84
:100A300013D1194B1B78002B0FD10122022117482B
:100A400004F060FE144B01221A70154B1B78013321
:100A5000DAB2134B1A70FFF79DFF20210D4804F006
:100A600039FE0346002B12D00B4B1B78002B0ED007
:100A700000220221094804F045FE094B1B78022B95
:100A800002D9074B00221A70034B00221A7000BFD4
:100A900080BD00BF000400489D05002000140048F0
:100AA0009C05002080B400AF1A4B1B68194A43F420
:100AB00020231360174B5B68164A43F4407353605E
:100AC000144BDB68134A43F42023D360124B5B6959
:100AD000114A43F4802353610F4BDB690E4A43F400
:100AE0000013D3610B4B5B6A0A4A43F04403536221
:100AF0000A4B1B68094A43F400431360074B1B6809
:100B0000064A23F40043136000BFBD465DF8047B32
:100B1000704700BF0004004800100240005400402D
:100B200080B586B002AF02F05FF800F0C3FA01F0C2
:100B3000B3F801F077F800F099FB00F037FD00F012
:100B4000EFFD01F00FF801F03DF800F0B9FE00F004
:100B500093FC00F0D1FC00F061FF00F017FB00F007
:100B60001BFC00F05FFE01220121B54804F0CAFD24
:100B700001224FF480614FF0904004F0C3FDB14B6F
:100B80001A88B14B5A63AF4B5A88AF4B9A63AD4B3F
:100B90009A88AE4B5A63AB4BDA88AD4B5A6300214F
:100BA000AC4808F0E1FE0421AA4808F0DDFE00216F
:100BB000A94808F0D9FE0021A84808F0D5FE002178
:100BC000A74809F0C9F80421A54809F0C5F8012291
:100BD0004FF40061A34804F095FD01224FF48061B9
:100BE000A04804F08FFD01224FF480519D4804F08D
:100BF00089FD01224FF400519A4804F083FD05213C
:100C0000994803F039F90421984803F035F9022195
:100C1000974803F031F9974B01221A70642002F0D3
:100C200049F8FFF73FFFFFF73AFEFFF7B3FE924B9D
:100C3000FB6000220121824804F064FD0021302085
:100C4000FFF75EFD00210220FFF75AFD00210C2076
:100C5000FFF756FD00210120FFF752FD854B1B7861
:100C6000DBB2012BFAD1804802F0B0FD834B1A8928
:100C7000834B9A807D4802F03FFA64217B4802F062
:100C800087FB7F4B0022DA80784802F001FE0346A2
:100C90009AB27B4BDA80754802F044FBFFF74EFCBA
:100CA000FFF76CFC764B1B881A46754B5B88134428
:100CB000734A92881344724AD2881344002B00DA94
:100CC00003339B109AB26F4B1A806D4B1A886C4B92
:100CD0005B8813449AB26A4B9B8813449AB2684B60
:100CE000DB8813449AB2684B1A80684B1B78013337
:100CF000DAB2664B1A70624B1B881846FFF754FE37
:100D00000346DAB2624B1A705D4B5B881846FFF7F8
:100D10004BFE0346DAB25E4B5A70594B9B8818461D
:100D2000FFF742FE0346DAB2594B9A70544BDB8808
:100D30001846FFF739FE0346DAB2554BDA70554BC9
:100D40001B78002B49D1514B1B78142B45D1524BAA
:100D50001A683B46514918460BF08EFC00210120D1
:100D6000FFF7E2FD3B461846FFF7C8FD4C4B1B88DA
:100D700019464B4B1B884B4AA2FB03231B099BB212
:100D800038460A4648490BF077FC00210220FFF75D
:100D9000CBFD3B461846FFF7B1FD3A4B1B881A4680
:100DA0003B46424918460BF067FC00210320FFF741
:100DB000BBFD3B461846FFF7A1FD3D4B1B881A467D
:100DC0003B463C4918460BF057FC00210420FFF736
:100DD000ABFD3B461846FFF791FD2E4B1B78022BCF
:100DE00040F08680294B1B78142B40F08180002234
:100DF0003149324808F011FB002231492F4808F0F0
:100E0000EEFB304B1B781A462F4B1B7819462F4BA5
:100E10001B78384600930B462D490BF02DFC002122
:100E20000120FFF781FD3B461846FFF767FD224B87
:100E30001B781A46204B5B7819461F4B9B7849E07C
:100E40000014004800000020002C01400034014044
:100E5000004001405C020020400300208C03002081
:100E6000A80200200004004804010020B400002073
:100E700054010020870500206CCF00087805002071
:100E8000700500209E050020A0050020960500208A
:100E9000980500209C0500209005002074CF0008D4
:100EA00082050020CDCCCCCC88CF0008A0CF000894
:100EB00094050020B0CF0008A80500203C020020C7
:100EC000BC050020A3050020A2050020A4050020E9
:100ED000BCCF0008384600930B4668490BF0CCFBAA
:100EE00000210220FFF720FD3B461846FFF706FDD4
:100EF000634B1B78012B40F0A380624B1B78122BB5
:100F000057D1614B1B88614AA2FB03231B099BB28B
:100F10001A465D4B1B8838465D490BF0ADFB00213E
:100F20000120FFF701FD3B461846FFF7E7FC564B53
:100F30005B88564AA2FB03231B099BB21A46524BFD
:100F40005B88384652490BF097FB00210220FFF7DF
:100F5000EBFC3B461846FFF7D1FC4B4B9B884B4ABA
:100F6000A2FB03231B099BB21A46474B9B883846BA
:100F700047490BF081FB00210320FFF7D5FC3B46DE
:100F80001846FFF7BBFC404BDB88404AA2FB03231B
:100F90001B099BB21A463C4BDB8838463C490BF098
:100FA0006BFB00210420FFF7BFFC3B461846FFF710
:100FB000A5FC344B1B78B42B42D1364B1B881A4608
:100FC0003B46354918460BF057FB0D210120FFF732
:100FD000ABFC3B461846FFF791FC2E4B5B881A464C
:100FE0003B462D4918460BF047FB0D210220FFF729
:100FF0009BFC3B461846FFF781FC264B9B881A4614
:101000003B46254918460BF037FB0D210320FFF71F
:101010008BFC3B461846FFF771FC1E4BDB881A46DB
:101020003B461D4918460BF027FB0D210420FFF716
:101030007BFC3B461846FFF761FC124B00221A70FE
:10104000164B00221A70FFF7B9FAFFF7E9FC0E4BB6
:101050001A88134B5A630C4B5A88114B9A630A4BEC
:101060009A88104B5A63084BDA880F4B5A63052253
:101070000E490F4802F08EFAF0E500BFD8CF000805
:101080009C0500209605002000000020CDCCCCCC93
:10109000ECCF000870050020FCCF00088705002079
:1010A000002C014000340140004001407805002040
:1010B0000401002080B59EB000AF07F15003282244
:1010C000002118460BF0D0FA07F13C0300221A6009
:1010D0005A609A60DA601A613B463C220021184649
:1010E0000BF0C2FA0A233B6501233B6610237B66A3
:1010F0000123BB660223FB6600233B674FF46013AA
:101100007B6707F15003184606F046FC0346002BA8
:1011100001D001F011F80F23FB6302233B6400238D
:101120007B644FF48063BB640023FB6407F13C03E2
:101130000221184607F06EFC0346002B01D000F098
:10114000FBFF114B3B600023BB600023FB604FF4AF
:1011500080737B624FF40053BB620023FB614FF44A
:1011600000737B6000233B6300237B633B46184690
:1011700007F086FE0346002B01D000F0DDFF00BF24
:101180007837BD4680BD00BFA331010080B58AB06D
:1011900000AF07F11C0300221A605A609A603B1DE1
:1011A00000221A605A609A60DA601A615A612E4B06
:1011B0004FF0A0421A602C4B00225A602A4B0022AA
:1011C0009A60294B00221A61274B00225A76264B3F
:1011D000002283F82020244B0022DA62224B0122D5
:1011E0009A62214B0022DA601F4B0122DA611E4B0A
:1011F000002283F830201C4B04225A611A4B002233
:101200001A76194B00225A63174801F095FD0346E0
:10121000002B01D000F090FF0023FB6107F11C03BD
:101220001946114803F0AEF90346002B01D000F037
:1012300083FF04237B600123BB6000233B61022307
:10124000FB6000237B610023BB613B1D1946064800
:1012500002F0ACFE0346002B01D000F06DFF00BF92
:101260002837BD4680BD00BFB400002080B586B0E1
:1012700000AF3B4600221A605A609A60DA601A6139
:101280005A61434B434A1A60414B00225A60404B1B
:1012900000229A603E4B01221A613D4B01225A7690
:1012A0003B4B002283F82020394B0022DA62384B76
:1012B00001229A62364B0022DA60354B0522DA6150
:1012C000334B002283F83020314B04225A61304BDB
:1012D00000221A762E4B00225A632D4801F02CFD75
:1012E0000346002B01D000F027FF01233B600123C0
:1012F0007B600023FB600223BB6000233B61002373
:101300007B613B461946224802F050FE0346002B03
:1013100001D000F011FF02233B6002237B603B46BB
:1013200019461B4802F042FE0346002B01D000F094
:1013300003FF03233B6003237B603B4619461448AD
:1013400002F034FE0346002B01D000F0F5FE04232A
:101350003B6004237B603B4619460D4802F026FEA5
:101360000346002B01D000F0E7FE0C233B60052371
:101370007B603B461946064802F018FE0346002BE8
:1013800001D000F0D9FE00BF1837BD4680BD00BFB8
:10139000040100200001005080B58AB000AF07F1C1
:1013A0001C0300221A605A609A603B1D00221A60DA
:1013B0005A609A60DA601A615A612D4B2D4A1A60A0
:1013C0002B4B00225A602A4B00229A60284B0022A5
:1013D0001A61274B00225A76254B002283F82020E1
:1013E000234B0022DA62224B01229A62204B002218
:1013F000DA601F4B0122DA611D4B002283F8302096
:101400001B4B04225A611A4B00221A76184B0022F9
:101410005A63174801F090FC0346002B01D000F0FE
:101420008BFE0023FB6107F11C031946104803F0F3
:10143000A9F80346002B01D000F07EFE01237B605B
:101440000123BB6000233B610223FB6000237B611F
:101450000023BB613B1D1946054802F0A7FD03466A
:10146000002B01D000F068FE00BF2837BD4680BDCC
:10147000540100200004005080B500AF1B4B1C4AF3
:101480001A601A4B1B4A5A60184B24229A60174B59
:101490000122DA60154B00221A61144B00225A61B6
:1014A000124B00229A61114B0022DA610F4B00228D
:1014B0001A620E4804F070F90346002B01D000F0C8
:1014C0003BFE0021094806F0CFF90346002B01D06E
:1014D00000F032FE0021054806F011FA0346002B09
:1014E00001D000F029FE00BF80BD00BFE801002050
:1014F000005400400E09002080B586B000AF3B1DAF
:1015000000221A605A609A60DA601A6100233B6018
:10151000244B254A1A60234B00225A60214B7F221C
:101520009A60204B40F23712DA601E4B00221A619B
:101530001C4B00225A611B4B00229A61194807F08C
:101540004FFE0346002B01D000F0F6FD09233B714E
:1015500000237B710023BB7100233B6100237B616F
:101560003B1D012219460F4807F0BDFE0346002B24
:1015700001D000F0E1FD01233B7006237B700123C5
:10158000BB700023FB703B4601221946054807F05B
:10159000A2FF0346002B01D000F0CEFD00BF18379C
:1015A000BD4680BD3C0200200028004080B59AB0B6
:1015B00000AF07F1580300221A605A609A60DA609F
:1015C00007F14C0300221A605A609A6007F1300359
:1015D00000221A605A609A60DA601A615A619A6150
:1015E0003B1D2C22002118460BF03EF84A4B4B4A7B
:1015F0001A60494B00225A60474B00229A60464BC2
:101600004FF4FA62DA60444B00221A61424B002226
:101610005A61414B80229A613F4808F0EDF8034639
:10162000002B01D000F088FD4FF48053BB6507F11B
:1016300058031946384808F0A1FF0346002B01D093
:1016400000F07AFD344808F02EF90346002B01D053
:1016500000F072FD0023FB6400233B6500237B65E3
:1016600007F14C0319462C4809F014FF0346002BE0
:1016700001D000F061FD60233B634FF47A737B631C
:101680000023BB630023FB6304233B6400237B64D0
:101690000023BB6407F13003002219461E4808F0FE
:1016A00059FE0346002B01D000F046FD07F1300340
:1016B00004221946184808F04DFE0346002B01D0BD
:1016C00000F03AFD00237B600023BB600023FB6039
:1016D00032233B6100237B614FF40053BB61002345
:1016E000FB6100233B624FF000737B620023BB620F
:1016F0000023FB623B1D1946074809F04BFF0346D8
:10170000002B01D000F018FD034800F0A1FF00BF3E
:101710006837BD4680BD00BF5C020020002C014040
:1017200080B58CB000AF07F1200300221A605A6028
:101730009A60DA6007F1140300221A605A609A6016
:101740003B1D00221A605A609A60DA60334B4FF0FA
:1017500080421A60314B01225A60304B00229A605D
:101760002E4B2F4ADA602D4B00221A612B4B0022A0
:101770009A612A4808F040F80346002B01D000F097
:10178000DBFC4FF480533B6207F1200319462348EA
:1017900008F0F4FE0346002B01D000F0CDFC1F48FA
:1017A00008F078FA0346002B01D000F0C5FC0023B6
:1017B0007B610023FB6107F114031946174809F008
:1017C00069FE0346002B01D000F0B6FC00237B60CD
:1017D0000123BB600023FB600C233B613B1D002207
:1017E00019460E4808F019FD0346002B01D000F001
:1017F000A3FC02237B600223BB6000233B613B1DF3
:1018000004221946054808F008FD0346002B01D0C4
:1018100000F092FC00BF3037BD4680BDA80200201A
:101820000090D00380B588B000AF07F1100300220C
:101830001A605A609A60DA603B1D00221A605A6092
:101840009A601D4B1D4A1A601B4B00225A601A4BAE
:1018500000229A60184B4FF6FF72DA60164B002296
:101860001A61154B80229A61134807F0C5FF0346A1
:10187000002B01D000F060FC4FF480533B6107F176
:10188000100319460C4808F079FE0346002B01D0DE
:1018900000F052FC00237B600023FB603B1D1946D7
:1018A000054809F0F7FD0346002B01D000F044FC89
:1018B00000BF2037BD4680BDF40200200004004078
:1018C00080B59AB000AF07F1580300221A605A6041
:1018D0009A60DA6007F14C0300221A605A609A603D
:1018E00007F1300300221A605A609A60DA601A61C8
:1018F0005A619A613B1D2C22002118460AF0B4FE61
:10190000444B454A1A60434B00225A60414B002227
:101910009A60404B4FF4FA62DA603E4B00221A6143
:101920003C4B00225A613B4B80229A61394807F0B8
:1019300063FF0346002B01D000F0FEFB4FF4805301
:10194000BB6507F158031946324808F017FE0346F5
:10195000002B01D000F0F0FB2E4807F0A4FF034657
:10196000002B01D000F0E8FB0023FB6400233B6563
:1019700000237B6507F14C031946264809F08AFDD0
:101980000346002B01D000F0D7FB60233B634FF4EC
:101990007A737B630023BB630023FB6300233B64F8
:1019A00000237B640023BB6407F130030022194647
:1019B000184808F0CFFC0346002B01D000F0BCFB18
:1019C00000237B600023BB600023FB6032233B616C
:1019D00000237B614FF40053BB610023FB610023B4
:1019E0003B624FF000737B620023BB620023FB620B
:1019F0003B1D1946074809F0CDFD0346002B01D0D9
:101A000000F09AFB034800F023FE00BF6837BD4694
:101A100080BD00BF400300200034014080B59AB073
:101A200000AF07F1580300221A605A609A60DA602A
:101A300007F14C0300221A605A609A6007F13003E4
:101A400000221A605A609A60DA601A615A619A61DB
:101A50003B1D2C22002118460AF006FE3F4B404A4F
:101A60001A603E4B00225A603C4B00229A603B4B6E
:101A70004FF4FA62DA60394B00221A61374B0022C8
:101A80005A61364B80229A61344807F0B5FE03460E
:101A9000002B01D000F050FB4FF48053BB6507F1E1
:101AA000580319462D4808F069FD0346002B01D064
:101AB00000F042FB294807F0F6FE0346002B01D058
:101AC00000F03AFB0023FB6400237B6507F14C0325
:101AD0001946224809F0DEFC0346002B01D000F035
:101AE0002BFB60233B634FF47A737B630023BB6360
:101AF0000023FB6300233B6400237B640023BB645F
:101B000007F1300300221946144808F023FC03466D
:101B1000002B01D000F010FB00237B600023BB6092
:101B20000023FB6000233B6100237B614FF40053E3
:101B3000BB610023FB610023FB623B1D1946074884
:101B400009F028FD0346002B01D000F0F5FA034808
:101B500000F07EFD00BF6837BD4680BD8C030020CD
:101B60000040014080B500AF144B154A1A60134B7A
:101B70004FF416525A60114B00229A600F4B00220C
:101B8000DA600E4B00221A610C4B0C225A610B4B8F
:101B900000229A61094B0022DA61084B00221A6286
:101BA000064B00225A62054809F0B5FD0346002B9A
:101BB00001D000F0C1FA00BF80BD00BFD8030020F3
:101BC0000038014080B500AF144B154A1A60134B22
:101BD0004FF416425A60114B00229A600F4B0022BC
:101BE000DA600E4B00221A610C4B0C225A610B4B2F
:101BF00000229A61094B0022DA61084B00221A6226
:101C0000064B00225A62054809F085FD0346002B69
:101C100001D000F091FA00BF80BD00BF6004002039
:101C20000044004080B582B000AF1A4B5B69194A8E
:101C300043F001035361174B5B6903F001037B60C1
:101C40007B68144B5B69134A43F002035361114BE9
:101C50005B6903F002033B603B6800220021102017
:101C600003F067F8102003F080F800220021112013
:101C700003F05FF8112003F078F8002200213820EB
:101C800003F057F8382003F070F800BF0837BD465E
:101C900080BD00BF0010024080B58AB000AF07F1E0
:101CA000140300221A605A609A60DA601A61604B6D
:101CB0005B695F4A43F4002353615D4B5B6903F446
:101CC00000233B613B695A4B5B69594A43F48003EB
:101CD0005361574B5B6903F48003FB60FB68544B13
:101CE0005B69534A43F400335361514B5B6903F41E
:101CF0000033BB60BB684E4B5B694D4A43F48023A5
:101D000053614B4B5B6903F480237B607B6800224B
:101D10004FF40041474803F0F5FC002203214648F8
:101D200003F0F0FC00224FF47051444803F0EAFC49
:101D300000224FF480614FF0904003F0E3FC4FF439
:101D4000C0437B614FF44413BB610023FB6107F187
:101D500014031946374803F067FA4FF400437B61D8
:101D60000123BB610023FB6100233B6207F11403E5
:101D70001946304803F058FA03237B610123BB6105
:101D80000023FB6100233B6207F1140319462A4834
:101D900003F04AFA02237B614FF44413BB61002332
:101DA000FB6107F1140319464FF0904003F03CFA31
:101DB0004FF470537B610123BB610023FB6100235F
:101DC0003B6207F1140319461C4803F02DFA4FF447
:101DD00080637B610123BB610023FB6100233B62C5
:101DE00007F1140319464FF0904003F01DFA202329
:101DF0007B610023BB610023FB6107F114031946DB
:101E00000E4803F011FA00220021072002F091FF92
:101E1000072002F0AAFF00220321282002F089FFF8
:101E2000282002F0A2FF00BF2837BD4680BD00BFBA
:101E30000010024000080048001400480004004858
:101E400080B582B000AF78607B681B68B3F1804FCB
:101E500074D17B681B7F012B44D13A4B00225A621C
:101E60000021394807F080FE0421374807F07CFE46
:101E70000021364807F078FE0021354807F074FE4F
:101E80004FF0804300225A620021324808F040FCA3
:101E90000346314A136004212E4808F039FC0346FA
:101EA0009AB22E4B1A802C4B1B682D4AB2FBF3F3CF
:101EB0002C4A1360284B1B682B4AB2FBF3F39AB2EF
:101EC0002A4B1A800021204809F0D2F904211E482B
:101ED00009F0CEF900211D4809F0CAF900211C487B
:101EE00009F0C6F97B681B7F022B27D1154B002216
:101EF0005A624FF400411E4803F01CFC00211248B6
:101F000009F06AFA0421104809F066FA00210F4826
:101F100009F062FA00210E4809F05EFA00210A4831
:101F200007F022FD0421084807F01EFD00210748A4
:101F300007F01AFD0021064807F016FD00BF08371C
:101F4000BD4680BD000400405C020020400300202C
:101F50008C030020A8020020880500208C050020AA
:101F600000389C1C900500200048E80194050020E2
:101F70000008004880B582B000AF0346FB80FB88B4
:101F8000B3F5005F49D14FF400414D4803F0D2FB57
:101F90004FF400514A4803F09DFB0346002B3CD10F
:101FA000484B1B88474B1B889BB2132B1CD8464BB6
:101FB0001B78002B18D100224449454807F02DFA20
:101FC00000224449424807F00AFB404B1A78424B32
:101FD0001A703E4B5A78414B1A703C4B9A78404BE2
:101FE0001A70394B01221A70364B1B889BB20A3388
:101FF0009AB2344B1A80334B1B889BB240F2CE729C
:10200000934203D92F4B4FF4FA621A80354B0422C6
:102010001A70354B4FF400525A61FB88B3F5804F6C
:1020200049D14FF48041264803F054FB0346012B6D
:1020300004D14FF40041224803F07CFB4FF480416F
:102040001F4803F047FB0346002B34D11D4B1B8870
:102050009BB2002B0FD11C4B1B78012B0BD11A4BC1
:1020600000221A701C4B00221A701C4B00221A709E
:102070001B4B00221A70134B1B889BB20A3B9AB26F
:10208000104B1A800F4B1B889BB240F633029342D1
:1020900002D90C4B00221A800A4B1B889BB2012BE1
:1020A00002D8084B00221A800E4B04221A700E4BE5
:1020B0004FF480425A6100BF0837BD4680BD00BF63
:1020C0000008004884050020A5050020A805002080
:1020D0003C020020BC050020A3050020A205002032
:1020E000A4050020860500200004014080B582B0D0
:1020F00000AF786000224FF480614FF0904003F011
:1021000001FB00BF0837BD4680BD000080B483B02E
:1021100000AF78607B681B68054A934202D1054B8B
:1021200001221A7000BF0C37BD465DF8047B704772
:10213000000100508705002080B400AF72B600BFD8
:10214000FEE7000080B582B000AF124B9B69114AD8
:1021500043F0010393610F4B9B6903F001037B6024
:102160007B680C4BDB690B4A43F08053D361094B0E
:10217000DB6903F080533B603B68002200210520AF
:1021800002F0D7FD052002F0F0FD00BF0837BD4684
:1021900080BD00BF0010024080B58EB000AF7860F7
:1021A00007F1240300221A605A609A60DA601A610B
:1021B0007B681B68B3F1A04F36D1704B1B680133AD
:1021C0006E4A13606D4B1B68012B0BD16C4B5B6926
:1021D0006B4A43F080535361694B5B6903F0805352
:1021E0003B623B6A664B5B69654A43F4003353616B
:1021F000634B5B6903F40033FB61FB6908237B627B
:102200000323BB620023FB6207F1240319464FF04E
:10221000904003F009F800220021122002F089FD0D
:10222000122002F0A2FDA5E07B681B68554A93428C
:1022300077D1524B1B680133504A13604F4B1B68D8
:10224000012B0BD14E4B5B694D4A43F080535361D8
:102250004B4B5B6903F08053BB61BB69484B5B69C7
:10226000474A43F400335361454B5B6903F4003341
:102270007B617B69424B5B69414A43F48023536134
:102280003F4B5B6903F480233B613B69F0237B6236
:102290000323BB620023FB6207F1240319464FF0BE
:1022A000904002F0C1FF04237B620323BB62002342
:1022B000FB6207F124031946334802F0B5FF334BA4
:1022C000334A1A60314B00225A60304B00229A6028
:1022D0002E4B8022DA602D4B4FF480721A612B4B0B
:1022E0004FF480625A61294B00229A61274B4FF4C8
:1022F0008052DA61254802F060FD0346002B01D0D0
:10230000FFF71AFF7B68214A9A63204A7B68536271
:1023100000220021122002F00CFD122002F025FD07
:1023200028E07B681B681B4A934223D1144B5B69EE
:10233000134A43F000535361114B5B6903F00053A0
:10234000FB60FB680E4B5B690D4A43F480235361CD
:102350000B4B5B6903F48023BB60BB6803237B6288
:102360000323BB620023FB6207F1240319460648DE
:1023700002F05AFF00BF3837BD4680BD1806002066
:10238000001002400001005000040048A401002099
:10239000080402400004005080B58AB000AF7860A5
:1023A00007F1140300221A605A609A60DA601A6119
:1023B0007B681B681F4A934238D11F4B5B691E4ADA
:1023C00043F4802353611C4B5B6903F480233B611E
:1023D0003B694FF440737B611223BB610023FB61B7
:1023E00003233B6204237B6207F11403194613485D
:1023F00002F01AFF104BDB690F4A43F40013D3615C
:102400000D4BDB6903F40013FB60FB680022002125
:102410001F2002F08EFC1F2002F0A7FC00220021EA
:10242000202002F086FC202002F09FFC00BF28370D
:10243000BD4680BD0054004000100240000400482A
:1024400080B582B000AF78607B681B680E4A93420B
:1024500015D10E4BDB690D4A23F40013D3614FF401
:1024600080710B4803F05AF84FF40071084803F0EC
:1024700055F81F2002F087FC202002F084FC00BFEA
:102480000837BD4680BD00BF005400400010024028
:102490000004004880B485B000AF78607B681B689A
:1024A0000D4A934211D14FF40043FB60FB6893FA4D
:1024B000A3F3BB60BB68B3FA83F3DBB21A46074BE6
:1024C00013449B001A460123136000BF1437BD4616
:1024D0005DF8047B704700BF002800400081901029
:1024E00080B58EB000AF786007F1240300221A6037
:1024F0005A609A60DA601A617B681B684F4A93429F
:1025000014D14F4B9B694E4A43F4006393614C4B8B
:102510009B6903F400633B623B6A002200211820A0
:1025200002F007FC182002F020FC83E07B681B68A7
:10253000B3F1804F31D1424BDB69414A43F0010393
:10254000D3613F4BDB6903F00103FB61FB693C4B4B
:102550005B693B4A43F400335361394B5B6903F4D5
:102560000033BB61BB6901237B620223BB62002392
:10257000FB6200233B6301237B6307F124031946BD
:102580004FF0904002F050FE002200211C2002F08B
:10259000D0FB1C2002F0E9FB4CE07B681B68294A59
:1025A000934214D1264BDB69254A43F00203D361E1
:1025B000234BDB6903F002037B617B69002200216E
:1025C0001D2002F0B6FB1D2002F0CFFB32E07B683D
:1025D0001B681D4A934214D1194B9B69184A43F456
:1025E00000539361164B9B6903F400533B613B69B5
:1025F000002200212B2002F09CFB2B2002F0B5FBD7
:1026000018E07B681B68114A934213D10C4B9B69FD
:102610000B4A43F480339361094B9B6903F4803385
:10262000FB60FB6800220021182002F082FB1820CA
:1026300002F09BFB00BF3837BD4680BD002C014037
:1026400000100240000400400034014000400140FE
:1026500080B58CB000AF786007F11C0300221A60CF
:102660005A609A60DA601A617B681B684C4A934230
:102670001ED14C4B5B694B4A43F400335361494BC9
:102680005B6903F40033BB61BB694FF4D853FB6152
:1026900002233B6200237B620023BB620623FB62B2
:1026A00007F11C0319464FF0904002F0BDFD72E0A7
:1026B0007B681B683C4A93423AD13A4B5B69394A82
:1026C00043F400335361374B5B6903F400337B61A0
:1026D0007B69344B5B69334A43F480235361314B4C
:1026E0005B6903F480233B613B694FF40043FB616A
:1026F00002233B6200237B620023BB620223FB6256
:1027000007F11C0319464FF0904002F08DFD08239D
:10271000FB6102233B6200237B620023BB62042334
:10272000FB6207F11C031946204802F07DFD32E0F0
:102730007B681B681E4A93422DD11A4B5B69194A6C
:1027400043F480235361174B5B6903F48023FB60E0
:10275000FB684FF48043FB6102233B6200237B62F2
:102760000023BB620123FB6207F11C0319460F48DB
:1027700002F05AFD4FF40043FB6102233B62002349
:102780007B620023BB620223FB6207F11C03194634
:10279000064802F049FD00BF3037BD4680BD00BF8E
:1027A000002C0140001002400034014000040048A9
:1027B0000040014080B58CB000AF786007F11C0389
:1027C00000221A605A609A60DA601A617B681B689E
:1027D000674A934228D1674B9B69664A43F480431A
:1027E0009361644B9B6903F48043BB61BB69614B9C
:1027F0005B69604A43F4802353615E4B5B6903F479
:1028000080237B617B69C023FB6102233B62002341
:102810007B620323BB620723FB6207F11C0319469B
:10282000554802F001FD9FE07B681B68534A9342C4
:1028300040F09A804F4BDB694E4A43F40033D3613A
:102840004C4BDB6903F400333B613B69494B5B69EB
:10285000484A43F400335361464B5B6903F4003349
:10286000FB60FB68434B5B69424A43F4802353613E
:10287000404B5B6903F48023BB60BB680423FB61AE
:1028800002233B6200237B620323BB620723FB62BC
:1028900007F11C0319464FF0904002F0C5FC1023CD
:1028A000FB6102233B6200237B620323BB6207239D
:1028B000FB6207F11C0319462F4802F0B5FC304BB0
:1028C000304A1A602E4B10225A602D4B00229A601B
:1028D0002B4B8022DA602A4B00221A61284B0022FF
:1028E0005A61274B00229A61254B4FF48052DA61DE
:1028F000234802F062FA0346002B01D0FFF71CFCCC
:102900007B681F4A1A671E4A7B6853621E4B1F4A28
:102910001A601D4B00225A601B4B00229A601A4B12
:102920008022DA60184B00221A61174B00225A618C
:10293000154B00229A61144B0022DA61124802F012
:102940003CFA0346002B01D0FFF7F6FB7B680E4AEA
:102950005A670D4A7B68536200220021262002F04C
:10296000E8F9262002F001FA00BF3037BD4680BDED
:1029700000380140001002400004004800440040BC
:10298000E8040020800002402C0500206C0002407A
:1029900080B400AFFEE780B400AFFEE780B400AFC4
:1029A000FEE780B400AFFEE780B400AFFEE780B47E
:1029B00000AF00BFBD465DF8047B704780B400AF38
:1029C00000BFBD465DF8047B704780B400AF00BF18
:1029D000BD465DF8047B704780B500AF00F04AF952
:1029E00000BF80BD80B400AF00BFBD465DF8047B72
:1029F000704780B500AF022002F0B6FE00BF80BD78
:102A000080B500AF024802F0F5FA00BF80BD00BFFC
:102A10002C05002080B500AF024802F0EBFA00BFA1
:102A200080BD00BFE804002080B500AF034800F07F
:102A30003DFF034800F03AFF00BF80BDB400002016
:102A40000401002080B500AF034807F0C7FA03482F
:102A500007F0C4FA00BF80BD5C0200208C03002098
:102A600080B500AF024807F0B9FA00BF80BD00BFD3
:102A7000A802002080B500AF024807F0AFFA00BFFF
:102A800080BD00BFF402002080B500AF024803F013
:102A9000C3FA00BF80BD00BFE801002080B500AFD1
:102AA000024803F0D3FA00BF80BD00BFE801002058
:102AB00080B500AF024808F07DFE00BF80BD00BFBA
:102AC0006004002080B500AF4FF4005002F04CFECF
:102AD0004FF4804002F048FE00BF80BD80B500AFDB
:102AE000024807F07BFA00BF80BD00BF4003002012
:102AF00080B500AF024802F07DFA00BF80BD00BF84
:102B0000A401002080B586B000AF7860144A154B50
:102B1000D31A7B617B693B61134B1B68002B02D18D
:102B2000114B124A1A60104B1A687B6813443A69B9
:102B30009A4207D209F06EFD03460C221A604FF04C
:102B4000FF3309E0084B1B68FB60074B1A687B6882
:102B50001344054A1360FB6818461837BD4680BD0C
:102B600000A00020000400001C0600203806002001
:102B700080B400AF064BD3F88830054A43F47003A5
:102B8000C2F8883000BFBD465DF8047B704700BFC7
:102B900000ED00E0DFF834D0FFF7EAFF0C480D4904
:102BA0000D4A002302E0D458C4500433C4188C42A8
:102BB000F9D30A4A0A4C002301E013600432A2420E
:102BC000FBD309F02DFDFDF7ABFFFEE700A00020D1
:102BD000000000207C0000207CD000087C00002049
:102BE00034060020FEE7000080B500AF084B1B68EC
:102BF000074A43F010031360032002F08FF80F2000
:102C000000F008F8FFF79EFA0023184680BD00BFC9
:102C10000020024080B582B000AF7860124B1A6885
:102C2000124B1B7819464FF47A73B3FBF1F3B2FBE6
:102C3000F3F3184602F0B5F80346002B01D0012348
:102C40000EE07B680F2B0AD8002279684FF0FF3026
:102C500002F06FF8064A7B681360002300E001234E
:102C600018460837BD4680BD0C0000201400002027
:102C70001000002080B400AF064B1B781A46064BAC
:102C80001B681344044A136000BFBD465DF8047B13
:102C9000704700BF140000202006002080B400AF61
:102CA000034B1B681846BD465DF8047B704700BFA8
:102CB0002006002080B584B000AF7860FFF7EEFFFB
:102CC000B8607B68FB60FB68B3F1FF3F05D00A4B3F
:102CD0001B781A46FB681344FB6000BFFFF7DEFF5A
:102CE0000246BB68D31AFA689A42F7D800BF00BF01
:102CF0001037BD4680BD00BF1400002080B483B0F3
:102D000000AF786000BF0C37BD465DF8047B7047AC
:102D100080B483B000AF786000BF0C37BD465DF86B
:102D2000047B704780B483B000AF786000BF0C377D
:102D3000BD465DF8047B704780B59AB000AF7860FF
:102D4000002387F8673000233B660023BB607B6865
:102D5000002B01D10123C9E17B681B69002B7B6833
:102D60001B6C03F01003002B76D17B681B6C002BCF
:102D700052D17B6800225A647B680022DA647B6847
:102D800000229A647B68002283F83C207868FFF771
:102D900003FA7B681B689B6803F08053002B3BD1D0
:102DA000786801F0ABFD034687F867307B681B6CE1
:102DB00003F01003002B2FD197F86730002B2BD195
:102DC0007B681B6C23F4885323F0020343F0020258
:102DD0007B681A647B681B689A687B681B6822F0B2
:102DE00040529A607B681B689A687B681B6842F057
:102DF00080529A60864B1B68864AA2FB03239A0C7A
:102E000013469B0013445B00BB6002E0BB68013BC0
:102E1000BB60BB68002BF9D17B681B689B6803F023
:102E20008053002B07D07B681B689B6803F000531E
:102E3000B3F1005F10D17B681B6C23F0120343F0E9
:102E400010027B681A647B685B6C43F001027B684C
:102E50005A64012387F867307B681B6C03F010030A
:102E6000002B40F0368197F86730002B40F031811D
:102E70007B681B689B6803F00403002B40F02981EA
:102E80007B681B6C23F4817343F002027B681A6435
:102E90007B681B68B3F1A04F04D07B681B685E4A57
:102EA000934201D15D4B00E05D4BFB657B681B6885
:102EB000B3F1A04F02D1584BFB601AE07B681B684E
:102EC000554A934203D14FF0A043FB6011E07B6869
:102ED0001B68544A934202D1534BFB6009E07B6864
:102EE0001B68514A934202D14E4BFB6001E0002324
:102EF000FB607B681B689B6803F00303012B08D110
:102F00007B681B681B6803F00103012B01D10123BF
:102F100000E00023002B1CD1FB68002B10D0FB68C5
:102F20009B6803F00303012B07D1FB681B6803F0C8
:102F30000103012B01D1012300E00023002B08D164
:102F4000FB6D9B6823F440327B685B681A43FB6D22
:102F50009A607B685B7E5B037A68526B012A02D0C1
:102F60004FF4805200E000221A437B68DB681A436A
:102F70007B689B6813433A6E13433B667B6893F808
:102F80002030012B1BD17B685B7E002B09D17B6835
:102F90005B6A013B5A043B6E134343F480333B6648
:102FA0000DE07B681B6C23F0220343F020027B685A
:102FB0001A647B685B6C43F001027B685A647B682F
:102FC0009B6A012B3AD07B681B68164A934204D057
:102FD0007B681B68144A934228D17B689B6AB3F5CF
:102FE000307F12D07B689B6AB3F5807F0AD07B6804
:102FF0009B6AB3F5E07F02D07B689B6A18E04FF4D0
:10300000807315E04FF4307312E04FF4E0730FE07B
:103010000C00002083DE1B43000100500003005021
:103020000007005000040050000500507B689B6AB8
:103030007A68D26A13433A6E13433B667B681B6817
:103040009B6803F00C03002B14D17B681B68DB68C2
:103050007A68126823F4804323F00203D3607B680C
:103060001B7E9A037B6893F830305B0013433A6E03
:1030700013433B667B681B68DA681E4B13407A6813
:103080001268396E0B43D3607B681B69012B0CD12E
:103090007B681B681B6B23F00F017B68DB695A1E82
:1030A0007B681B680A431A6307E07B681B681A6B1E
:1030B0007B681B6822F00F021A637B6800225A6447
:1030C0007B681B6C23F0030343F001027B681A64E6
:1030D0000AE07B681B6C23F0120343F010027B684C
:1030E0001A64012387F8673097F867301846683705
:1030F000BD4680BD07C0F0FF80B584B000AF7860EA
:103100000023FB737B681B689B6803F00403002BA0
:1031100040F0F9807B6893F83C30012B01D1022309
:10312000F4E07B68012283F83C20786801F082FBA0
:103130000346FB73FB7B002B40F0E0807B681B6C3D
:1031400023F4706323F0010343F480727B681A64F4
:103150007B681B68B3F1A04F04D07B681B686D4A85
:10316000934206D16C4B9B6803F01F03002B10D0D9
:1031700005E06A4B9B6803F01F03002B09D07B68B6
:103180001B68B3F1A04F04D07B681B68644A93426C
:1031900015D17B681B6C23F480127B681A647B68F2
:1031A0001B68DB6803F00073002B36D07B681B6C58
:1031B00023F4405343F480527B681A642DE07B680B
:1031C0001B6C43F480127B681A647B681B68B3F144
:1031D000A04F04D07B681B684E4A93420AD14FF03F
:1031E000A043DB6803F00073002B14BF012300230E
:1031F000DBB208E04A4BDB6803F00073002B14BF1E
:1032000001230023DBB2002B07D07B681B6C23F467
:10321000405343F480527B681A647B681B6C03F450
:103220008053B3F5805F06D17B685B6C23F00602A8
:103230007B685A6402E07B6800225A647B68002243
:1032400083F83C207B681B681C221A607B681B6823
:10325000B3F1A04F04D07B681B682E4A934206D17D
:103260002D4B9B6803F01F03002B3ED005E02B4B3A
:103270009B6803F01F03002B37D07B681B68B3F1FA
:10328000A04F04D07B681B68224A934206D1224B90
:103290009B6803F01F03052B27D005E01F4B9B689D
:1032A00003F01F03052B20D07B681B68B3F1A04FF0
:1032B00004D07B681B68174A934206D1164B9B6863
:1032C00003F01F03092B10D005E0144B9B6803F09B
:1032D0001F03092B09D07B681B68B3F1A04F04D0F2
:1032E0007B681B680E4A93420FD17B681B689A6803
:1032F0007B681B6842F004029A6006E07B6800224B
:1033000083F83C2001E00223FB73FB7B1846103757
:10331000BD4680BD00010050000300500007005072
:103320000004005080B584B000AF78600023FB73C8
:103330007B6893F83C30012B01D1022323E07B68AA
:10334000012283F83C206C21786801F03DFB0346A4
:10335000FB73FB7B002B11D1786801F0CFFA034699
:10336000FB73FB7B002B09D17B681B6C23F4885318
:1033700023F0010343F001027B681A647B6800229A
:1033800083F83C20FB7B18461037BD4680BD00000B
:1033900080B586B000AF7860396000233B617B6800
:1033A0005B69082B02D108237B613AE07B681B68CC
:1033B000B3F1A04F04D07B681B68724A934201D1DD
:1033C000714B00E0714BFB60FB689B6803F01F03CF
:1033D000002B12D17B681B68DB6803F00103012B13
:1033E0001DD17B681B6C43F020027B681A647B68EC
:1033F000002283F83C200123BFE0FB689B6803F4B4
:103400004043002B0BD07B681B6C43F020027B6891
:103410001A647B68002283F83C200123ADE00C2372
:103420007B617B681B68B3F1A04F04D07B681B688D
:10343000544A934206D1544B9B6803F01F03002B60
:1034400010D005E0514B9B6803F01F03002B09D0FF
:103450007B681B68B3F1A04F04D07B681B684C4AA3
:10346000934204D17B681B68DB683B610FE07B689B
:103470001B68B3F1A04F04D07B681B68414A93429C
:1034800002D14FF0A04300E0414BDB683B61FFF706
:1034900005FCB86021E03B68B3F1FF3F1DD03B68FD
:1034A000002B07D0FFF7FAFB0246BB68D31A3A6835
:1034B0009A4212D27B681B681A687B691340002B02
:1034C0000BD17B681B6C43F004027B681A647B6839
:1034D000002283F83C2003234FE07B681B681A68B6
:1034E0007B691340002BD6D07B681B6C43F40072C1
:1034F0007B681A647B681B68DB6803F44063002BFD
:1035000031D13B6903F40053002B2CD17B681B683D
:103510001B6803F00803082B25D17B681B689B6898
:1035200003F00403002B12D17B681B6C23F4807220
:103530007B681A647B681B6C03F48053002B12D1E8
:103540007B681B6C43F001027B681A640BE07B68AC
:103550001B6C43F020027B681A647B685B6C43F051
:1035600001027B685A643B6903F48043002B03D15A
:103570007B681B687A691A60002318461837BD46B5
:1035800080BD00BF00010050000300500007005044
:103590000004005080B586B000AFF860B9607A6072
:1035A0000023FB75FB681B689B6803F00403002B7A
:1035B00040F0F780FB6893F83C30012B01D10223E7
:1035C000F2E0FB68012283F83C20FB681B68B3F142
:1035D000A04F04D0FB681B68754A934209D1754B14
:1035E0009B6803F01F03002B0CBF01230023DBB2F9
:1035F00008E0714B9B6803F01F03002B0CBF0123F5
:103600000023DBB2002B00F0C580F86801F012F94E
:103610000346FB75FB7D002B40F0B780FB681B6CFD
:1036200023F4706323F0010343F48072FB681A648F
:10363000FB681B68B3F1A04F04D0FB681B685C4AB1
:10364000934206D15B4B9B6803F01F03002B10D005
:1036500005E0594B9B6803F01F03002B09D0FB6862
:103660001B68B3F1A04F04D0FB681B68534A934218
:1036700015D1FB681B6C23F48012FB681A64FB688D
:103680001B68DB6803F00073002B36D0FB681B6CF3
:1036900023F4405343F48052FB681A642DE0FB6826
:1036A0001B6C43F48012FB681A64FB681B68B3F15F
:1036B000A04F04D0FB681B683D4A93420AD14FF0EB
:1036C000A043DB6803F00073002B14BF0123002329
:1036D000DBB208E0394BDB6803F00073002B14BF4A
:1036E00001230023DBB2002B07D0FB681B6C23F403
:1036F000405343F48052FB681A64FB681B6C03F46C
:103700008053B3F5805F06D1FB685B6C23F0060243
:10371000FB685A6402E0FB6800225A64FB680022DE
:1037200083F83C20FB689B6B254A9A62FB689B6B85
:10373000244ADA62FB689B6B234A1A63FB681B68A6
:103740001C221A60FB681B685A68FB681B6842F001
:1037500010025A60FB681B68DA68FB681B6842F05D
:103760000102DA60FB68986BFB681B6840331946FE
:10377000BA687B6801F068FBFB681B689A68FB68A5
:103780001B6842F004029A600DE0FB68002283F897
:103790003C2008E00123FB75FB68002283F83C20F5
:1037A00001E00223FB75FB7D18461837BD4680BD3E
:1037B00000010050000300500007005000040050BA
:1037C00069470008E3470008FF47000880B584B058
:1037D00000AF78600023FB737B6893F83C30012BCB
:1037E00001D1022350E07B68012283F83C206C2148
:1037F000786801F0E9F80346FB73FB7B002B3ED1B0
:103800007B681B68DA687B681B6822F00102DA605B
:103810007B689B6B93F82130022B0FD17B689B6BED
:10382000184601F070FB0346FB73FB7B002B05D0B1
:103830007B681B6C43F040027B681A647B681B68E2
:103840005A687B681B6822F010025A60FB7B002BD1
:1038500005D1786801F052F80346FB7302E07868FE
:1038600001F04CF8FB7B002B09D17B681B6C23F427
:10387000885323F0010343F001027B681A647B68DC
:10388000002283F83C20FB7B18461037BD4680BDE4
:1038900080B483B000AF78607B681B681B6C1846EF
:1038A0000C37BD465DF8047B7047000080B588B0DA
:1038B00000AF78600023FB610023BB6100237B61C4
:1038C0007B681B681B683B617B681B685B68FB60EF
:1038D0003B6903F00403002B04D0FB6803F00403EE
:1038E000002B0BD13B6903F00803002B00F0BC80D8
:1038F000FB6803F00803002B00F0B6807B681B6CAC
:1039000003F01003002B05D17B681B6C43F400729D
:103910007B681A647B681B68B3F1A04F04D07B6896
:103920001B68904A934206D18F4B9B6803F01F039C
:10393000002B3ED005E08D4B9B6803F01F03002B4E
:1039400037D07B681B68B3F1A04F04D07B681B683D
:10395000844A934206D1844B9B6803F01F03052BD6
:1039600027D005E0814B9B6803F01F03052B20D077
:103970007B681B68B3F1A04F04D07B681B68794A51
:10398000934206D1784B9B6803F01F03092B10D09C
:1039900005E0764B9B6803F01F03092B09D07B6879
:1039A0001B68B3F1A04F04D07B681B68704A934238
:1039B00004D17B681B68DB68BB610FE07B681B6818
:1039C000B3F1A04F04D07B681B68664A934202D1D2
:1039D0004FF0A04300E0664BDB68BB617B681B686F
:1039E000DB6803F44063002B37D1BB6903F4005359
:1039F000002B32D13B6903F00803002B2DD07B68EC
:103A00001B689B6803F00403002B1AD17B681B68BA
:103A10005A687B681B6822F00C025A607B681B6C3A
:103A200023F480727B681A647B681B6C03F48053F8
:103A3000002B12D17B681B6C43F001027B681A6477
:103A40000BE07B681B6C43F010027B681A647B6898
:103A50005B6C43F001027B685A647868FEF756FBA2
:103A60007B681B680C221A603B6903F02003002B63
:103A700004D0FB6803F02003002B0BD13B6903F05B
:103A80004003002B00F03881FB6803F04003002B5B
:103A900000F032817B681B6C43F400527B681A642F
:103AA0007B681B68B3F1A04F04D07B681B682D4A6C
:103AB000934206D12C4B9B6803F01F03002B3ED092
:103AC00005E02A4B9B6803F01F03002B37D07B686F
:103AD0001B68B3F1A04F04D07B681B68214A934256
:103AE00006D1214B9B6803F01F03052B27D005E06F
:103AF0001E4B9B6803F01F03052B20D07B681B68BF
:103B0000B3F1A04F04D07B681B68164A934206D1DC
:103B1000154B9B6803F01F03092B10D005E0134BD6
:103B20009B6803F01F03092B09D07B681B68B3F166
:103B3000A04F04D07B681B680D4A934204D17B6878
:103B40001B68DB68BB6118E07B681B68B3F1A04FA2
:103B500004D07B681B68034A93420BD14FF0A0430B
:103B600009E000BF000100500003005000070050B2
:103B700000040050924BDB68BB617B681B68DB6C08
:103B800003F0C003002B40F0B080BB6903F000736A
:103B9000002B0DD07B681B68DB6803F44063002BAF
:103BA00040F0A380BB6903F40053002B40F09D80DC
:103BB0003B6903F04003002B00F097807B681B6893
:103BC000B3F1A04F04D07B681B687E4A934206D1B4
:103BD0007D4B9B6803F01F03002B3ED005E07B4B21
:103BE0009B6803F01F03002B37D07B681B68B3F181
:103BF000A04F04D07B681B68724A934206D1724B77
:103C00009B6803F01F03062B27D005E06F4B9B68D2
:103C100003F01F03062B20D07B681B68B3F1A04F75
:103C200004D07B681B68674A934206D1664B9B6849
:103C300003F01F03072B10D005E0644B9B6803F0D3
:103C40001F03072B09D07B681B68B3F1A04F04D07A
:103C50007B681B685A4A934204D17B681B68DB6807
:103C60007B610FE07B681B68B3F1A04F04D07B68D9
:103C70001B68544A934202D14FF0A04300E0504BDE
:103C8000DB687B617B6903F40013002B2DD17B681B
:103C90001B689B6803F00803002B1AD17B681B6824
:103CA0005A687B681B6822F060025A607B681B6C54
:103CB00023F480527B681A647B681B6C03F4807366
:103CC000002B12D17B681B6C43F001027B681A64E5
:103CD0000BE07B681B6C43F010027B681A647B6806
:103CE0005B6C43F001027B685A64786800F036F937
:103CF0007B681B6860221A603B6903F08003002B1D
:103D000011D0FB6803F08003002B0CD07B681B6C88
:103D100043F480327B681A647868FEF7F9FF7B68A9
:103D20001B6880221A603B6903F48073002B12D059
:103D3000FB6803F48073002B0DD07B681B6C43F48D
:103D400000327B681A64786800F01CF97B681B6895
:103D50004FF480721A603B6903F40073002B12D099
:103D6000FB6803F40073002B0DD07B681B6C43F4DD
:103D700080227B681A64786800F00EF97B681B6803
:103D80004FF400721A603B6903F01003002B4FD010
:103D9000FB6803F01003002B4AD07B685B6B012BA0
:103DA00002D10123FB612DE07B681B68B3F1A04FBA
:103DB00004D07B681B68034A934209D1024B08E098
:103DC00000040050000100500003005000070050A4
:103DD000284BBB60BB689B6803F01F03002B09D115
:103DE0007B681B68DB6803F00103012B0AD1012308
:103DF000FB6107E0BB689B6803F44043002B01D0E4
:103E00000123FB61FB69012B0ED17B681B6C43F422
:103E100080627B681A647B685B6C43F002027B689B
:103E20005A647868FEF77EFF7B681B6810221A6070
:103E30003B6903F48063002B18D0FB6803F48063B4
:103E4000002B13D07B681B6C43F480427B681A64A0
:103E50007B685B6C43F008027B685A647B681B6874
:103E60004FF480621A60786800F082F800BF203753
:103E7000BD4680BD0007005080B584B000AF7860BB
:103E800039600023FB737B6893F83C30012B01D130
:103E900002235FE07B68012283F83C20786800F011
:103EA0002DFD0346FB73FB7B002B4ED17B6801226B
:103EB0001A647B681B689A687B681B6822F08042E2
:103EC0009A603B68012B07D17B681B689A687B6806
:103ED0001B6842F080429A607B681B689A687B6826
:103EE0001B6842F000429A60FEF7D8FEB8601CE002
:103EF000FEF7D4FE0246BB68D31A0A2B15D97B689D
:103F00001B689B6803F00043B3F1004F0DD17B6841
:103F10001B6C23F0120343F010027B681A647B6869
:103F2000002283F83C20012314E07B681B689B6817
:103F300003F00043B3F1004FDAD07B681B6C23F031
:103F4000030343F001027B681A647B68002283F854
:103F50003C20FB7B18461037BD4680BD80B483B043
:103F600000AF786000BF0C37BD465DF8047B70473A
:103F700080B483B000AF786000BF0C37BD465DF8F9
:103F8000047B704780B483B000AF786000BF0C370B
:103F9000BD465DF8047B704780B483B000AF7860A5
:103FA00000BF0C37BD465DF8047B704780B49BB002
:103FB00000AF78603960002387F867300023BB606A
:103FC0007B6893F83C30012B01D10223CAE27B6865
:103FD000012283F83C207B681B689B6803F0040384
:103FE000002B40F0AE823B685B68042B1CD87B68DA
:103FF0001B68196B3B685A6813465B0013445B00EF
:104000001A461F239340DB4319403B6818683B68FE
:104010005A6813465B0013445B0000FA03F27B68A6
:104020001B680A431A6363E03B685B68092B1ED870
:104030007B681B68596B3B685A6813465B001344E6
:104040005B001E3B1F2202FA03F3DB4319403B686F
:1040500018683B685A6813465B0013445B001E3BBC
:1040600000FA03F27B681B680A435A6340E03B682E
:104070005B680E2B1ED87B681B68996B3B685A687F
:1040800013465B0013445B003C3B1F2202FA03F320
:10409000DB4319403B6818683B685A6813465B006D
:1040A00013445B003C3B00FA03F27B681B680A4345
:1040B0009A631DE07B681B68D96B3B685A6813469E
:1040C0005B0013445B005A3B1F2202FA03F3DB43FD
:1040D00019403B6818683B685A6813465B001344F4
:1040E0005B005A3B00FA03F27B681B680A43DA6301
:1040F0007B681B689B6803F00C03002B40F0E58095
:104100003B681B68092B1CD97B681B6899693B6855
:104110001A6813465B0013441E3B072202FA03F39E
:10412000DB4319403B6898683B681A6813465B009C
:1041300013441E3B00FA03F27B681B680A439A6132
:1041400019E07B681B6859693B681A6813465B0075
:104150001344072202FA03F3DB4319403B689868D3
:104160003B681A6813465B00134400FA03F27B684D
:104170001B680A435A613B685A697B681B68DB68A5
:10418000DB0803F003035B0002FA03F33B663B68C2
:104190001B69013B032B4FD801A252F823F000BF4B
:1041A000B1410008D3410008F5410008174200085A
:1041B0007B681B681A6E9A4B13403A681268910626
:1041C0003A6E0A431A437B681B6842F000421A6643
:1041D0007EE07B681B685A6E914B13403A68126808
:1041E00091063A6E0A431A437B681B6842F000420C
:1041F0005A666DE07B681B689A6E894B13403A687B
:10420000126891063A6E0A431A437B681B6842F0B3
:1042100000429A665CE07B681B68DA6E804B134054
:104220003A68126891063A6E0A431A437B681B6823
:1042300042F00042DA664BE07B681B681B6E03F0BD
:10424000F8423B681B689B069A4207D17B681B6853
:104250001A6E7B681B6822F000421A667B681B6836
:104260005B6E03F0F8423B681B689B069A4207D1DD
:104270007B681B685A6E7B681B6822F000425A6696
:104280007B681B689B6E03F0F8423B681B689B06CB
:104290009A4207D17B681B689A6E7B681B6822F084
:1042A00000429A667B681B68DB6E03F0F8423B684D
:1042B0001B689B069A420AD17B681B68DA6E7B6892
:1042C0001B6822F00042DA6601E000BF00E000BF98
:1042D0007B681B689B6803F00303012B08D17B6894
:1042E0001B681B6803F00103012B01D1012300E0CF
:1042F0000023002B40F030813B68DB68012B0FD09E
:104300007B681B68D3F8B0103B681B68012202FA77
:1043100003F3DA437B681B680A40C3F8B02049E026
:104320007B681B68D3F8B0103B681B6801229A4079
:104330007B681B680A43C3F8B0203B681B68092BE5
:104340001CD97B681B6899693B681A6813465B0037
:1043500013441B3B072202FA03F3DB4319403B687B
:1043600098683B681A6813465B0013441B3B00FACD
:1043700003F27B681B680A439A611BE07B681B6839
:1043800059693B681B685A1C13465B00134407229B
:1043900002FA03F3DB4319403B6898683B681B68EB
:1043A0005A1C13465B00134400FA03F27B681B6837
:1043B0000A435A617B681B68B3F1A04F04D07B6845
:1043C0001B68184A934201D1174B00E0174BFB655D
:1043D0003B681B68102B05D1FB6D9B6803F4000341
:1043E000002B15D03B681B68112B05D1FB6D9B681A
:1043F00003F08073002B0BD03B681B68122B40F03E
:10440000AB80FB6D9B6803F48003002B40F0A4801D
:104410007B681B68B3F1A04F0AD1024BFB6022E01E
:1044200000F0FF830001005000030050000700501F
:104430007B681B684E4A934203D14FF0A043FB6058
:1044400011E07B681B684B4A934202D14A4BFB60E8
:1044500009E07B681B68484A934202D1454BFB60E8
:1044600001E00023FB607B681B689B6803F003038B
:10447000012B08D17B681B681B6803F00103012B2B
:1044800001D1012300E00023002B50D1FB68002B59
:1044900010D0FB689B6803F00303012B07D1FB6876
:1044A0001B6803F00103012B01D1012300E000236D
:1044B000002B3CD13B681B68102B1DD17B681B680F
:1044C000B3F1A04F18D1FB6D9B6843F40002FB6D64
:1044D0009A602A4B1B682A4AA2FB03239A0C1346B4
:1044E0009B0013445B00BB6002E0BB68013BBB6008
:1044F000BB68002BF9D12EE03B681B68112B0BD158
:104500007B681B68B3F1A04F06D1FB6D9B6843F03D
:104510008072FB6D9A601EE03B681B68122B1AD1FB
:10452000FB6D9B6843F48002FB6D9A6013E07B682F
:104530001B6C43F020027B681A64012387F8673004
:104540000AE07B681B6C43F020027B681A6401233D
:1045500087F8673000E000BF7B68002283F83C20CA
:1045600097F8673018466C37BD465DF8047B704796
:104570000001005000040050000500500C00002015
:1045800083DE1B4380B499B000AF786039600023AC
:1045900087F85F307B681B68B3F1A04F02D16D4B89
:1045A000BB601AE07B681B686A4A934203D14FF0F4
:1045B000A043BB6011E07B681B68674A934202D14D
:1045C000664BBB6009E07B681B68644A934202D17A
:1045D000614BBB6001E00023BB60BB68002B01D1D5
:1045E0000123B0E07B6893F83C30012B01D102231A
:1045F000A9E07B68012283F83C207B681B689B68EC
:1046000003F00403002B40F08D80BB689B6803F02F
:104610000403002B40F086807B681B68B3F1A04F39
:1046200004D07B681B684B4A934201D14C4B00E09D
:104630004C4BBB653B681B68002B40D0BB6D9B6837
:1046400023F460423B6859687B6893F830305B0321
:104650000B431A43BB6D9A607B681B689B6803F031
:104660000303012B08D17B681B681B6803F001035F
:10467000012B01D1012300E00023002B5CD1BB689A
:104680009B6803F00303012B07D1BB681B6803F091
:104690000103012B01D1012300E00023002B4BD1AA
:1046A000BB6D9B6823F4716323F00F033A681168B4
:1046B0003A6892680A431A43BB6D9A603CE0BB6D4E
:1046C0009B6823F46042BB6D9A607B681B689B68A3
:1046D00003F00303012B08D17B681B681B6803F000
:1046E0000103012B01D1012300E00023002B23D182
:1046F000BB689B6803F00303012B07D1BB681B68F1
:1047000003F00103012B01D1012300E00023002B62
:1047100012D1BB6D9B6823F4716323F00F03BA6D54
:10472000936009E07B681B6C43F020027B681A648D
:10473000012387F85F3000E000BF7B68002283F828
:104740003C2097F85F3018466437BD465DF8047B1F
:10475000704700BF000100500004005000050050E9
:10476000000300500007005080B584B000AF7860AF
:104770007B685B6AFB60FB681B6C03F05003002BDB
:1047800026D1FB681B6C43F40072FB681A64FB685B
:104790001B68DB6803F44063002B15D1FB685B7E6C
:1047A000002B11D1FB681B6C23F48072FB681A6428
:1047B000FB681B6C03F48053002B05D1FB681B6C5A
:1047C00043F00102FB681A64F868FDF79FFC04E0FF
:1047D000FB689B6B1B6B7868984700BF1037BD4622
:1047E00080BD80B584B000AF78607B685B6AFB6099
:1047F000F868FEF783FA00BF1037BD4680BD80B56C
:1048000084B000AF78607B685B6AFB60FB681B6C00
:1048100043F04002FB681A64FB685B6C43F00402DF
:10482000FB685A64F868FEF77DFA00BF1037BD4692
:1048300080BD000080B584B000AF78600023FB60CD
:104840007B681B689B6803F00303012B08D17B681E
:104850001B681B6803F00103012B01D1012300E059
:104860000023002B43D17B681B689A68224B1340BE
:10487000002B0DD07B681B6C43F010027B681A6420
:104880007B685B6C43F001027B685A6401232FE074
:104890007B681B689A687B681B6842F001029A601B
:1048A000FEF7FCF9F8601BE0FEF7F8F90246FB683A
:1048B000D31A022B14D97B681B681B6803F0010311
:1048C000012B0DD07B681B6C43F010027B681A64CF
:1048D0007B685B6C43F001027B685A64012307E04C
:1048E0007B681B681B6803F00103012BDCD10023EC
:1048F00018461037BD4680BD3F00008080B584B0AB
:1049000000AF78600023FB607B681B689B6803F046
:104910000303012B08D17B681B681B6803F00103AC
:10492000012B01D1012300E00023002B47D07B683D
:104930001B689B6803F00D03012B0FD17B681B687C
:104940009A687B681B6842F002029A607B681B6869
:1049500003221A60FEF7A2F9F86029E07B681B6C5D
:1049600043F010027B681A647B685B6C43F00102C1
:104970007B685A64012323E0FEF790F90246FB6846
:10498000D31A022B14D97B681B689B6803F00103C0
:10499000012B0DD17B681B6C43F010027B681A64FD
:1049A0007B685B6C43F001027B685A64012307E07B
:1049B0007B681B689B6803F00103012BDCD000239C
:1049C00018461037BD4680BD80B586B000AF786010
:1049D000396000237B610023FB6000233B617B681F
:1049E0001B689B6803F00C03002B00F09B807B6826
:1049F0001B68DB6803F00073B3F1007F2AD17B688A
:104A00005B7E012B26D17B681B7E012B22D10C23E0
:104A10003B6014E03B69464A93420DD97B681B6CAE
:104A200043F010027B681A647B685B6C43F0010200
:104A30007B685A64012376E03B6901333B617B6804
:104A40001B681B6803F04003402BE3D17B681B68A5
:104A500040221A603B68602B15D07B681B689B68FE
:104A600003F00403042B0ED17B681B689B6803F0E2
:104A70000203002B07D17B681B689A687B681B6860
:104A800042F010029A603B680C2B15D07B681B68C3
:104A90009B6803F00803082B0ED17B681B689B689A
:104AA00003F00203002B07D17B681B689A687B68C0
:104AB0001B6842F020029A603B68602B05D03B687F
:104AC0006C2B05D10C237B6105E008237B6102E0A0
:104AD00004237B6100BFFEF7E1F8F8601BE0FEF7FE
:104AE000DDF80246FB68D31A0B2B14D97B681B68D0
:104AF0009A687B691340002B0DD07B681B6C43F0D8
:104B000010027B681A647B685B6C43F001027B686F
:104B10005A64012307E07B681B689A687B6913402D
:104B2000002BDCD1002318461837BD4680BD00BFDE
:104B3000FF93090080B485B000AF78607B6803F014
:104B40000703FB600C4BDB68BB60BA684FF6FF03E2
:104B50001340BB60FB681A02BB68134343F0BF639A
:104B600043F40033BB60044ABB68D36000BF143712
:104B7000BD465DF8047B704700ED00E080B400AFF7
:104B8000044BDB681B0A03F007031846BD465DF8BB
:104B9000047B704700ED00E080B483B000AF0346B3
:104BA000FB7197F90730002B0BDBFB7903F01F0239
:104BB000074997F907305B09012000FA02F241F832
:104BC000232000BF0C37BD465DF8047B704700BF53
:104BD00000E100E080B483B000AF0346FB7197F9B9
:104BE0000730002B12DBFB7903F01F020A4997F90B
:104BF00007305B09012000FA02F2203341F823203C
:104C0000BFF34F8F00BFBFF36F8F00BF00BF0C37E4
:104C1000BD465DF8047B704700E100E080B483B0DE
:104C200000AF03463960FB7197F90730002B0ADBB0
:104C30003B68DAB20C4997F907301201D2B20B4443
:104C400083F800230AE03B68DAB20849FB7903F0F5
:104C50000F03043B1201D2B20B441A7600BF0C378B
:104C6000BD465DF8047B704700E100E000ED00E028
:104C700080B489B000AFF860B9607A60FB6803F077
:104C80000703FB61FB69C3F10703042B28BF04235F
:104C9000BB61FB690433062B02D9FB69033B00E0CF
:104CA00000237B614FF0FF32BB6902FA03F3DA4362
:104CB000BB681A407B699A404FF0FF317B6901FA6B
:104CC00003F3D9437B680B40134318462437BD4692
:104CD0005DF8047B7047000080B582B000AF78605B
:104CE0007B68013BB3F1807F01D301230FE00A4AC7
:104CF0007B68013B53600F214FF0FF30FFF78EFFC1
:104D0000054B00229A60044B07221A6000231846C4
:104D10000837BD4680BD00BF10E000E080B582B01E
:104D200000AF78607868FFF705FF00BF0837BD4621
:104D300080BD80B586B000AF0346B9607A60FB7372
:104D400000237B61FFF71AFF78617A68B968786998
:104D5000FFF78EFF024697F90F3011461846FFF70E
:104D60005DFF00BF1837BD4680BD80B582B000AF83
:104D70000346FB7197F907301846FFF70DFF00BF98
:104D80000837BD4680BD80B582B000AF0346FB71D9
:104D900097F907301846FFF71DFF00BF0837BD46DB
:104DA00080BD80B582B000AF78607868FFF794FF6F
:104DB000034618460837BD4680BD80B584B000AFB5
:104DC00078600023FB607B68002B01D1012337E072
:104DD0007B68022283F821207B681B681B68FB60CC
:104DE000FB6823F47F5323F03003FB607B685A6831
:104DF0007B689B681A437B68DB681A437B681B6986
:104E00001A437B685B691A437B689B691A437B681A
:104E1000DB691343FA681343FB607B681B68FA681D
:104E20001A60786800F0C4F97B6800229A637B6896
:104E3000012283F821207B68002283F820200023B0
:104E400018461037BD4680BD80B586B000AFF8600B
:104E5000B9607A603B600023FB75FB6893F82030F3
:104E6000012B01D102234AE0FB68012283F82020B4
:104E7000FB6893F82130012B3AD1FB68022283F8BA
:104E80002120FB6800229A63FB681B681A68FB6894
:104E90001B6822F001021A603B687A68B968F868FA
:104EA00000F058F9FB68DB6A002B08D0FB681B6830
:104EB0001A68FB681B6842F00E021A600FE0FB687C
:104EC0001B681A68FB681B6842F00A021A60FB68DC
:104ED0001B681A68FB681B6822F004021A60FB68F2
:104EE0001B681A68FB681B6842F001021A6005E043
:104EF000FB68002283F820200223FB75FB7D184607
:104F00001837BD4680BD80B483B000AF78607B6841
:104F100093F82130022B08D07B6804229A637B68C7
:104F2000002283F82020012320E07B681B681A6898
:104F30007B681B6822F00E021A607B681B681A6887
:104F40007B681B6822F001021A607B681A6C7B6820
:104F5000DB6B012101FA02F25A607B68012283F8BF
:104F600021207B68002283F82020002318460C377C
:104F7000BD465DF8047B704780B584B000AF7860B3
:104F80000023FB737B6893F82130022B05D07B68EC
:104F900004229A630123FB7327E07B681B681A686D
:104FA0007B681B6822F00E021A607B681B681A6817
:104FB0007B681B6822F001021A607B681A6C7B68B0
:104FC000DB6B012101FA02F25A607B68012283F84F
:104FD00021207B68002283F820207B685B6B002BFC
:104FE00003D07B685B6B78689847FB7B184610376B
:104FF000BD4680BD80B584B000AF78607B68DB6B58
:105000001B68FB607B681B681B68BB607B681B6C54
:1050100004229A40FB681340002B24D0BB6803F0A5
:105020000403002B1FD07B681B681B6803F0200360
:10503000002B07D17B681B681A687B681B6822F00D
:1050400004021A607B681A6C7B68DB6B042101FA2E
:1050500002F25A607B68DB6A002B6AD07B68DB6AED
:105060007868984765E07B681B6C02229A40FB6871
:105070001340002B2CD0BB6803F00203002B27D079
:105080007B681B681B6803F02003002B0BD17B6837
:105090001B681A687B681B6822F00A021A607B682A
:1050A000012283F821207B681A6C7B68DB6B02216C
:1050B00001FA02F25A607B68002283F820207B68A4
:1050C0009B6A002B35D07B689B6A7868984730E0F4
:1050D0007B681B6C08229A40FB681340002B28D089
:1050E000BB6803F00803002B23D07B681B681A6899
:1050F0007B681B6822F00E021A607B681A6C7B6862
:10510000DB6B012101FA02F25A607B6801229A638B
:105110007B68012283F821207B68002283F820200D
:105120007B681B6B002B04D07B681B6B78689847EF
:10513000FFE700BF1037BD4680BD80B483B000AF2D
:1051400078607B6893F8213018460C37BD465DF8CF
:10515000047B704780B485B000AFF860B9607A60B6
:105160003B60FB681A6CFB68DB6B012101FA02F201
:105170005A60FB681B683A685A60FB685B68102BD2
:1051800008D1FB681B687A689A60FB681B68BA687C
:10519000DA6007E0FB681B68BA689A60FB681B6806
:1051A0007A68DA6000BF1437BD465DF8047B70474B
:1051B00080B483B000AF78607B681B681A46144BDC
:1051C0009A420FD87B681B681A46124B1344124A46
:1051D000A2FB03231B099A007B681A647B680F4AB1
:1051E000DA630EE07B681B681A460D4B13440A4ACB
:1051F000A2FB03231B099A007B681A647B68094A97
:10520000DA6300BF0C37BD465DF8047B704700BF12
:1052100007040240F8FFFDBFCDCCCCCC000002401B
:10522000F8FBFDBF0004024080B487B000AF786097
:10523000396000237B6154E13B681A6801217B6976
:1052400001FA03F31340FB60FB68002B00F046817A
:105250003B685B6803F00303012B05D03B685B6888
:1052600003F00303022B30D17B689B683B617B69B1
:105270005B00032202FA03F3DB433A6913403B610C
:105280003B68DA687B695B0002FA03F33A6913430F
:105290003B617B683A699A607B685B683B6101228D
:1052A0007B6902FA03F3DB433A6913403B613B68D5
:1052B0005B681B0903F001027B6902FA03F33A6998
:1052C00013433B617B683A695A603B685B6803F053
:1052D0000303032B17D07B68DB683B617B695B00B2
:1052E000032202FA03F3DB433A6913403B613B6854
:1052F0009A687B695B0002FA03F33A6913433B61E6
:105300007B683A69DA603B685B6803F00303022B51
:1053100023D17B69DA087B68083253F822303B617D
:105320007B6903F007039B000F2202FA03F3DB43C0
:105330003A6913403B613B681A697B6903F00703D4
:105340009B0002FA03F33A6913433B617B69DA0875
:105350007B680832396943F822107B681B683B611F
:105360007B695B00032202FA03F3DB433A691340D3
:105370003B613B685B6803F003027B695B0002FAF8
:1053800003F33A6913433B617B683A691A603B68EF
:105390005B6803F44033002B00F0A080584B9B69FE
:1053A000574A43F001039361554B9B6903F0010396
:1053B000BB60BB68534A7B699B08023352F82330B9
:1053C0003B617B6903F003039B000F2202FA03F3A6
:1053D000DB433A6913403B617B68B3F1904F19D0CE
:1053E0007B68494A934213D07B68484A93420DD068
:1053F0007B68474A934207D07B68464A934201D173
:10540000042308E0052306E0032304E0022302E06E
:10541000012300E000237A6902F003029200934026
:105420003A6913433B6137497B699B0802333A6908
:1054300041F82320384B9B683B61FB68DB433A69AA
:1054400013403B613B685B6803F48013002B03D07F
:105450003A69FB6813433B612F4A3B6993602E4BCB
:10546000DB683B61FB68DB433A6913403B613B68A7
:105470005B6803F40013002B03D03A69FB68134305
:105480003B61254A3B69D360234B5B683B61FB680A
:10549000DB433A6913403B613B685B6803F40033CC
:1054A000002B03D03A69FB6813433B611A4A3B69FE
:1054B0005360194B1B683B61FB68DB433A6913403F
:1054C0003B613B685B6803F48033002B03D03A698F
:1054D000FB6813433B61104A3B6913607B690133EE
:1054E0007B613B681A687B6922FA03F3002B7FF427
:1054F000A3AE00BF00BF1C37BD465DF8047B7047FC
:10550000001002400000014000040048000800486C
:10551000000C0048001000480004014080B487B02F
:1055200000AF7860396000237B61B8E001227B69BD
:1055300002FA03F33A6813403B613B69002B00F029
:10554000AB805E4A7B699B08023352F82330FB60D4
:105550007B6903F003039B000F2202FA03F3FA684E
:105560001340FB607B68B3F1904F19D07B68544ABD
:10557000934213D07B68534A93420DD07B68524AC2
:10558000934207D07B68514A934201D1042308E03B
:10559000052306E0032304E0022302E0012300E0E8
:1055A00000237A6902F0030292009340FA689A425B
:1055B00032D1474B1A683B69DB43454913400B60C6
:1055C000434B5A683B69DB43414913404B60404BB6
:1055D000DA683B69DB433E491340CB603C4B9A6839
:1055E0003B69DB433A4913408B607B6903F003035B
:1055F0009B000F2202FA03F3FB60304A7B699B0891
:10560000023352F82310FB68DA432C487B699B086D
:105610000A40023340F823207B681A687B695B00EC
:10562000032101FA03F3DB431A407B681A607B69AC
:10563000DA087B68083253F822107B6903F007030D
:105640009B000F2202FA03F3DB437A69D208194068
:105650007B68083243F822107B68DA687B695B005C
:10566000032101FA03F3DB431A407B68DA607B68AD
:105670005A6801217B6901FA03F3DB431A407B6816
:105680005A607B689A687B695B00032101FA03F327
:10569000DB431A407B689A607B6901337B613A681F
:1056A0007B6922FA03F3002B7FF440AF00BF00BFF9
:1056B0001C37BD465DF8047B704700BF0000014009
:1056C0000004004800080048000C00480010004892
:1056D0000004014080B485B000AF78600B467B8049
:1056E0007B681A697B881340002B02D00123FB736F
:1056F00001E00023FB73FB7B18461437BD465DF8C1
:10570000047B704780B483B000AF78600B467B8029
:1057100013467B707B78002B03D07A887B689A6174
:1057200002E07A887B689A6200BF0C37BD465DF85C
:10573000047B704780B485B000AF78600B467B80F7
:105740007B685B69FB607A88FB6813401A04FB681E
:10575000D9437B880B401A437B689A6100BF14379A
:10576000BD465DF8047B704780B582B000AF03464C
:10577000FB80084B5A69FB881340002B06D0054A72
:10578000FB885361FB881846FCF7F4FB00BF083721
:10579000BD4680BD0004014080B582B000AF786096
:1057A0007B68002B01D1012381E07B6893F84130B5
:1057B000DBB2002B06D17B68002283F8402078689A
:1057C000FCF7EAFD7B68242283F841207B681B6894
:1057D0001A687B681B6822F001021A607B685A68AD
:1057E0007B681B6822F070621A617B681B689A688C
:1057F0007B681B6822F400429A607B68DB68012B9F
:1058000007D17B689A687B681B6842F400429A6003
:1058100006E07B689A687B681B6842F404429A60E1
:105820007B68DB68022B04D17B681B684FF4006245
:105830005A607B681B685B687A68126843F0007383
:1058400043F4004353607B681B68DA687B681B681D
:1058500022F40042DA607B681A697B685B6942EA7D
:1058600003017B689B691A027B681B680A43DA6044
:105870007B68D9697B681A6A7B681B680A431A606F
:105880007B681B681A687B681B6842F001021A601B
:105890007B6800225A647B68202283F841207B6861
:1058A00000221A637B68002283F8422000231846F6
:1058B0000837BD4680BD80B582B000AF78607B6898
:1058C000002B01D1012321E07B68242283F84120B1
:1058D0007B681B681A687B681B6822F001021A60EB
:1058E0007868FCF7ADFD7B6800225A647B68002273
:1058F00083F841207B6800221A637B68002283F8CA
:1059000042207B68002283F8402000231846083795
:10591000BD4680BD80B588B002AFF8607A601A4697
:105920000B467B8113463B81FB6893F84130DBB229
:10593000202B40F0DA80FB6893F84030012B01D136
:105940000223D3E0FB68012283F84020FDF7A6F98B
:1059500078617B690093192301224FF40041F868B4
:1059600001F0B1FC0346002B01D00123BEE0FB682F
:10597000212283F84120FB68102283F84220FB6833
:1059800000225A64FB687A685A62FB683A895A8531
:10599000FB6800225A63FB685B8D9BB2FF2B0ED91C
:1059A000FB68FF221A85FB681B8DDAB27989514B9F
:1059B00000934FF08073F86801F03EFE6CE0FB68E6
:1059C0005B8D9AB2FB681A85FB681B8DDAB2798908
:1059D000484B00934FF00073F86801F02DFE5BE038
:1059E0007A69396AF86801F0BDFC0346002B01D0E2
:1059F00001237BE0FB685B6A1A78FB681B689A628C
:105A0000FB685B6A5A1CFB685A62FB685B8D9BB241
:105A1000013B9AB2FB685A85FB681B8D013B9AB229
:105A2000FB681A85FB685B8D9BB2002B34D0FB684A
:105A30001B8D002B30D17B6900933B6A00228021B3
:105A4000F86801F040FC0346002B01D001234DE033
:105A5000FB685B8D9BB2FF2B0ED9FB68FF221A857A
:105A6000FB681B8DDAB27989002300934FF08073B5
:105A7000F86801F0E1FD0FE0FB685B8D9AB2FB680E
:105A80001A85FB681B8DDAB27989002300934FF0E9
:105A90000073F86801F0D0FDFB685B8D9BB2002BB2
:105AA0009ED17A69396AF86801F0A3FC0346002B9D
:105AB00001D001231AE0FB681B682022DA61FB6831
:105AC0001B685968FB681A680B4B0B405360FB68F6
:105AD000202283F84120FB68002283F84220FB68E3
