:020000040800F2
:1000000000A00020A12D0008A12B0008A72B0008AC
:10001000AD2B0008B32B0008B92B0008000000002E
:10002000000000000000000000000000BF2B0008DE
:10003000CD2B000800000000DB2B0008E92B000896
:10004000F12D0008F12D0008F12D0008F12D000818
:10005000F12D0008F52B0008F12D0008032C0008F5
:10006000F12D0008F12D0008F12D0008F12D0008F8
:10007000F12D0008F12D0008F12D0008F12D0008E8
:10008000112C0008252C0008392C0008F12D00083F
:10009000F12D0008F12D0008F12D0008552C000865
:1000A000652C0008F12D0008F12D0008F12D000845
:1000B000812C0008F12D0008F12D0008952C000876
:1000C000A92C0008F12D0008F12D0008F12D0008E1
:1000D000F12D0008F12D0008BD2C0008F12D0008BD
:1000E000D12C0008F12D0008F12D0008E92C0008A2
:1000F000F12D0008F12D0008F12D0008F12D000868
:10010000000000000000000000000000F12D0008C9
:10011000F12D0008F12D0008F12D0008F12D000847
:10012000FD2C0008F12D0008F12D0008F12D00082C
:10013000F12D0008F12D0008000000000000000073
:10014000F12D0008F12D0008F12D0008000000003D
:10015000000000000000000000000000000000009F
:100160000000000000000000F12D0008F12D000843
:10017000F12D000800000000000000000000000059
:0801800000000000F12D000851
:1001900010B5054C237833B9044B13B10448AFF3C1
:1001A00000800123237010BD6800002000000000C3
:1001B00078C6000808B5034B1BB103490348AFF3E9
:1001C000008008BD000000006C00002078C6000818
:1001D00001F0FF01102A2BDB10F0070F08D010F8F8
:1001E000013B013A8B422DD010F0070F42B3F6D1FC
:1001F000F0B441EA012141EA014122F007047FF015
:1002000000070023F0E80256083C85EA010586EA6B
:10021000010685FA47F5A3FA87F586FA47F6A5FAA7
:1002200087F68EB9EED1F0BC01F0FF0102F00702B3
:1002300032B110F8013B013A83EA010313B1F8D15E
:100240000020704701387047002D06BF354603383F
:10025000073815F0010F07D1013015F4807F02BF78
:10026000013015F4C03F0130F0BC0138704700BFC9
:1002700080B586B000AF3B4600221A605A609A6093
:10028000DA601A615A6101233B6001237B6003231A
:10029000BB603B461946034803F08EFF00BF18378A
:1002A000BD4680BD2401002080B586B000AF3B462E
:1002B00000221A605A609A60DA601A615A610C234F
:1002C0003B6001237B600323BB603B461946034828
:1002D00003F072FF00BF1837BD4680BD2401002027
:1002E00080B500AFFFF7C4FF0B4B00225A800B48CC
:1002F00003F008F86421094803F050F9074803F0B7
:10030000CDFB03469AB2044B5A80044803F010F91F
:10031000014B5B88184680BDF404002024010020B6
:1003200080B500AFFFF7C0FF0B4B00221A800B48CF
:1003300002F0E8FF6421094803F030F9074803F0B0
:10034000ADFB03469AB2044B1A80044803F0F0F860
:10035000014B1B88184680BDF404002024010020B6
:1003600080B582B000AF0023FB7170E0FB79454A95
:10037000128891B2444A22F81310FB79434A32F8AA
:100380001320434B1B889A4214D3FB793E4A32F820
:100390001330092B0ED9FB793B4A32F81320FB7935
:1003A0000A3A91B2384A22F8131001220121394841
:1003B00005F09EF9FB79354A32F8133040F6D762E2
:1003C000934230D90021344808F06AFC04213248B5
:1003D00008F066FC0021314808F062FC002130483A
:1003E00008F05EFC00212C480AF092F804212A480B
:1003F0000AF08EF8002129480AF08AF800212848DE
:100400000AF086F8204B0A221A801F4B0A225A80D3
:100410001D4B0A229A801C4B0A22DA8001220121FC
:100420001C4805F065F9FB79174A32F81330092B9F
:100430000AD9FB79154A32F813300A2B04D8002266
:100440000121144805F054F9FB790133FB71FB7964
:10045000032B8BD90C4B1B881A460B4B5B88134420
:10046000094A92881344084AD2881344002B00DAC0
:1004700003339B109AB20B4B1A8000BF0837BD465E
:1004800080BD00BF0A05002000000020FC04002001
:1004900008000020001400482C020020C4020020A4
:1004A000100300200805002080B586B002AF034687
:1004B0000A46FB711346BB71FB791B01DBB2FB7370
:1004C000FA7BBB791343DBB2FB73164B1B78DB0063
:1004D0005AB2FB7B5BB213435BB2DBB2FB73FB7BB9
:1004E00043F00403DBB2FB7307F10F0264230093B4
:1004F00001234E210C4805F0D5F9012002F0E0FC63
:10050000FB7B23F00403DBB2FB7307F10F026423D0
:10051000009301234E21044805F0C4F900BF1037B1
:10052000BD4680BD0A000020B801002080B584B01F
:1005300000AF0346FB71FB791B09FB73FB7903F0EA
:100540000F03BB73FB7B00211846FFF7ADFFBB7B9E
:1005500000211846FFF7A8FFFB79012B02D0FB7999
:10056000022B02D1022002F0ABFC00BF1037BD46C7
:1005700080BD80B584B000AF0346FB71FB791B09D9
:10058000FB73FB7903F00F03BB73FB7B0121184660
:10059000FFF78AFFBB7B01211846FFF785FF00BFED
:1005A0001037BD4680BD80B500AF322002F088FC18
:1005B00000210320FFF778FF052002F081FC0021D5
:1005C0000320FFF771FF012002F07AFC00210320D5
:1005D000FFF76AFF012002F073FC00210220FFF701
:1005E00063FF2820FFF7A2FF0C20FFF79FFF0620E4
:1005F000FFF79CFF0120FFF799FF022002F060FC4B
:1006000000BF80BD80B582B000AF786006E07B6837
:100610005A1C7A601B781846FFF7ABFF7B681B7883
:10062000002BF4D100BF00BF0837BD4680BD0000DD
:1006300080B584B000AF03460A46FB711346BB7118
:10064000FB79013B032B17D801A252F823F000BF1E
:1006500061060008670600086D06000873060008BA
:100660008023FB730AE0C023FB7307E09423FB7332
:1006700004E0D423FB7301E08023FB73FA7BBB7996
:100680001344FB73FB7B63F07F03DBB21846FFF779
:100690004DFF00BF1037BD4680BD00BF80B500AF25
:1006A0000120FFF743FF022002F00AFC00BF80BDDB
:1006B00080B584B000AF78600B467B807B681B6898
:1006C0003C4A934272D13C4B1A783C4B1B789A427D
:1006D0005FD1394B5B78FB73FB7B023B0E2B57D80A
:1006E00001A252F823F000BF250700089107000877
:1006F0002F07000891070008390700089107000834
:100700009107000891070008910700089107000869
:100710009107000891070008910700089107000859
:100720004B070008FF21264801F040FD31E0254934
:10073000234801F0BDFC2CE02349214801F0AEFD27
:10074000214B5A88214B1A8023E01F491C4801F095
:10075000A5FD1D4B5A881D4B1A801B4B9A881C4BBC
:100760001A80194BDB881B0A9BB2DAB2194B1A703C
:10077000154BDB88DAB2174B5A70134B1B89DAB270
:10078000144B9A7001221349134807F048FE00E009
:1007900000BF1C2208490A480BF075FA0F4B1B6872
:1007A0001A680E4B1B6822F004021A6000BF103753
:1007B000BD4680BD00440040500500200B000020D5
:1007C000E40300206C060020AC0600200A0500208F
:1007D00008000020D00600200C020020B0040020F9
:1007E00080B588B002AF02F005FB00F073FB01F0AA
:1007F00011F901F0D5F800F049FC00F0E7FD00F038
:100800009DFE01F06DF801F09BF800F019FF00F07B
:1008100043FD00F081FD00F0BFFF00F0C7FB00F0DA
:10082000CBFC01220121924804F062FF01224FF427
:1008300080614FF0904004F05BFF8E4B1A888E4B26
:100840005A638C4B5A888C4B9A638A4B9A888B4B91
:100850005A63884BDA888A4B5A630021894808F02A
:100860001FF90421874808F01BF90021864808F089
:1008700017F90021854808F013F90021844808F091
:1008800007FB0421824808F003FB01224FF40061BA
:10089000804804F02DFF01224FF480617D4804F070
:1008A00027FF01224FF480517A4804F021FF0122F2
:1008B0004FF40051774804F01BFF0521764803F000
:1008C000E1FB0421754803F0DDFB0221744803F0CD
:1008D000D9FB744B01221A70642002F0F1FA724BBA
:1008E0003B61052271496C4802F05AFF10227049A1
:1008F00070480BF0C8F9704B1B681A686E4B1B6888
:1009000022F004021A6000220121594804F0F0FE8E
:1009100000224FF480614FF0904004F0E9FE614BFB
:100920001B78DBB2012BFAD15B4803F055F85B482A
:1009300002F0E8FC6421594802F030FE5F4B0022CF
:10094000DA80564803F0AAF803469AB25B4BDA8085
:10095000524802F0EDFDFFF7C3FCFFF7E1FC002277
:100960005749584807F0F5FD504B1A88564B1A80E6
:100970004E4B5A88544B5A804C4B9A88524B9A8013
:100980004A4BDA88504BDA803A4B1A884E4B1A8120
:10099000384B5A884C4B5A81364B9A884A4B9A812D
:1009A000344BDA88484BDA81484B1A88464B1A8216
:1009B000474B1A88444B5A82464B1A88424B9A82BC
:1009C000454B1B789AB2404BDA823C4BDA883E4B5F
:1009D0001A83364B1A893C4B5A83394B1B781B02BE
:1009E0001AB2374B5B781BB213431BB29AB2364B29
:1009F0009A83334B9B789AB2334BDA83374B1B780D
:100A0000132B00F28280354B1B781A462B4B19882A
:100A1000334B23F81210314B1B780133DAB22F4BD2
:100A20001A700023FB750CE0FB7D2D4A32F8132071
:100A30002C4B1B8813449AB22A4B1A80FB7D01333E
:100A4000FB75264B1B78FA7D9A42EDD9254B1B8806
:100A50001A46224B1B7892FBF3F39AB2214B1A8071
:100A60001E4B1B78132B50D10123FB7345E000BFB5
:100A70000014004800000020002C01400034014018
:100A8000004001402C020020C4020020100300207E
:100A90007802002000040048D400002084000020D8
:100AA000240100200D05002090C60008FC04002051
:100AB00050050020E4030020B0040020F4040020CE
:100AC000D00600200C0200206C0600201605002035
:100AD00018050020080000200B000020440500201D
:100AE0001C05002046050020FA7BFB7B013BB64934
:100AF00031F81210B44A22F81310B44B1B78FA7B69
:100B00009A42F1D0B14B00221A70B14B1B7883F09E
:100B10000103DBB2002B0DD0AE4B1B78002B09D0AC
:100B2000FFF741FD642002F0CBF9FFF7B7FDA94BB9
:100B300000221A70A64B1B78002B0AD0A54B1B78FD
:100B4000002B06D0FFF72FFDFFF7A8FDA14B0022D9
:100B50001A709F4B1B78002B00F08F819E4B1B78E7
:100B60000133DAB29C4B1A709C4B1B78012B04D1D9
:100B7000FFF794FD994B00221A70994B1B78002BBC
:100B80004AD1954B1B78142B46D1964B1B881A469D
:100B90003B1D954918460BF0CBF800210120FFF7CB
:100BA00047FD3B1D1846FFF72DFD904B1B8819464E
:100BB0008E4B1B888E4AA2FB03231B099BB2381D58
:100BC0000A468C490BF0B4F800210220FFF730FDF3
:100BD0003B1D1846FFF716FD874B1B881A463B1D29
:100BE000864918460BF0A4F800210320FFF720FDEA
:100BF0003B1D1846FFF706FD814B1B881A463B1D1F
:100C0000804918460BF094F800210420FFF710FDEE
:100C10003B1D1846FFF7F6FC714B1B78022B49D1A0
:100C20006D4B1B78162B45D100227749774807F08A
:100C300090FC00227649754807F06DFD754B1B78D6
:100C40001A46754B1B781946744B1B78381D009358
:100C50000B4673490BF06CF800210120FFF7E8FC0C
:100C60003B1D1846FFF7CEFC674B1B781A46664BB8
:100C70005B781946644B9B78381D00930B46694995
:100C80000BF056F800210220FFF7D2FC3B1D18465E
:100C9000FFF7B8FC4C4B1B881A463B1D62491846AF
:100CA0000BF046F800210320FFF7C2FC3B1D18465D
:100CB000FFF7A8FC4A4B1B78012B40F0DE80464B27
:100CC0001B78122B57D1594B1B88494AA2FB03238F
:100CD0001B099BB21A46554B1B88381D54490BF013
:100CE00027F800210120FFF7A3FC3B1D1846FFF762
:100CF00089FC4E4B5B883E4AA2FB03231B099BB237
:100D00001A464A4B5B88381D49490BF011F80021FF
:100D10000220FFF78DFC3B1D1846FFF773FC434B89
:100D20009B88334AA2FB03231B099BB21A463F4B05
:100D30009B88381D3E490AF0FBFF00210320FFF786
:100D400077FC3B1D1846FFF75DFC384BDB88284AD3
:100D5000A2FB03231B099BB21A46344BDB88381DC8
:100D600033490AF0E5FF00210420FFF761FC3B1D39
:100D70001846FFF747FC184B1B78B32B7DD92D4B3A
:100D80001B881A463B1D2C4918460AF0D1FF0D213D
:100D90000120FFF74DFC3B1D1846FFF733FC254BA8
:100DA0005B881A463B1D244918460AF0C1FF0D21F5
:100DB0000220FFF73DFC3B1D1846FFF723FC1D4BAF
:100DC0009B881A463B1D39E01C0500204405002085
:100DD00006050020070500201A050020490500200F
:100DE000480500201605002094C6000808050020CC
:100DF000CDCCCCCCA8C600084A050020C0C600084F
:100E000018050020D0C60008D00600200C020020E3
:100E1000E40600204D0500204C0500204E05002072
:100E2000DCC60008F8C600080CC700080000002057
:100E30001CC70008FC0400202CC700081C491846E9
:100E40000AF076FF0D210320FFF7F2FB3B1D184649
:100E5000FFF7D8FB174BDB881A463B1D1449184691
:100E60000AF066FF0D210420FFF7E2FB3B1D184648
:100E7000FFF7C8FB104B00221A70FFF771FA0F4BF7
:100E80001A880F4B5A630D4B5A880D4B9A630B4BC4
:100E90009A880C4B5A63094BDA880B4B5A630B4BFD
:100EA00000221A7005220349094802F079FC36E550
:100EB0002CC70008FC0400201A05002000000020B8
:100EC000002C014000340140004001400D0500208D
:100ED000D400002080B59EB000AF07F15003282257
:100EE000002118460AF044FF07F13C0300221A6073
:100EF0005A609A60DA601A613B463C22002118462B
:100F00000AF036FF0A233B6501233B6610237B660C
:100F10000123BB660223FB6600233B674FF460138B
:100F20007B6707F15003184605F0D2FD0346002BFE
:100F300001D001F037F80F23FB6302233B64002349
:100F40007B644FF48063BB640023FB6407F13C03C4
:100F50000221184606F0FAFD0346002B01D001F0ED
:100F600021F8114B3B600023BB600023FB604FF472
:100F700080737B624FF40053BB620023FB614FF42C
:100F800000737B6000233B6300237B633B46184672
:100F900007F012F80346002B01D001F003F800BF60
:100FA0007837BD4680BD00BFA331010080B58AB04F
:100FB00000AF07F11C0300221A605A609A603B1DC3
:100FC00000221A605A609A60DA601A615A612E4BE8
:100FD0004FF0A0421A602C4B00225A602A4B00228C
:100FE0009A60294B00221A61274B00225A76264B21
:100FF000002283F82020244B0022DA62224B0122B7
:101000009A62214B0022DA601F4B0122DA611E4BEB
:10101000002283F830201C4B04225A611A4B002214
:101020001A76194B00225A63174801F08BFF0346CA
:10103000002B01D000F0B6FF0023FB6107F11C0379
:101040001946114803F0A2FB0346002B01D000F023
:10105000A9FF04237B600123BB6000233B610223C3
:10106000FB6000237B610023BB613B1D19460648E2
:1010700003F0A2F80346002B01D000F093FF00BF5D
:101080002837BD4680BD00BF8400002080B586B0F3
:1010900000AF3B4600221A605A609A60DA601A611B
:1010A0005A61434B434A1A60414B00225A60404BFD
:1010B00000229A603E4B01221A613D4B00225A7673
:1010C0003B4B002283F82020394B0022DA62384B58
:1010D00001229A62364B0022DA60354B0522DA6132
:1010E000334B002283F83020314B04225A61304BBD
:1010F00000221A762E4B00225A632D4801F022FF5F
:101100000346002B01D000F04DFF01233B6001237B
:101110007B600023FB600223BB6000233B61002354
:101120007B613B461946224803F046F80346002BF4
:1011300001D000F037FF02233B6002237B603B4677
:1011400019461B4803F038F80346002B01D000F085
:1011500029FF03233B6003237B603B461946144869
:1011600003F02AF80346002B01D000F01BFF0423F4
:101170003B6004237B603B4619460D4803F01CF896
:101180000346002B01D000F00DFF0C233B6005232C
:101190007B603B461946064803F00EF80346002BD9
:1011A00001D000F0FFFE00BF1837BD4680BD00BF74
:1011B000D40000200001005080B58AB000AF07F1D4
:1011C0001C0300221A605A609A603B1D00221A60BC
:1011D0005A609A60DA601A615A612D4B2D4A1A6082
:1011E0002B4B00225A602A4B00229A60284B002287
:1011F0001A61274B00225A76254B002283F82020C3
:10120000234B0022DA62224B01229A62204B0022F9
:10121000DA601F4B0122DA611D4B002283F8302077
:101220001B4B04225A611A4B00221A76184B0022DB
:101230005A63174801F086FE0346002B01D000F0E8
:10124000B1FE0023FB6107F11C031946104803F0AF
:101250009DFA0346002B01D000F0A4FE01237B6021
:101260000123BB6000233B610223FB6000237B6101
:101270000023BB613B1D1946054802F09DFF034654
:10128000002B01D000F08EFE00BF2837BD4680BD88
:10129000240100200004005080B500AF1B4B1C4A05
:1012A0001A601A4B1B4A5A60184B24229A60174B3B
:1012B0000122DA60154B00221A61144B00225A6198
:1012C000124B00229A61114B0022DA610F4B00226F
:1012D0001A620E4804F056FA0346002B01D000F0C3
:1012E00061FE0021094805F05BFB0346002B01D09D
:1012F00000F058FE0021054805F09DFB0346002B39
:1013000001D000F04FFE00BF80BD00BFB80100203B
:10131000005400400E09002080B586B000AF3B1D90
:1013200000221A605A609A60DA601A6100233B60FA
:10133000244B254A1A60234B00225A60214B7F22FE
:101340009A60204B40F23712DA601E4B00221A617D
:101350001C4B00225A611B4B00229A61194806F06F
:10136000DBFF0346002B01D000F01CFE09233B717C
:1013700000237B710023BB7100233B6100237B6151
:101380003B1D012219460F4807F049F80346002B80
:1013900001D000F007FE01233B7006237B70012380
:1013A000BB700023FB703B4601221946054807F03D
:1013B0002EF90346002B01D000F0F4FD00BF1837D2
:1013C000BD4680BD0C0200200028004080B59AB0C8
:1013D00000AF07F1580300221A605A609A60DA6081
:1013E00007F14C0300221A605A609A6007F130033B
:1013F00000221A605A609A60DA601A615A619A6132
:101400003B1D2C22002118460AF0B2FC494B4A4AE7
:101410001A60484B00225A60464B00229A60454BA6
:101420004FF4FA62DA60434B00221A61414B00220A
:101430005A61404B80229A613E4807F079FA034690
:10144000002B01D000F0AEFD4FF48053BB6507F1D7
:1014500058031946374808F02DF90346002B01D0F0
:1014600000F0A0FD334807F0BAFA0346002B01D084
:1014700000F098FD0023FB6400233B6500237B659F
:1014800007F14C0319462B4809F0A0F80346002B3E
:1014900001D000F087FD60233B6301237B630023C1
:1014A000BB630023FB6304233B6400237B640023B2
:1014B000BB6407F13003002219461E4807F0E6FF1F
:1014C0000346002B01D000F06DFD07F1300304222C
:1014D0001946184807F0DAFF0346002B01D000F048
:1014E00061FD00237B600023BB600023FB6064235D
:1014F0003B6100237B614FF40053BB610023FB6120
:1015000000233B624FF000737B620023BB62002329
:10151000FB623B1D1946074809F0D8F80346002B2B
:1015200001D000F03FFD034801F09AF900BF683791
:10153000BD4680BD2C020020002C014080B58CB03F
:1015400000AF07F1200300221A605A609A60DA6047
:1015500007F1140300221A605A609A603B1D0022B2
:101560001A605A609A60DA60334B4FF080421A601A
:10157000314B00225A60304B00229A602E4B2F4A8A
:10158000DA602D4B00221A612B4B00229A612A4807
:1015900007F0CEF90346002B01D000F003FD4FF415
:1015A00080533B6207F120031946234808F082F874
:1015B0000346002B01D000F0F5FC1F4807F006FCA5
:1015C0000346002B01D000F0EDFC00237B610023DB
:1015D000FB6107F114031946174808F0F7FF0346AB
:1015E000002B01D000F0DEFC00237B600123BB60F8
:1015F0000023FB600C233B613B1D002219460E4873
:1016000007F0A7FE0346002B01D000F0CBFC02231D
:101610007B600223BB6000233B613B1D0422194613
:10162000054807F096FE0346002B01D000F0BAFCF7
:1016300000BF3037BD4680BD780200200090D00347
:1016400080B59AB000AF07F1580300221A605A60C3
:101650009A60DA6007F14C0300221A605A609A60BF
:1016600007F1300300221A605A609A60DA601A614A
:101670005A619A613B1D2C22002118460AF078FB22
:10168000434B444A1A60424B00225A60404B0022AE
:101690009A603F4B4FF4FA62DA603D4B00221A61C8
:1016A0003B4B00225A613A4B80229A61384807F03E
:1016B0003FF90346002B01D000F074FC4FF4805337
:1016C000BB6507F158031946314807F0F3FF03469D
:1016D000002B01D000F066FC2D4807F080F903468E
:1016E000002B01D000F05EFC0023FB6400233B656F
:1016F00000237B6507F14C031946254808F066FF77
:101700000346002B01D000F04DFC60233B63012316
:101710007B630023BB630023FB6300233B64002344
:101720007B640023BB6407F130030022194618488C
:1017300007F0ACFE0346002B01D000F033FC002381
:101740007B600023BB600023FB6064233B610023BC
:101750007B614FF40053BB610023FB6100233B62BC
:101760004FF000737B620023BB620023FB623B1DD2
:101770001946074808F0AAFF0346002B01D000F0E5
:1017800011FC034801F06CF800BF6837BD4680BD0E
:10179000C40200200034014080B59AB000AF07F1C8
:1017A000580300221A605A609A60DA6007F14C030D
:1017B00000221A605A609A6007F1300300221A6012
:1017C0005A609A60DA601A615A619A613B1D2C2254
:1017D000002118460AF0CCFA3F4B404A1A603E4BB3
:1017E00000225A603C4B00229A603B4B4FF4FA6255
:1017F000DA60394B00221A61374B00225A61364BAE
:1018000080229A61344807F093F80346002B01D0F8
:1018100000F0C8FB4FF48053BB6507F1580319462D
:101820002D4807F047FF0346002B01D000F0BAFB1C
:10183000294807F0D4F80346002B01D000F0B2FB92
:101840000023FB6400237B6507F14C031946224803
:1018500008F0BCFE0346002B01D000F0A3FB602380
:101860003B6301237B630023BB630023FB630023F3
:101870003B6400237B640023BB6407F13003002238
:101880001946154807F002FE0346002B01D000F070
:1018900089FB00237B600023BB600023FB60642383
:1018A0003B6100237B614FF40053BB610023FB616C
:1018B0000023FB623B1D1946074808F007FF03465B
:1018C000002B01D000F06EFB034800F0C9FF00BF01
:1018D0006837BD4680BD00BF1003002000400140B6
:1018E00080B500AF144B154A1A60134B4FF41652D3
:1018F0005A60114B00229A600F4B0022DA600E4BA7
:1019000000221A610C4B0C225A610B4B00229A6187
:10191000094B0022DA61084B00221A62064B0022B2
:101920005A62054808F093FF0346002B01D000F0EF
:1019300039FB00BF80BD00BF5C03002000380140C0
:1019400080B500AF144B154A1A60134B4FF4613247
:101950005A60114B00229A600F4B0022DA600E4B46
:1019600000221A610C4B0C225A610B4B00229A6127
:10197000094B0022DA61084B00221A62064B002252
:101980005A62054808F063FF0346002B01D000F0BF
:1019900009FB00BF80BD00BFE403002000440040FD
:1019A00080B582B000AF1A4B5B69194A43F001035E
:1019B0005361174B5B6903F001037B607B68144B39
:1019C0005B69134A43F002035361114B5B6903F0F7
:1019D00002033B603B6800220021102003F089FADB
:1019E000102003F0A2FA00220021112003F081FA56
:1019F000112003F09AFA00220421382003F079FA2A
:101A0000382003F092FA00BF0837BD4680BD00BF02
:101A10000010024080B58AB000AF07F11403002225
:101A20001A605A609A60DA601A61644B5B69634AB3
:101A300043F400235361614B5B6903F400233B6172
:101A40003B695E4B5B695D4A43F4800353615B4BCA
:101A50005B6903F48003FB60FB68584B5B69574A82
:101A600043F400335361554B5B6903F40033BB60AF
:101A7000BB68524B5B69514A43F4802353614F4B1F
:101A80005B6903F480237B607B6800224FF4004194
:101A90004B4803F02DFE002203214A4803F028FEA4
:101AA00000224FF47051484803F022FE00224FF408
:101AB00080614FF0904003F01BFE4FF4C0437B6108
:101AC0004FF44413BB610023FB6107F11403194673
:101AD0003B4803F07BFC4FF400437B610123BB6177
:101AE0000023FB6100233B6207F1140319463448CD
:101AF00003F06CFC03237B610123BB610023FB61CA
:101B000000233B6207F1140319462E4803F05EFCE4
:101B100002237B614FF44413BB610023FB6107F197
:101B2000140319464FF0904003F050FC4FF47053EB
:101B30007B610123BB610023FB6100233B6207F152
:101B400014031946204803F041FC4FF480637B6185
:101B50000123BB610023FB6100233B6207F11403F7
:101B600019464FF0904003F031FC20237B614FF485
:101B70008813BB610023FB6107F114031946124867
:101B800003F024FC00220021072003F0B2F9072013
:101B900003F0CBF900220021172003F0AAF9172047
:101BA00003F0C3F900220321282003F0A2F9282022
:101BB00003F0BBF900BF2837BD4680BD00100240CE
:101BC00000080048001400480004004880B582B0B6
:101BD00000AF78607B681B68B3F1804F73D17B687E
:101BE0001B7F012B46D10021394807F059F8042109
:101BF000374807F055F80021364807F051F8002122
:101C0000354807F04DF8354B00221A604FF08043FD
:101C100000225A620021324807F016FE03461A4697
:101C20002E4B1A6004212E4807F00EFE03469AB28E
:101C30002C4B1A80294B1B682B4A92FBF3F39AB268
:101C40002A4B1A80254B1B68294A92FBF3F39AB260
:101C5000284B1A8000211E4808F0A6FB04211C48CE
:101C600008F0A2FB00211B4808F09EFB00211A4847
:101C700008F09AFB7B681B7F022B24D100211448BB
:101C800008F046FC0421124808F042FC00211148EB
:101C900008F03EFC0021104808F03AFC4FF40041E7
:101CA000154803F03DFD0021094806F0F9FE042126
:101CB000074806F0F5FE0021064806F0F1FE002177
:101CC000054806F0EDFE00BF0837BD4680BD00BFE9
:101CD0002C020020C4020020100300201005002068
:101CE000780200201405002000389C1C16050020F6
:101CF0000048E801180500200008004880B582B0BF
:101D000000AF0346FB80FB88B3F5005F49D14FF479
:101D100000417C4803F004FD4FF40051794803F082
:101D2000CFFC0346002B3CD1774B1B88764B1B889E
:101D30009BB2132B1CD8754B1B78002B18D100229B
:101D40007349744806F005FC00227349714806F097
:101D5000E2FC6F4B1A78714B1A706D4B5A78704BCE
:101D60001A706B4B9A786F4B1A70684B01221A707D
:101D7000654B1B889BB20A339AB2634B1A80624B45
:101D80001B889BB240F2CE72934203D95E4B4FF454
:101D9000FA621A80644B04221A70644B4FF40052AA
:101DA0005A61FB88B3F5804F49D14FF480415548C3
:101DB00003F086FC0346012B04D14FF40041514847
:101DC00003F0AEFC4FF480414E4803F079FC03462B
:101DD000002B34D14C4B1B889BB2002B0FD14B4BAB
:101DE0001B78012B0BD1494B00221A704B4B002260
:101DF0001A704B4B00221A704A4B00221A70424B49
:101E00001B889BB20A3B9AB23F4B1A803E4B1B8801
:101E10009BB240F63302934202D93B4B00221A8018
:101E2000394B1B889BB2012B02D8374B00221A80FA
:101E30003D4B04221A703D4B4FF480425A61FB889F
:101E4000202B5AD120213A4803F03AFC0346012BBB
:101E50002AD100220221374803F04AFC01F024F87D
:101E60000246354B1B68D31A40F6B732934218D955
:101E7000324B1B7883F00103DBB2002B02D0304BD6
:101E800001221A702D4B1B78002B14BF0123002355
:101E9000DBB283F00103DBB203F00103DAB2274BBC
:101EA0001A70224B20225A612021214803F008FC9D
:101EB0000346002B21D1012202211E4803F018FC09
:101EC000204B01221A70204B1B780133DAB21E4BD3
:101ED0001A701D4B1B78022B02D91B4B00221A7063
:101EE00000F0E2FF0346144A1360104B20225A61AF
:101EF00000F0DAFF0346104A136000BF0837BD4602
:101F000080BD00BF000800480A0500204F050020E2
:101F1000D00600200C020020E40600204D05002021
:101F20004C0500204E0500200C0500200004014057
:101F30000004004800140048CC06002006050020DC
:101F400007050020490500204805002080B582B023
:101F500000AF786000224FF480614FF0904003F0B2
:101F6000C7FB00BF0837BD4680BD000080B582B00A
:101F700000AF78607B681B68074A934207D1074B24
:101F800001221A704FF40041054803F0C9FB00BF5D
:101F90000837BD4680BD00BF000100500D05002080
:101FA0000008004880B400AF72B600BFFEE780B4FE
:101FB00087B000AF78600B46FB704FF6FF737B6114
:101FC0000023FB7423E0FB7C7A6813441B781A46D9
:101FD0007B6953407B610123BB7412E07B6903F092
:101FE0000103BB607B695B087B61BB68002B05D08C
:101FF0007B6983F4204383F001037B61BB7C013365
:10200000BB74BB7C082BE9D9FB7C0133FB74FA7CE5
:10201000FB789A42D7D37B691B0AFB607B691B0262
:10202000FA6813437B617B699BB27B617B699BB2DE
:1020300018461C37BD465DF8047B704780B586B0F6
:1020400000AFF860B9601346FB71FB791946B868B8
:10205000FFF7ADFF0346FB82FB790133BA681344F7
:10206000FA8AD2B21A70FB8A1B0A99B2FB79BA6853
:102070001344CAB21A7001224FF480614FF09040AD
:1020800003F036FBFB799BB202339BB21A46B96868
:10209000F86808F02BFC00220221044803F028FB1A
:1020A00000BF18461837BD4680BD00BF0014004869
:1020B00080B586B000AF78603960394B9B781B02E1
:1020C0001AB2374BDB781BB213431BB2FB82344B83
:1020D0001B791B021AB2324B5B791BB213431BB242
:1020E0007B81FB8AA3F5EA43313BFB82FA8A7B8939
:1020F00013449BB2013B3B817B897D2B05D9032196
:10210000786800F04BF9002345E03B891E2B05D988
:102110000221786800F042F900233CE0214B1A7854
:10212000214B1A701E4B5A781F4B5A707B89DBB2B9
:102130005B00DAB21C4B9A7003233B610023FB6007
:102140001DE0FB8A5B003A6813441B881B0A99B2A6
:102150003B695A1C3A61C9B2134AD154FB8A5B00ED
:102160003A68134419883B695A1C3A61C9B20E4A4D
:10217000D154FB8A0133FB82FB680133FB607B890E
:10218000FA689A42DDDB3B69DBB21A460649786899
:10219000FFF754FF012318461837BD4680BD00BF26
:1021A000500500200B0000206C05002080B586B093
:1021B00000AF78603960364B9B781B021AB2344B03
:1021C000DB781BB213431BB2FB82314B1B791B0222
:1021D0001AB22F4B5B791BB213431BB27B81FA8A75
:1021E0007B8913449BB2013B3B817B897D2B05D9C5
:1021F0000321786800F0D2F8002345E03B891E2BCC
:1022000005D90221786800F0C9F800233CE0214B91
:102210001A78214B1A701E4B5A781F4B5A707B89C3
:10222000DBB25B00DAB21C4B9A7003233B610023E4
:10223000FB601DE0FB8A5B003A6813441B881B0AA5
:1022400099B23B695A1C3A61C9B2134AD154FB8A0C
:102250005B003A68134419883B695A1C3A61C9B259
:102260000D4AD154FB8A0133FB82FB680133FB60CA
:102270007B89FA689A42DDDB3B69DBB21A46064984
:102280007868FFF7DBFE012318461837BD4680BD8E
:10229000500500200B0000206C05002080B586B0A2
:1022A00000AF786039603A4B9B781B021AB2384B0A
:1022B000DB781BB213431BB2FB82354B1B791B022D
:1022C0001AB2334B5B791BB213431BB27B817B8900
:1022D000002B02D07B897B2B05D90321786800F085
:1022E0005DF800234FE0FA8A7B8913449BB2013BDF
:1022F0003B813B891E2B05D90221786800F04EF8FE
:10230000002340E007233B610023FB6019E03B69A9
:102310005A1C3A611E4AD35C1B021AB23B69591C13
:1023200039611B49CB5C1BB2134319B2FB8A5A1C9F
:10233000FA825B003A6813448AB21A80FB68013360
:10234000FB607B89FA689A42E1DB124B1A78124BE8
:102350001A700F4B5A78104B5A700D4B9A780E4BDF
:102360009A700B4BDA780C4BDA70094B1A790A4BDE
:102370001A71074B5A79084B5A7106220649786838
:10238000FFF75CFE012318461837BD4680BD00BF2D
:10239000500500200B0000206C05002080B582B0A5
:1023A00000AF78600B46FB700B4B1A780B4B1A7022
:1023B000094B5B7863F07F03DAB2084B5A70074A27
:1023C000FB789370032205497868FFF737FE0346D0
:1023D00018460837BD4680BD500500206C0500201A
:1023E00080B582B000AF124B9B69114A43F00103E4
:1023F00093610F4B9B6903F001037B607B680C4B7F
:10240000DB690B4A43F08053D361094BDB6903F06E
:1024100080533B603B6800220021052002F069FDEB
:10242000052002F082FD00BF0837BD4680BD00BF19
:102430000010024080B58EB000AF786007F1240331
:1024400000221A605A609A60DA601A617B681B6821
:10245000B3F1A04F36D1704B1B6801336E4A136045
:102460006D4B1B68012B0BD16C4B5B696B4A43F0C6
:1024700080535361694B5B6903F080533B623B6A55
:10248000664B5B69654A43F400335361634B5B6998
:1024900003F40033FB61FB6908237B620323BB6207
:1024A0000023FB6207F1240319464FF0904002F02D
:1024B0008DFF00220021122002F01BFD122002F0ED
:1024C00034FDA4E07B681B68554A934276D1524B99
:1024D0001B680133504A13604F4B1B68012B0BD113
:1024E0004E4B5B694D4A43F0805353614B4B5B69E4
:1024F00003F08053BB61BB69484B5B69474A43F4B7
:1025000000335361454B5B6903F400337B617B69A6
:10251000424B5B69414A43F4802353613F4B5B6903
:1025200003F480233B613B69F0237B620323BB629E
:102530000023FB6207F1240319464FF0904002F09C
:1025400045FF04237B620323BB620023FB6207F188
:1025500024031946334802F039FF334B334A1A60DB
:10256000314B00225A60304B00229A602E4B802261
:10257000DA602D4B4FF480721A612B4B4FF480625E
:102580005A61294B00229A61274B0022DA612648C2
:1025900002F0E5FC0346002B01D0FFF703FD7B684A
:1025A000214A9A63204A7B6853620022002112204C
:1025B00002F09FFC122002F0B8FC28E07B681B6848
:1025C0001B4A934223D1154B5B69144A43F00053D5
:1025D0005361124B5B6903F00053FB60FB680F4BC8
:1025E0005B690E4A43F4802353610C4B5B6903F42F
:1025F0008023BB60BB6803237B620323BB62002391
:10260000FB6207F124031946064802F0DFFE00BF13
:102610003837BD4680BD00BFE806002000100240EC
:10262000000100500004004874010020080402402A
:102630000004005080B58AB000AF786007F1140341
:1026400000221A605A609A60DA601A617B681B681F
:102650001F4A934238D11F4B5B691E4A43F48023C3
:1026600053611C4B5B6903F480233B613B694FF46E
:1026700040737B611223BB610023FB6103233B6238
:1026800004237B6207F114031946134802F09EFEEF
:10269000104BDB690F4A43F40013D3610D4BDB6928
:1026A00003F40013FB60FB68002200211F2002F0EE
:1026B00020FC1F2002F039FC00220021202002F023
:1026C00018FC202002F031FC00BF2837BD4680BD39
:1026D00000540040001002400004004880B485B05F
:1026E00000AF78607B681B680D4A934211D14FF4AC
:1026F0000043FB60FB6893FAA3F3BB60BB68B3FACB
:1027000083F3DBB21A46074B13449B001A4601239E
:10271000136000BF1437BD465DF8047B704700BFEF
:10272000002800400081901080B58CB000AF786028
:1027300007F11C0300221A605A609A60DA601A617D
:102740007B681B68424A934214D1424B9B69414AC1
:1027500043F4006393613F4B9B6903F40063BB61E7
:10276000BB6900220021182002F0C3FB182002F0F0
:10277000DCFB69E07B681B68B3F1804F31D1354BDE
:10278000DB69344A43F00103D361324BDB6903F068
:1027900001037B617B692F4B5B692E4A43F4003355
:1027A00053612C4B5B6903F400333B613B690123AC
:1027B000FB6102233B6200237B620023BB62012397
:1027C000FB6207F11C0319464FF0904002F0FEFD3A
:1027D000002200211C2002F08CFB1C2002F0A5FB33
:1027E00032E07B681B681C4A934214D1194B9B69E9
:1027F000184A43F400539361164B9B6903F400534A
:10280000FB60FB68002200212B2002F072FB2B20D2
:1028100002F08BFB18E07B681B68104A934213D1CF
:102820000C4B9B690B4A43F480339361094B9B69C2
:1028300003F48033BB60BB6800220021182002F043
:1028400058FB182002F071FB00BF3037BD4680BD39
:10285000002C0140001002400034014000400140C3
:1028600080B58CB000AF786007F11C0300221A60BD
:102870005A609A60DA601A617B681B684C4A93421E
:102880001ED14C4B5B694B4A43F400335361494BB7
:102890005B6903F40033BB61BB694FF4D853FB6140
:1028A00002233B6200237B620023BB620623FB62A0
:1028B00007F11C0319464FF0904002F087FD72E0CB
:1028C0007B681B683C4A93423AD13A4B5B69394A70
:1028D00043F400335361374B5B6903F400337B618E
:1028E0007B69344B5B69334A43F480235361314B3A
:1028F0005B6903F480233B613B694FF40043FB6158
:1029000002233B6200237B620023BB620223FB6243
:1029100007F11C0319464FF0904002F057FD0823C1
:10292000FB6102233B6200237B620023BB62042322
:10293000FB6207F11C031946204802F047FD32E014
:102940007B681B681E4A93422DD11A4B5B69194A5A
:1029500043F480235361174B5B6903F48023FB60CE
:10296000FB684FF48043FB6102233B6200237B62E0
:102970000023BB620123FB6207F11C0319460F48C9
:1029800002F024FD4FF40043FB6102233B6200236D
:102990007B620023BB620223FB6207F11C03194622
:1029A000064802F013FD00BF3037BD4680BD00BFB2
:1029B000002C014000100240003401400004004897
:1029C0000040014080B58CB000AF786007F11C0377
:1029D00000221A605A609A60DA601A617B681B688C
:1029E000674A934228D1674B9B69664A43F4804308
:1029F0009361644B9B6903F48043BB61BB69614B8A
:102A00005B69604A43F4802353615E4B5B6903F466
:102A100080237B617B69C023FB6102233B6200232F
:102A20007B620323BB620723FB6207F11C03194689
:102A3000554802F0CBFC9FE07B681B68534A9342E9
:102A400040F09A804F4BDB694E4A43F40033D36128
:102A50004C4BDB6903F400333B613B69494B5B69D9
:102A6000484A43F400335361464B5B6903F4003337
:102A7000FB60FB68434B5B69424A43F4802353612C
:102A8000404B5B6903F48023BB60BB680423FB619C
:102A900002233B6200237B620323BB620723FB62AA
:102AA00007F11C0319464FF0904002F08FFC1023F1
:102AB000FB6102233B6200237B620323BB6207238B
:102AC000FB6207F11C0319462F4802F07FFC304BD4
:102AD000304A1A602E4B10225A602D4B00229A6009
:102AE0002B4B8022DA602A4B00221A61284B0022ED
:102AF0005A61274B00229A61254B4FF48052DA61CC
:102B0000234802F02CFA0346002B01D0FFF74AFAC3
:102B10007B681F4A1A671E4A7B6853621E4B1F4A16
:102B20001A601D4B00225A601B4B00229A601A4B00
:102B30008022DA60184B00221A61174B00225A617A
:102B4000154B00229A61144B0022DA61124802F000
:102B500006FA0346002B01D0FFF724FA7B680E4AE1
:102B60005A670D4A7B68536200220221262002F038
:102B7000C0F9262002F0D9F900BF3037BD4680BD2C
:102B800000380140001002400004004800440040AA
:102B90006C04002080000240B00400206C00024061
:102BA00080B400AFFEE780B400AFFEE780B400AFB2
:102BB000FEE780B400AFFEE780B400AFFEE780B46C
:102BC00000AF00BFBD465DF8047B704780B400AF26
:102BD00000BFBD465DF8047B704780B400AF00BF06
:102BE000BD465DF8047B704780B500AF00F048F942
:102BF00000BF80BD80B400AF00BFBD465DF8047B60
:102C0000704780B500AF022002F0A4FD00BF80BD78
:102C100080B500AF024802F0BFFA00BF80BD00BF20
:102C2000B004002080B500AF024802F0B5FA00BF42
:102C300080BD00BF6C04002080B500AF034800F0E9
:102C40003BFF034800F038FF00BF80BD8400002038
:102C5000D400002080B500AF202002F07BFD00BF33
:102C600080BD000080B500AF034806F053FA03486A
:102C700006F050FA00BF80BD2C0200201003002097
:102C800080B500AF024806F045FA00BF80BD00BF26
:102C90007802002080B500AF024802F0F7FE00BFC6
:102CA00080BD00BFB801002080B500AF024802F02F
:102CB00007FF00BF80BD00BFB801002080B500AF96
:102CC000024807F08FFE00BF80BD00BFE403002074
:102CD00080B500AF4FF4005002F03CFD4FF480404F
:102CE00002F038FD00BF80BD80B500AF024806F09D
:102CF00011FA00BF80BD00BFC402002080B500AF44
:102D0000024802F049FA00BF80BD00BF74010020F4
:102D100080B586B000AF7860144A154BD31A7B613A
:102D20007B693B61134B1B68002B02D1114B124A8C
:102D30001A60104B1A687B6813443A699A4207D2AA
:102D400009F01EF803460C221A604FF0FF3309E029
:102D5000084B1B68FB60074B1A687B681344054AE5
:102D60001360FB6818461837BD4680BD00A00020E0
:102D700000040000EC0600204008002080B400AFF2
:102D8000064BD3F88830054A43F47003C2F8883004
:102D900000BFBD465DF8047B704700BF00ED00E05A
:102DA000DFF834D0FFF7EAFF0C480D490D4A002345
:102DB00002E0D458C4500433C4188C42F9D30A4AF0
:102DC0000A4C002301E013600432A242FBD308F056
:102DD000DDFFFDF705FDFEE700A00020000000205C
:102DE00068000020ACC70008680000203C080020F4
:102DF000FEE7000080B500AF084B1B68074A43F0B0
:102E000010031360032002F069F80F2000F008F8A7
:102E1000FFF7E6FA0023184680BD00BF00200240FD
:102E200080B582B000AF7860124B1A68124B1B78E5
:102E300019464FF47A73B3FBF1F3B2FBF3F3184680
:102E400002F081F80346002B01D001230EE07B68DD
:102E50000F2B0AD8002279684FF0FF3002F049F8B2
:102E6000064A7B681360002300E0012318460837F8
:102E7000BD4680BD0C000020140000201000002082
:102E800080B400AF064B1B781A46064B1B681344F0
:102E9000044A136000BFBD465DF8047B704700BF65
:102EA00014000020F006002080B400AF034B1B6824
:102EB0001846BD465DF8047B704700BFF006002051
:102EC00080B584B000AF7860FFF7EEFFB8607B6834
:102ED000FB60FB68B3F1FF3F05D00A4B1B781A4635
:102EE000FB681344FB6000BFFFF7DEFF0246BB68D0
:102EF000D31AFA689A42F7D800BF00BF1037BD4610
:102F000080BD00BF1400002080B483B000AF7860A3
:102F100000BF0C37BD465DF8047B704780B483B0BA
:102F200000AF786000BF0C37BD465DF8047B70478A
:102F300080B483B000AF786000BF0C37BD465DF849
:102F4000047B704780B59AB000AF7860002387F8A3
:102F5000673000233B660023BB607B68002B01D1F8
:102F60000123C9E17B681B69002B7B681B6C03F0A4
:102F70001003002B76D17B681B6C002B52D17B6831
:102F800000225A647B680022DA647B6800229A641B
:102F90007B68002283F83C207868FFF74BFA7B6857
:102FA0001B689B6803F08053002B3BD1786801F0CD
:102FB000A9FD034687F867307B681B6C03F010039C
:102FC000002B2FD197F86730002B2BD17B681B6C1F
:102FD00023F4885323F0020343F002027B681A644F
:102FE0007B681B689A687B681B6822F040529A6075
:102FF0007B681B689A687B681B6842F080529A6005
:10300000864B1B68864AA2FB03239A0C13469B003F
:1030100013445B00BB6002E0BB68013BBB60BB6864
:10302000002BF9D17B681B689B6803F08053002B51
:1030300007D07B681B689B6803F00053B3F1005F07
:1030400010D17B681B6C23F0120343F010027B68E5
:103050001A647B685B6C43F001027B685A6401234D
:1030600087F867307B681B6C03F01003002B40F07F
:10307000368197F86730002B40F031817B681B6800
:103080009B6803F00403002B40F029817B681B6CD4
:1030900023F4817343F002027B681A647B681B6827
:1030A000B3F1A04F04D07B681B685E4A934201D104
:1030B0005D4B00E05D4BFB657B681B68B3F1A04F87
:1030C00002D1584BFB601AE07B681B68554A93425B
:1030D00003D14FF0A043FB6011E07B681B68544AAA
:1030E000934202D1534BFB6009E07B681B68514A55
:1030F000934202D14E4BFB6001E00023FB607B68F2
:103100001B689B6803F00303012B08D17B681B68D5
:103110001B6803F00103012B01D1012300E0002310
:10312000002B1CD1FB68002B10D0FB689B6803F0C0
:103130000303012B07D1FB681B6803F00103012B7C
:1031400001D1012300E00023002B08D1FB6D9B6817
:1031500023F440327B685B681A43FB6D9A607B689E
:103160005B7E5B037A68526B012A02D04FF4805277
:1031700000E000221A437B68DB681A437B689B6887
:1031800013433A6E13433B667B6893F82030012B60
:103190001BD17B685B7E002B09D17B685B6A013B9E
:1031A0005A043B6E134343F480333B660DE07B6867
:1031B0001B6C23F0220343F020027B681A647B68B7
:1031C0005B6C43F001027B685A647B689B6A012B4D
:1031D0003AD07B681B68164A934204D07B681B6810
:1031E000144A934228D17B689B6AB3F5307F12D092
:1031F0007B689B6AB3F5807F0AD07B689B6AB3F5D6
:10320000E07F02D07B689B6A18E04FF4807315E082
:103210004FF4307312E04FF4E0730FE00C00002025
:1032200083DE1B43000100500003005000070050E4
:1032300000040050000500507B689B6A7A68D26ADF
:1032400013433A6E13433B667B681B689B6803F02D
:103250000C03002B14D17B681B68DB687A6812684A
:1032600023F4804323F00203D3607B681B7E9A0320
:103270007B6893F830305B0013433A6E13433B6630
:103280007B681B68DA681E4B13407A681268396ED7
:103290000B43D3607B681B69012B0CD17B681B68D7
:1032A0001B6B23F00F017B68DB695A1E7B681B6870
:1032B0000A431A6307E07B681B681A6B7B681B680C
:1032C00022F00F021A637B6800225A647B681B6C31
:1032D00023F0030343F001027B681A640AE07B6871
:1032E0001B6C23F0120343F010027B681A64012365
:1032F00087F8673097F8673018466837BD4680BD55
:1033000007C0F0FF80B584B000AF78600023FB7386
:103310007B681B689B6803F00403002B40F0F98076
:103320007B6893F83C30012B01D10223F4E07B68E9
:10333000012283F83C20786801F080FB0346FB7390
:10334000FB7B002B40F0E0807B681B6C23F47063F8
:1033500023F0010343F480727B681A647B681B6866
:10336000B3F1A04F04D07B681B686D4A934206D12D
:103370006C4B9B6803F01F03002B10D005E06A4BD9
:103380009B6803F01F03002B09D07B681B68B3F117
:10339000A04F04D07B681B68644A934215D17B68B8
:1033A0001B6C23F480127B681A647B681B68DB68E3
:1033B00003F00073002B36D07B681B6C23F4405362
:1033C00043F480527B681A642DE07B681B6C43F4E5
:1033D00080127B681A647B681B68B3F1A04F04D02D
:1033E0007B681B684E4A93420AD14FF0A043DB68CA
:1033F00003F00073002B14BF01230023DBB208E0AD
:103400004A4BDB6803F00073002B14BF0123002339
:10341000DBB2002B07D07B681B6C23F4405343F4D2
:1034200080527B681A647B681B6C03F48053B3F58D
:10343000805F06D17B685B6C23F006027B685A6470
:1034400002E07B6800225A647B68002283F83C20FB
:103450007B681B681C221A607B681B68B3F1A04F55
:1034600004D07B681B682E4A934206D12D4B9B6883
:1034700003F01F03002B3ED005E02B4B9B6803F0AD
:103480001F03002B37D07B681B68B3F1A04F04D01B
:103490007B681B68224A934206D1224B9B6803F04B
:1034A0001F03052B27D005E01F4B9B6803F01F036C
:1034B000052B20D07B681B68B3F1A04F04D07B683C
:1034C0001B68174A934206D1164B9B6803F01F03F3
:1034D000092B10D005E0144B9B6803F01F03092B48
:1034E00009D07B681B68B3F1A04F04D07B681B68D0
:1034F0000E4A93420FD17B681B689A687B681B68F1
:1035000042F004029A6006E07B68002283F83C20C7
:1035100001E00223FB73FB7B18461037BD4680BDDC
:10352000000100500003005000070050000400504C
:1035300080B584B000AF78600023FB737B6893F89C
:103540003C30012B01D1022323E07B68012283F868
:103550003C206C21786801F03BFB0346FB73FB7B4E
:10356000002B11D1786801F0CDFA0346FB73FB7B89
:10357000002B09D17B681B6C23F4885323F00103D3
:1035800043F001027B681A647B68002283F83C20C8
:10359000FB7B18461037BD4680BD000080B586B065
:1035A00000AF7860396000233B617B685B69082B62
:1035B00002D108237B613AE07B681B68B3F1A04F1E
:1035C00004D07B681B68724A934201D1714B00E0C2
:1035D000714BFB60FB689B6803F01F03002B12D14B
:1035E0007B681B68DB6803F00103012B1DD17B683E
:1035F0001B6C43F020027B681A647B68002283F80E
:103600003C200123BFE0FB689B6803F44043002B90
:103610000BD07B681B6C43F020027B681A647B68CC
:10362000002283F83C200123ADE00C237B617B6802
:103630001B68B3F1A04F04D07B681B68544A9342C7
:1036400006D1544B9B6803F01F03002B10D005E0FC
:10365000514B9B6803F01F03002B09D07B681B684C
:10366000B3F1A04F04D07B681B684C4A934204D14D
:103670007B681B68DB683B610FE07B681B68B3F10C
:10368000A04F04D07B681B68414A934202D14FF09F
:10369000A04300E0414BDB683B61FFF705FCB860ED
:1036A00021E03B68B3F1FF3F1DD03B68002B07D002
:1036B000FFF7FAFB0246BB68D31A3A689A4212D265
:1036C0007B681B681A687B691340002B0BD17B68F1
:1036D0001B6C43F004027B681A647B68002283F849
:1036E0003C2003234FE07B681B681A687B6913400A
:1036F000002BD6D07B681B6C43F400727B681A6485
:103700007B681B68DB6803F44063002B31D13B69A5
:1037100003F40053002B2CD17B681B681B6803F05B
:103720000803082B25D17B681B689B6803F0040302
:10373000002B12D17B681B6C23F480727B681A64A7
:103740007B681B6C03F48053002B12D17B681B6CCD
:1037500043F001027B681A640BE07B681B6C43F04A
:1037600020027B681A647B685B6C43F001027B6813
:103770005A643B6903F48043002B03D17B681B68C8
:103780007A691A60002318461837BD4680BD00BF0D
:1037900000010050000300500007005000040050DA
:1037A00080B586B000AFF860B9607A600023FB7521
:1037B000FB681B689B6803F00403002B40F0F78054
:1037C000FB6893F83C30012B01D10223F2E0FB6847
:1037D000012283F83C20FB681B68B3F1A04F04D0A2
:1037E000FB681B68754A934209D1754B9B6803F0CF
:1037F0001F03002B0CBF01230023DBB208E0714B39
:103800009B6803F01F03002B0CBF01230023DBB2D6
:10381000002B00F0C580F86801F010F90346FB7535
:10382000FB7D002B40F0B780FB681B6C23F47063BA
:1038300023F0010343F48072FB681A64FB681B6881
:10384000B3F1A04F04D0FB681B685C4A934206D1D9
:103850005B4B9B6803F01F03002B10D005E0594B16
:103860009B6803F01F03002B09D0FB681B68B3F1B2
:10387000A04F04D0FB681B68534A934215D1FB68E4
:103880001B6C23F48012FB681A64FB681B68DB68FE
:1038900003F00073002B36D0FB681B6C23F44053FD
:1038A00043F48052FB681A642DE0FB681B6C43F400
:1038B0008012FB681A64FB681B68B3F1A04F04D048
:1038C000FB681B683D4A93420AD14FF0A043DB6876
:1038D00003F00073002B14BF01230023DBB208E0C8
:1038E000394BDB6803F00073002B14BF0123002366
:1038F000DBB2002B07D0FB681B6C23F4405343F46E
:103900008052FB681A64FB681B6C03F48053B3F5A8
:10391000805F06D1FB685B6C23F00602FB685A648B
:1039200002E0FB6800225A64FB68002283F83C2016
:10393000FB689B6B254A9A62FB689B6B244ADA62A0
:10394000FB689B6B234A1A63FB681B681C221A6086
:10395000FB681B685A68FB681B6842F010025A60DB
:10396000FB681B68DA68FB681B6842F00102DA60DA
:10397000FB68986BFB681B6840331946BA687B6824
:1039800001F034FBFB681B689A68FB681B6842F017
:1039900004029A600DE0FB68002283F83C2008E0F6
:1039A0000123FB75FB68002283F83C2001E0022321
:1039B000FB75FB7D18461837BD4680BD00010050E1
:1039C0000003005000070050000400507149000837
:1039D000EB490008074A000880B584B000AF786062
:1039E0000023FB737B6893F83C30012B01D1022349
:1039F00050E07B68012283F83C206C21786801F05C
:103A0000E7F80346FB73FB7B002B3ED17B681B680A
:103A1000DA687B681B6822F00102DA607B689B6BC6
:103A200093F82130022B0FD17B689B6B184601F075
:103A30003CFB0346FB73FB7B002B05D07B681B6CB8
:103A400043F040027B681A647B681B685A687B6895
:103A50001B6822F010025A60FB7B002B05D17868AE
:103A600001F050F80346FB7302E0786801F04AF871
:103A7000FB7B002B09D17B681B6C23F4885323F05C
:103A8000010343F001027B681A647B68002283F81B
:103A90003C20FB7B18461037BD4680BD80B483B008
:103AA00000AF78607B681B681B6C18460C37BD46FE
:103AB0005DF8047B7047000080B588B000AF786087
:103AC0000023FB610023BB6100237B617B681B68D3
:103AD0001B683B617B681B685B68FB603B6903F0AC
:103AE0000403002B04D0FB6803F00403002B0BD16C
:103AF0003B6903F00803002B00F0BC80FB6803F077
:103B00000803002B00F0B6807B681B6C03F01003E9
:103B1000002B05D17B681B6C43F400727B681A6430
:103B20007B681B68B3F1A04F04D07B681B68904A88
:103B3000934206D18F4B9B6803F01F03002B3ED0AE
:103B400005E08D4B9B6803F01F03002B37D07B688B
:103B50001B68B3F1A04F04D07B681B68844A934272
:103B600006D1844B9B6803F01F03052B27D005E08B
:103B7000814B9B6803F01F03052B20D07B681B68DB
:103B8000B3F1A04F04D07B681B68794A934206D1F9
:103B9000784B9B6803F01F03092B10D005E0764B90
:103BA0009B6803F01F03092B09D07B681B68B3F1E6
:103BB000A04F04D07B681B68704A934204D17B6895
:103BC0001B68DB68BB610FE07B681B68B3F1A04F2B
:103BD00004D07B681B68664A934202D14FF0A04331
:103BE00000E0664BDB68BB617B681B68DB6803F445
:103BF0004063002B37D1BB6903F40053002B32D153
:103C00003B6903F00803002B2DD07B681B689B6881
:103C100003F00403002B1AD17B681B685A687B6889
:103C20001B6822F00C025A607B681B6C23F48072C4
:103C30007B681A647B681B6C03F48053002B12D1E1
:103C40007B681B6C43F001027B681A640BE07B68A5
:103C50001B6C43F010027B681A647B685B6C43F05A
:103C600001027B685A647868FEF780F97B681B68FC
:103C70000C221A603B6903F02003002B04D0FB6880
:103C800003F02003002B0BD13B6903F04003002B12
:103C900000F03881FB6803F04003002B00F0328114
:103CA0007B681B6C43F400527B681A647B681B685A
:103CB000B3F1A04F04D07B681B682D4A934206D114
:103CC0002C4B9B6803F01F03002B3ED005E02A4BD2
:103CD0009B6803F01F03002B37D07B681B68B3F190
:103CE000A04F04D07B681B68214A934206D1214B28
:103CF0009B6803F01F03052B27D005E01E4B9B6834
:103D000003F01F03052B20D07B681B68B3F1A04F85
:103D100004D07B681B68164A934206D1154B9B68FA
:103D200003F01F03092B10D005E0134B9B6803F031
:103D30001F03092B09D07B681B68B3F1A04F04D087
:103D40007B681B680D4A934204D17B681B68DB6863
:103D5000BB6118E07B681B68B3F1A04F04D07B689F
:103D60001B68034A93420BD14FF0A04309E000BF08
:103D700000010050000300500007005000040050F4
:103D8000924BDB68BB617B681B68DB6C03F0C00394
:103D9000002B40F0B080BB6903F00073002B0DD006
:103DA0007B681B68DB6803F44063002B40F0A38052
:103DB000BB6903F40053002B40F09D803B6903F086
:103DC0004003002B00F097807B681B68B3F1A04F85
:103DD00004D07B681B687E4A934206D17D4B9B686A
:103DE00003F01F03002B3ED005E07B4B9B6803F0E4
:103DF0001F03002B37D07B681B68B3F1A04F04D0A2
:103E00007B681B68724A934206D1724B9B6803F031
:103E10001F03062B27D005E06F4B9B6803F01F03A1
:103E2000062B20D07B681B68B3F1A04F04D07B68C1
:103E30001B68674A934206D1664B9B6803F01F03D9
:103E4000072B10D005E0644B9B6803F01F03072B82
:103E500009D07B681B68B3F1A04F04D07B681B6856
:103E60005A4A934204D17B681B68DB687B610FE090
:103E70007B681B68B3F1A04F04D07B681B68544A71
:103E8000934202D14FF0A04300E0504BDB687B61CE
:103E90007B6903F40013002B2DD17B681B689B68A2
:103EA00003F00803002B1AD17B681B685A687B68F3
:103EB0001B6822F060025A607B681B6C23F48052FE
:103EC0007B681A647B681B6C03F48073002B12D12F
:103ED0007B681B6C43F001027B681A640BE07B6813
:103EE0001B6C43F010027B681A647B685B6C43F0C8
:103EF00001027B685A64786800F036F97B681B68B9
:103F000060221A603B6903F08003002B11D0FB682C
:103F100003F08003002B0CD07B681B6C43F48032D1
:103F20007B681A647868FEF7F9FF7B681B6880225B
:103F30001A603B6903F48073002B12D0FB6803F412
:103F40008073002B0DD07B681B6C43F400327B68C0
:103F50001A64786800F01CF97B681B684FF4807263
:103F60001A603B6903F40073002B12D0FB6803F462
:103F70000073002B0DD07B681B6C43F480227B68A0
:103F80001A64786800F00EF97B681B684FF40072C1
:103F90001A603B6903F01003002B4FD0FB6803F05D
:103FA0001003002B4AD07B685B6B012B02D10123ED
:103FB000FB612DE07B681B68B3F1A04F04D07B68E8
:103FC0001B68034A934209D1024B08E000040050E9
:103FD000000100500003005000070050284BBB6058
:103FE000BB689B6803F01F03002B09D17B681B682B
:103FF000DB6803F00103012B0AD10123FB6107E019
:10400000BB689B6803F44043002B01D00123FB6194
:10401000FB69012B0ED17B681B6C43F480627B68CB
:104020001A647B685B6C43F002027B685A647868B0
:10403000FEF77EFF7B681B6810221A603B6903F461
:104040008063002B18D0FB6803F48063002B13D02F
:104050007B681B6C43F480427B681A647B685B6CF2
:1040600043F008027B685A647B681B684FF48062E7
:104070001A60786800F082F800BF2037BD4680BD26
:104080000007005080B584B000AF7860396000232D
:10409000FB737B6893F83C30012B01D102235FE076
:1040A0007B68012283F83C20786800F02BFD0346F2
:1040B000FB73FB7B002B4ED17B6801221A647B686B
:1040C0001B689A687B681B6822F080429A603B6894
:1040D000012B07D17B681B689A687B681B6842F0DC
:1040E00080429A607B681B689A687B681B6842F014
:1040F00000429A60FEF7D8FEB8601CE0FEF7D4FEDE
:104100000246BB68D31A0A2B15D97B681B689B68CB
:1041100003F00043B3F1004F0DD17B681B6C23F01B
:10412000120343F010027B681A647B68002283F854
:104130003C20012314E07B681B689B6803F000436C
:10414000B3F1004FDAD07B681B6C23F0030343F01C
:1041500001027B681A647B68002283F83C20FB7BA9
:1041600018461037BD4680BD80B483B000AF78607C
:1041700000BF0C37BD465DF8047B704780B483B048
:1041800000AF786000BF0C37BD465DF8047B704718
:1041900080B483B000AF786000BF0C37BD465DF8D7
:1041A000047B704780B483B000AF786000BF0C37E9
:1041B000BD465DF8047B704780B49BB000AF78606B
:1041C0003960002387F867300023BB607B6893F871
:1041D0003C30012B01D10223C8E27B68012283F825
:1041E0003C207B681B689B6803F00403002B40F0B5
:1041F000AC823B685B68042B1CD87B681B68196B1E
:104200003B685A6813465B0013445B001A461F2341
:104210009340DB4319403B6818683B685A68134673
:104220005B0013445B0000FA03F27B681B680A43DF
:104230001A6363E03B685B68092B1ED87B681B68C8
:10424000596B3B685A6813465B0013445B001E3B86
:104250001F2202FA03F3DB4319403B6818683B68EE
:104260005A6813465B0013445B001E3B00FA03F2DE
:104270007B681B680A435A6340E03B685B680E2B0F
:104280001ED87B681B68996B3B685A6813465B00B5
:1042900013445B003C3B1F2202FA03F3DB4319404B
:1042A0003B6818683B685A6813465B0013445B0020
:1042B0003C3B00FA03F27B681B680A439A631DE0EB
:1042C0007B681B68D96B3B685A6813465B001344D4
:1042D0005B005A3B1F2202FA03F3DB4319403B68A1
:1042E00018683B685A6813465B0013445B005A3BEE
:1042F00000FA03F27B681B680A43DA637B681B6879
:104300009B6803F00C03002B40F0E5803B681B68C2
:10431000092B1CD97B681B6899693B681A6813468E
:104320005B0013441E3B072202FA03F3DB431940F0
:104330003B6898683B681A6813465B0013441E3B51
:1043400000FA03F27B681B680A439A6119E07B68F4
:104350001B6859693B681A6813465B0013440722BF
:1043600002FA03F3DB4319403B6898683B681A681C
:1043700013465B00134400FA03F27B681B680A4390
:104380005A613B685A697B681B68DB68DB0803F08D
:1043900003035B0002FA03F33B663B681B69013BC6
:1043A000032B4FD801A252F823F000BFBD430008F1
:1043B000DF43000801440008234400087B681B68B1
:1043C0001A6E994B13403A68126891063A6E0A4386
:1043D0001A437B681B6842F000421A667BE07B68E8
:1043E0001B685A6E904B13403A68126891063A6EF9
:1043F0000A431A437B681B6842F000425A666AE02F
:104400007B681B689A6E884B13403A681268910665
:104410003A6E0A431A437B681B6842F000429A6670
:1044200059E07B681B68DA6E7F4B13403A6812686C
:1044300091063A6E0A431A437B681B6842F00042B9
:10444000DA6648E07B681B681B6E03F0F8423B6845
:104450001B689B069A4207D17B681B681A6E7B68B3
:104460001B6822F000421A667B681B685B6E03F0D3
:10447000F8423B681B689B069A4207D17B681B6821
:104480005A6E7B681B6822F000425A667B681B6884
:104490009B6E03F0F8423B681B689B069A4207D16B
:1044A0007B681B689A6E7B681B6822F000429A66E4
:1044B0007B681B68DB6E03F0F8423B681B689B0659
:1044C0009A4207D17B681B68DA6E7B681B6822F012
:1044D0000042DA6600BF7B681B689B6803F0030339
:1044E000012B08D17B681B681B6803F00103012BBB
:1044F00001D1012300E00023002B40F031813B6813
:10450000DB68012B0FD07B681B68D3F8B0103B68C9
:104510001B68012202FA03F3DA437B681B680A4036
:10452000C3F8B02049E07B681B68D3F8B0103B6843
:104530001B6801229A407B681B680A43C3F8B020BD
:104540003B681B68092B1CD97B681B6899693B6811
:104550001A6813465B0013441B3B072202FA03F35D
:10456000DB4319403B6898683B681A6813465B0058
:1045700013441B3B00FA03F27B681B680A439A61F1
:104580001BE07B681B6859693B681B685A1C134613
:104590005B001344072202FA03F3DB4319403B6834
:1045A00098683B681B685A1C13465B00134400FA6A
:1045B00003F27B681B680A435A617B681B68B3F18E
:1045C000A04F04D07B681B68184A934201D1184B56
:1045D00000E0184BFB653B681B68102B05D1FB6D99
:1045E0009B6803F40003002B15D03B681B68112B5C
:1045F00005D1FB6D9B6803F08073002B0BD03B68EB
:104600001B68122B40F0AC80FB6D9B6803F48003A9
:10461000002B40F0A5807B681B68B3F1A04F0BD145
:10462000024BFB6023E000BF00F0FF83000100505D
:1046300000030050000700507B681B684E4A9342FD
:1046400003D14FF0A043FB6011E07B681B684B4A2D
:10465000934202D14A4BFB6009E07B681B68484AE1
:10466000934202D1454BFB6001E00023FB607B6875
:104670001B689B6803F00303012B08D17B681B6850
:104680001B6803F00103012B01D1012300E000238B
:10469000002B50D1FB68002B10D0FB689B6803F007
:1046A0000303012B07D1FB681B6803F00103012BF7
:1046B00001D1012300E00023002B3CD13B681B68A3
:1046C000102B1DD17B681B68B3F1A04F18D1FB6D77
:1046D0009B6843F40002FB6D9A602A4B1B682A4AD0
:1046E000A2FB03239A0C13469B0013445B00BB60A0
:1046F00002E0BB68013BBB60BB68002BF9D12EE038
:104700003B681B68112B0BD17B681B68B3F1A04F72
:1047100006D1FB6D9B6843F08072FB6D9A601EE0D2
:104720003B681B68122B1AD1FB6D9B6843F4800217
:10473000FB6D9A6013E07B681B6C43F020027B6882
:104740001A64012387F867300AE07B681B6C43F02A
:1047500020027B681A64012387F8673000E000BFFD
:104760007B68002283F83C2097F8673018466C3746
:10477000BD465DF8047B7047000100500004005006
:10478000000500500C00002083DE1B4380B499B06C
:1047900000AF78603960002387F85F307B681B6862
:1047A000B3F1A04F02D16D4BBB601AE07B681B6870
:1047B0006A4A934203D14FF0A043BB6011E07B688B
:1047C0001B68674A934202D1664BBB6009E07B6875
:1047D0001B68644A934202D1614BBB6001E0002335
:1047E000BB60BB68002B01D10123B0E07B6893F86C
:1047F0003C30012B01D10223A9E07B68012283F820
:104800003C207B681B689B6803F00403002B40F08E
:104810008D80BB689B6803F00403002B40F086800A
:104820007B681B68B3F1A04F04D07B681B684B4AC0
:10483000934201D14C4B00E04C4BBB653B681B687D
:10484000002B40D0BB6D9B6823F460423B685968E5
:104850007B6893F830305B030B431A43BB6D9A605F
:104860007B681B689B6803F00303012B08D17B68FE
:104870001B681B6803F00103012B01D1012300E039
:104880000023002B5CD1BB689B6803F00303012B62
:1048900007D1BB681B6803F00103012B01D1012381
:1048A00000E00023002B4BD1BB6D9B6823F47163A8
:1048B00023F00F033A6811683A6892680A431A4372
:1048C000BB6D9A603CE0BB6D9B6823F46042BB6D9E
:1048D0009A607B681B689B6803F00303012B08D177
:1048E0007B681B681B6803F00103012B01D10123C6
:1048F00000E00023002B23D1BB689B6803F0030377
:10490000012B07D1BB681B6803F00103012B01D108
:10491000012300E00023002B12D1BB6D9B6823F420
:10492000716323F00F03BA6D936009E07B681B6C21
:1049300043F020027B681A64012387F85F3000E0AF
:1049400000BF7B68002283F83C2097F85F30184650
:104950006437BD465DF8047B704700BF000100501E
:1049600000040050000500500003005000070050F4
:1049700080B584B000AF78607B685B6AFB60FB68E1
:104980001B6C03F05003002B26D1FB681B6C43F417
:104990000072FB681A64FB681B68DB6803F4406301
:1049A000002B15D1FB685B7E002B11D1FB681B6CC3
:1049B00023F48072FB681A64FB681B6C03F4805359
:1049C000002B05D1FB681B6C43F00102FB681A64E5
:1049D000F868FDF7CBFA04E0FB689B6B1B6B78680B
:1049E000984700BF1037BD4680BD80B584B000AF8A
:1049F00078607B685B6AFB60F868FEF785FA00BF49
:104A00001037BD4680BD80B584B000AF78607B684C
:104A10005B6AFB60FB681B6C43F04002FB681A6436
:104A2000FB685B6C43F00402FB685A64F868FEF7AD
:104A30007FFA00BF1037BD4680BD000080B584B04E
:104A400000AF78600023FB607B681B689B6803F005
:104A50000303012B08D17B681B681B6803F001036B
:104A6000012B01D1012300E00023002B43D17B68FF
:104A70001B689A68224B1340002B0DD07B681B6C7F
:104A800043F010027B681A647B685B6C43F00102A0
:104A90007B685A6401232FE07B681B689A687B68F7
:104AA0001B6842F001029A60FEF7FEF9F8601BE015
:104AB000FEF7FAF90246FB68D31A022B14D97B6879
:104AC0001B681B6803F00103012B0DD07B681B6C76
:104AD00043F010027B681A647B685B6C43F0010250
:104AE0007B685A64012307E07B681B681B6803F03E
:104AF0000103012BDCD1002318461037BD4680BDD1
:104B00003F00008080B584B000AF78600023FB6078
:104B10007B681B689B6803F00303012B08D17B684B
:104B20001B681B6803F00103012B01D1012300E086
:104B30000023002B47D07B681B689B6803F00D03A4
:104B4000012B0FD17B681B689A687B681B6842F059
:104B500002029A607B681B6803221A60FEF7A4F9C0
:104B6000F86029E07B681B6C43F010027B681A64D4
:104B70007B685B6C43F001027B685A64012323E08D
:104B8000FEF792F90246FB68D31A022B14D97B6810
:104B90001B689B6803F00103012B0DD17B681B6C24
:104BA00043F010027B681A647B685B6C43F001027F
:104BB0007B685A64012307E07B681B689B6803F0ED
:104BC0000103012BDCD0002318461037BD4680BD01
:104BD00080B586B000AF7860396000237B61002328
:104BE000FB6000233B617B681B689B6803F00C0340
:104BF000002B00F09B807B681B68DB6803F0007370
:104C0000B3F1007F2AD17B685B7E012B26D17B68C4
:104C10001B7E012B22D10C233B6014E03B69464AEA
:104C200093420DD97B681B6C43F010027B681A64B9
:104C30007B685B6C43F001027B685A64012376E079
:104C40003B6901333B617B681B681B6803F04003D1
:104C5000402BE3D17B681B6840221A603B68602BC5
:104C600015D07B681B689B6803F00403042B0ED1EE
:104C70007B681B689B6803F00203002B07D17B68ED
:104C80001B689A687B681B6842F010029A603B6858
:104C90000C2B15D07B681B689B6803F00803082B5E
:104CA0000ED17B681B689B6803F00203002B07D1C1
:104CB0007B681B689A687B681B6842F020029A60D8
:104CC0003B68602B05D03B686C2B05D10C237B61C6
:104CD00005E008237B6102E004237B6100BFFEF74F
:104CE000E3F8F8601BE0FEF7DFF80246FB68D31A32
:104CF0000B2B14D97B681B689A687B691340002BC7
:104D00000DD07B681B6C43F010027B681A647B68D3
:104D10005B6C43F001027B685A64012307E07B6807
:104D20001B689A687B691340002BDCD1002318466E
:104D30001837BD4680BD00BFFF93090080B485B021
:104D400000AF78607B6803F00703FB600C4BDB6807
:104D5000BB60BA684FF6FF031340BB60FB681A02E2
:104D6000BB68134343F0BF6343F40033BB60044AA2
:104D7000BB68D36000BF1437BD465DF8047B704745
:104D800000ED00E080B400AF044BDB681B0A03F0C9
:104D900007031846BD465DF8047B704700ED00E050
:104DA00080B483B000AF0346FB7197F90730002B46
:104DB0000BDBFB7903F01F02074997F907305B090A
:104DC000012000FA02F241F8232000BF0C37BD4653
:104DD0005DF8047B704700BF00E100E080B483B061
:104DE00000AF03463960FB7197F90730002B0ADBEF
:104DF0003B68DAB20C4997F907301201D2B20B4482
:104E000083F800230AE03B68DAB20849FB7903F033
:104E10000F03043B1201D2B20B441A7600BF0C37C9
:104E2000BD465DF8047B704700E100E000ED00E066
:104E300080B489B000AFF860B9607A60FB6803F0B5
:104E40000703FB61FB69C3F10703042B28BF04239D
:104E5000BB61FB690433062B02D9FB69033B00E00D
:104E600000237B614FF0FF32BB6902FA03F3DA43A0
:104E7000BB681A407B699A404FF0FF317B6901FAA9
:104E800003F3D9437B680B40134318462437BD46D0
:104E90005DF8047B7047000080B582B000AF786099
:104EA0007B68013BB3F1807F01D301230FE00A4A05
:104EB0007B68013B53600F214FF0FF30FFF78EFFFF
:104EC000054B00229A60044B07221A600023184603
:104ED0000837BD4680BD00BF10E000E080B582B05D
:104EE00000AF78607868FFF729FF00BF0837BD463C
:104EF00080BD80B586B000AF0346B9607A60FB73B1
:104F000000237B61FFF73EFF78617A68B9687869B2
:104F1000FFF78EFF024697F90F3011461846FFF74C
:104F20005DFF00BF1837BD4680BD80B582B000AFC1
:104F30000346FB7197F907301846FFF731FF00BFB2
:104F40000837BD4680BD80B582B000AF7860786814
:104F5000FFF7A2FF034618460837BD4680BD80B55F
:104F600084B000AF78600023FB607B68002B01D128
:104F7000012337E07B68022283F821207B681B68CD
:104F80001B68FB60FB6823F47F5323F03003FB6056
:104F90007B685A687B689B681A437B68DB681A43A6
:104FA0007B681B691A437B685B691A437B689B6952
:104FB0001A437B68DB691343FA681343FB607B6821
:104FC0001B68FA681A60786800F0C4F97B680022F0
:104FD0009A637B68012283F821207B68002283F892
:104FE0002020002318461037BD4680BD80B586B00E
:104FF00000AFF860B9607A603B600023FB75FB6826
:1050000093F82030012B01D102234AE0FB680122F2
:1050100083F82020FB6893F82130012B3AD1FB68FC
:10502000022283F82120FB6800229A63FB681B6838
:105030001A68FB681B6822F001021A603B687A68F4
:10504000B968F86800F058F9FB68DB6A002B08D0F3
:10505000FB681B681A68FB681B6842F00E021A6046
:105060000FE0FB681B681A68FB681B6842F00A02C5
:105070001A60FB681B681A68FB681B6822F0040250
:105080001A60FB681B681A68FB681B6842F0010223
:105090001A6005E0FB68002283F820200223FB75DC
:1050A000FB7D18461837BD4680BD80B483B000AF85
:1050B00078607B6893F82130022B08D07B6804224B
:1050C0009A637B68002283F82020012320E07B681C
:1050D0001B681A687B681B6822F00E021A607B68E6
:1050E0001B681A687B681B6822F001021A607B68E3
:1050F0001A6C7B68DB6B012101FA02F25A607B6853
:10510000012283F821207B68002283F820200023DD
:1051100018460C37BD465DF8047B704780B584B0F7
:1051200000AF78600023FB737B6893F82130022B7B
:1051300005D07B6804229A630123FB7327E07B6818
:105140001B681A687B681B6822F00E021A607B6875
:105150001B681A687B681B6822F001021A607B6872
:105160001A6C7B68DB6B012101FA02F25A607B68E2
:10517000012283F821207B68002283F820207B68AD
:105180005B6B002B03D07B685B6B78689847FB7B7D
:1051900018461037BD4680BD80B584B000AF78603A
:1051A0007B68DB6B1B68FB607B681B681B68BB60F4
:1051B0007B681B6C04229A40FB681340002B24D0B0
:1051C000BB6803F00403002B1FD07B681B681B68BF
:1051D00003F02003002B07D17B681B681A687B68EB
:1051E0001B6822F004021A607B681A6C7B68DB6B18
:1051F000042101FA02F25A607B68DB6A002B6AD054
:105200007B68DB6A7868984765E07B681B6C0222E4
:105210009A40FB681340002B2CD0BB6803F00203BC
:10522000002B27D07B681B681B6803F02003002B32
:105230000BD17B681B681A687B681B6822F00A0226
:105240001A607B68012283F821207B681A6C7B68D6
:10525000DB6B022101FA02F25A607B68002283F8BC
:1052600020207B689B6A002B35D07B689B6A78681E
:10527000984730E07B681B6C08229A40FB6813401B
:10528000002B28D0BB6803F00803002B23D07B68D9
:105290001B681A687B681B6822F00E021A607B6824
:1052A0001A6C7B68DB6B012101FA02F25A607B68A1
:1052B00001229A637B68012283F821207B68002207
:1052C00083F820207B681B6B002B04D07B681B6B52
:1052D00078689847FFE700BF1037BD4680BD80B4AF
:1052E00083B000AF78607B6893F8213018460C37A4
:1052F000BD465DF8047B704780B485B000AFF860B0
:10530000B9607A603B60FB681A6CFB68DB6B01215B
:1053100001FA02F25A60FB681B683A685A60FB683F
:105320005B68102B08D1FB681B687A689A60FB6881
:105330001B68BA68DA6007E0FB681B68BA689A60A5
:10534000FB681B687A68DA6000BF1437BD465DF8F9
:10535000047B704780B483B000AF78607B681B68C3
:105360001A46144B9A420FD87B681B681A46124B98
:105370001344124AA2FB03231B099A007B681A6498
:105380007B680F4ADA630EE07B681B681A460D4B98
:1053900013440A4AA2FB03231B099A007B681A6480
:1053A0007B68094ADA6300BF0C37BD465DF8047BB1
:1053B000704700BF07040240F8FFFDBFCDCCCCCC46
:1053C00000000240F8FBFDBF0004024080B487B03B
:1053D00000AF7860396000237B6154E13B681A6854
:1053E00001217B6901FA03F31340FB60FB68002B8A
:1053F00000F046813B685B6803F00303012B05D096
:105400003B685B6803F00303022B30D17B689B6829
:105410003B617B695B00032202FA03F3DB433A69D9
:1054200013403B613B68DA687B695B0002FA03F377
:105430003A6913433B617B683A699A607B685B68B1
:105440003B6101227B6902FA03F3DB433A691340B3
:105450003B613B685B681B0903F001027B6902FA50
:1054600003F33A6913433B617B683A695A603B68CE
:105470005B6803F00303032B17D07B68DB683B6199
:105480007B695B00032202FA03F3DB433A691340B2
:105490003B613B689A687B695B0002FA03F33A69F7
:1054A00013433B617B683A69DA603B685B6803F0F1
:1054B0000303022B23D17B69DA087B68083253F897
:1054C00022303B617B6903F007039B000F2202FA45
:1054D00003F3DB433A6913403B613B681A697B691C
:1054E00003F007039B0002FA03F33A6913433B619D
:1054F0007B69DA087B680832396943F822107B68D7
:105500001B683B617B695B00032202FA03F3DB4308
:105510003A6913403B613B685B6803F003027B69B7
:105520005B0002FA03F33A6913433B617B683A6913
:105530001A603B685B6803F44033002B00F0A080E6
:10554000584B9B69574A43F001039361554B9B6944
:1055500003F00103BB60BB68534A7B699B080233BD
:1055600052F823303B617B6903F003039B000F2259
:1055700002FA03F3DB433A6913403B617B68B3F102
:10558000904F19D07B68494A934213D07B68484AB0
:1055900093420DD07B68474A934207D07B68464AC6
:1055A000934201D1042308E0052306E0032304E02D
:1055B000022302E0012300E000237A6902F00302E3
:1055C000920093403A6913433B6137497B699B08DA
:1055D00002333A6941F82320384B9B683B61FB68F2
:1055E000DB433A6913403B613B685B6803F480131B
:1055F000002B03D03A69FB6813433B612F4A3B6998
:1056000093602E4BDB683B61FB68DB433A691340D8
:105610003B613B685B6803F40013002B03D03A69DD
:10562000FB6813433B61254A3B69D360234B5B68AE
:105630003B61FB68DB433A6913403B613B685B6855
:1056400003F40033002B03D03A69FB6813433B613A
:105650001A4A3B695360194B1B683B61FB68DB438B
:105660003A6913403B613B685B6803F48033002B6D
:1056700003D03A69FB6813433B61104A3B691360EE
:105680007B6901337B613B681A687B6922FA03F30B
:10569000002B7FF4A3AE00BF00BF1C37BD465DF8F2
:1056A000047B7047001002400000014000040048E5
:1056B00000080048000C00480010004800040140A9
:1056C00080B485B000AF78600B467B807B681A6938
:1056D0007B881340002B02D00123FB7301E00023E1
:1056E000FB73FB7B18461437BD465DF8047B70479F
:1056F00080B483B000AF78600B467B8013467B702C
:105700007B78002B03D07A887B689A6102E07A88E4
:105710007B689A6200BF0C37BD465DF8047B70471A
:1057200080B485B000AF78600B467B807B685B6996
:10573000FB607A88FB6813401A04FB68D9437B88B6
:105740000B401A437B689A6100BF1437BD465DF871
:10575000047B704780B582B000AF0346FB80084BE6
:105760005A69FB881340002B06D0054AFB88536119
:10577000FB881846FCF7C2FA00BF0837BD4680BD5B
:105780000004014080B582B000AF78607B68002BD8
:1057900001D1012381E07B6893F84130DBB2002B1B
:1057A00006D17B68002283F840207868FCF742FF2E
:1057B0007B68242283F841207B681B681A687B6819
:1057C0001B6822F001021A607B685A687B681B68BC
:1057D00022F070621A617B681B689A687B681B689C
:1057E00022F400429A607B68DB68012B07D17B685A
:1057F0009A687B681B6842F400429A6006E07B6806
:105800009A687B681B6842F404429A607B68DB6894
:10581000022B04D17B681B684FF400625A607B68DE
:105820001B685B687A68126843F0007343F40043B6
:1058300053607B681B68DA687B681B6822F400424F
:10584000DA607B681A697B685B6942EA03017B68FE
:105850009B691A027B681B680A43DA607B68D96916
:105860007B681A6A7B681B680A431A607B681B683E
:105870001A687B681B6842F001021A607B6800228C
:105880005A647B68202283F841207B6800221A63D7
:105890007B68002283F84220002318460837BD4663
:1058A00080BD000080B588B002AFF8607A601A460B
:1058B0000B467B8113463B81FB6893F84130DBB29A
:1058C000202B40F0DA80FB6893F84030012B01D1A7
:1058D0000223D3E0FB68012283F84020FDF7E4FABD
:1058E00078617B690093192301224FF40041F86825
:1058F00000F00DFE0346002B01D00123BEE0FB6843
:10590000212283F84120FB68102283F84220FB68A3
:1059100000225A64FB687A685A62FB683A895A85A1
:10592000FB6800225A63FB685B8D9BB2FF2B0ED98C
:10593000FB68FF221A85FB681B8DDAB27989514B0F
:1059400000934FF08073F86800F09AFF6CE0FB68FA
:105950005B8D9AB2FB681A85FB681B8DDAB2798978
:10596000484B00934FF00073F86800F089FF5BE04C
:105970007A69396AF86800F019FE0346002B01D0F5
:1059800001237BE0FB685B6A1A78FB681B689A62FC
:10599000FB685B6A5A1CFB685A62FB685B8D9BB2B2
:1059A000013B9AB2FB685A85FB681B8D013B9AB29A
:1059B000FB681A85FB685B8D9BB2002B34D0FB68BB
:1059C0001B8D002B30D17B6900933B6A0022802124
:1059D000F86800F09CFD0346002B01D001234DE048
:1059E000FB685B8D9BB2FF2B0ED9FB68FF221A85EB
:1059F000FB681B8DDAB27989002300934FF0807326
:105A0000F86800F03DFF0FE0FB685B8D9AB2FB6821
:105A10001A85FB681B8DDAB27989002300934FF059
:105A20000073F86800F02CFFFB685B8D9BB2002BC5
:105A30009ED17A69396AF86800F0FFFD0346002BB1
:105A400001D001231AE0FB681B682022DA61FB68A1
:105A50001B685968FB681A680B4B0B405360FB6866
:105A6000202283F84120FB68002283F84220FB6853
:105A7000002283F84020002300E002231846183754
:105A8000BD4680BD0020008000E800FE80B584B0E7
:105A900000AF78607B681B689B69FB607B681B6854
:105AA0001B68BB607B685B6B002B05D07B685B6B06
:105AB000BA68F9687868984700BF1037BD4680BD5E
:105AC00080B586B000AF78607B681B689B697B619E
:105AD0007B681B681B683B617B6903F48073002B48
