:020000040800F2
:1000000000A000206D1F0008411E0008431E0008CC
:10001000451E0008471E0008491E00080000000099
:100020000000000000000000000000004B1E00085F
:100030004D1E0008000000004F1E0008511E000861
:10004000BD1F0008BD1F0008BD1F0008BD1F000820
:10005000BD1F0008551E0008BD1F0008571E0008E0
:10006000BD1F0008BD1F0008BD1F0008BD1F000800
:10007000BD1F0008BD1F0008BD1F0008BD1F0008F0
:100080005D1E0008691E0008751E0008BD1F0008DF
:10009000BD1F0008BD1F0008BD1F0008BD1F0008D0
:1000A000911E0008BD1F0008BD1F0008BD1F0008ED
:1000B000AD1E0008B91E0008BD1F0008C51E0008BF
:1000C000D11E0008BD1F0008BD1F0008BD1F00088D
:1000D000BD1F0008BD1F0008DD1E0008BD1F000871
:1000E000E91E0008BD1F0008BD1F0008011F000811
:1000F000BD1F0008BD1F0008BD1F0008BD1F000870
:10010000000000000000000000000000BD1F00080B
:10011000BD1F0008BD1F0008BD1F0008BD1F00084F
:100120000D1F0008BD1F0008BD1F0008BD1F0008EF
:10013000BD1F0008BD1F00080000000000000000F7
:10014000BD1F0008BD1F0008BD1F00080000000003
:10015000000000000000000000000000000000009F
:100160000000000000000000BD1F0008BD1F0008C7
:10017000BD1F00080000000000000000000000009B
:0801800000000000BD1F000893
:1001900010B5054C237833B9044B13B10448AFF3C1
:1001A00000800123237010BD6800002000000000C3
:1001B000E477000808B5034B1BB103490348AFF3CC
:1001C000008008BD000000006C000020E4770008FB
:1001D00001F0FF01102A2BDB10F0070F08D010F8F8
:1001E000013B013A8B422DD010F0070F42B3F6D1FC
:1001F000F0B441EA012141EA014122F007047FF015
:1002000000070023F0E80256083C85EA010586EA6B
:10021000010685FA47F5A3FA87F586FA47F6A5FAA7
:1002200087F68EB9EED1F0BC01F0FF0102F00702B3
:1002300032B110F8013B013A83EA010313B1F8D15E
:100240000020704701387047002D06BF354603383F
:10025000073815F0010F07D1013015F4807F02BF78
:10026000013015F4C03F0130F0BC0138704700BFC9
:1002700008B50B490B4A0B78127898180A2806DC47
:1002800009480131184406F05DFE012008BD074B06
:10029000002048600860C1F807001870F6E700BF4A
:1002A0008E00002099000020840000209B00002088
:1002B00003F048BF0B4610B40B493BB90B4A0B7017
:1002C00013705DF8044B012203F0DCBE084A0C7881
:1002D00000231370074A0B70074914702144012250
:1002E0005DF8044B03F06CBE8E0000209B000020E4
:1002F0009D0000209C0000208400002010B4084ACB
:10030000084C13780133DBB21370074A1178194493
:1003100021444FF080735DF8044B012203F050BE7E
:100320009D000020840000209C00002038B50E4C69
:1003300021780131C9B20A2921700CD811BF0B4DA7
:100340000B494FF0007301221EBF4FF08073012252
:10035000491903F097FE23780B2B03D1BDE83840F1
:10036000FFF786BF38BD00BF9B0000208E00002035
:100370009800002010B5044604F0CAFB042815D1EB
:10038000124A137863B9124912480A780B70013A7D
:100390000270FFF76DFF2046BDE8104003F0D2BEAB
:1003A0000D49013B0B7000231370F4E70128F2D1D3
:1003B000204603F01EFC204603F0CAFB074A002338
:1003C00053601360C2F80730014AEDE79D0000203A
:1003D0009B000020990000209A0000208E00002041
:1003E0007FB50023CDE9033305930123CDE9003325
:1003F000694603230348029302F0DCFC07B05DF872
:1004000004FB00BF540100207FB50023CDE9033376
:1004100005930C220123CDE90023694603230348F9
:10042000029302F0C7FC07B05DF804FB5401002002
:1004300038B50B4C0B4DFFF7D3FF002320466B80E4
:1004400002F038F86421204602F0FCF8204602F061
:1004500081FA6880204602F0D5F8688838BD00BF70
:1004600054010020A400002038B50B4C0B4DFFF7C1
:10047000CBFF002320462B8002F01CF8642120468D
:1004800002F0E0F8204602F065FA2880204602F0EB
:10049000B9F8288838BD00BF54010020A40000200E
:1004A0002DE9F047DFF8ECA0344EDFF8EC80DFF800
:1004B000EC90334F00255446B8F8003036F8022B44
:1004C000B9F800109BB291422AF8023B09D8092BD7
:1004D00007D901220A3B114638462AF8023C03F0AC
:1004E0003DF936F8022C40F25D639A4229D9002189
:1004F000244805F059FF0421224805F055FF00214A
:10050000214805F051FF0021204805F04DFF002152
:100510001C4806F090F804211A4806F08CF80021D7
:10052000194806F088F80021184806F084F80A23D4
:10053000012223806380A380E3801146384603F0C4
:100540000DF93AF8023C092B08D936F8023C0A2B7F
:1005500004D800220121384603F000F90135EDB23C
:10056000042DA9D1628823881344A2881344E28809
:100570001344074A9B101380BDE8F087A4000020B5
:1005800000140048F402002024040020400300204E
:10059000E005002004000020DE050020020000200D
:1005A00030B5054685B00C4616484FF0FF330122A2
:1005B0004E2103F065FC0028F6D125F00F032343FC
:1005C00044EA051043F00C02C0B243F008038DF872
:1005D0000D3040F00C038DF80E3040F008004FF065
:1005E000FF338DF80C208DF80F00009303AA04232D
:1005F0004E21044803F016FB052001F029FD05B04B
:1006000030BD00BF7C02002030B5144B144C1B7869
:1006100041EA001085B040EAC300642540F00400C0
:100620000DF10F028DF80F0001234E210095204699
:1006300003F0F8FA012001F00BFD9DF80F30009552
:1006400023F004038DF80F300DF10F0201234E212A
:10065000204603F0E7FA05B030BD00BF00000020DF
:100660007C02002010B5002104460009FFF7CCFFF2
:1006700004F00F000021013CFFF7C6FF012C04D855
:10068000BDE81040022001F0E3BC10BD10B501210F
:1006900004460009FFF7B8FF04F00F000121BDE890
:1006A0001040FFF7B1BF08B5322001F0D1FC0021A6
:1006B0000320FFF7A9FF052001F0CAFC0021032059
:1006C000FFF7A2FF012001F0C3FC00210320FFF788
:1006D0009BFF012001F0BCFC00210220FFF794FFEA
:1006E0002820FFF7BFFF0C20FFF7BCFF0620FFF715
:1006F000B9FF0120FFF7B6FFBDE80840022001F076
:10070000A7BC10B5441E14F8010F00B910BDFFF7C7
:10071000BDFFF8E70238C0B202289ABF044B185C4C
:100720008020014461F07F00C0B2FFF79BBF00BF93
:100730007F78000808B50120FFF794FFBDE8084066
:10074000022001F085BC00000B4970B50B680B4C12
:100750000B4D54F823202E6844F82300821A0133ED
:100760001420324493FBF0F400FB14332A600B6036
:1007700092FBF0F070BD00BFD40500208005002082
:100780000C06002010B51548154C202102F0E0FFA2
:1007900023781843C0B260B901221248022102F046
:1007A000DDFF114A01232370137801331370FFF723
:1007B000C1FF0A48202102F0CBFF70B1237863B15A
:1007C00000220848022102F0C9FF074A1378032BD0
:1007D0004FF0000388BF1370237010BD0004004861
:1007E000D805002000140048D905002010B59EB09F
:1007F0002022002106A806F071FB14220021684681
:1008000006F06CFB3C220DEB0200002106F066FBBB
:100810000A23059310220123CDE909320B93022408
:100820004FF4601305A80C940E9304F0BFF908B1BF
:1008300072B6FEE70F23CDE900344FF48063CDE9B3
:10084000033002902146684604F040FC08B172B6BD
:10085000FEE70C4B0F934FF480724FF40053CDE939
:100860001100CDE91823CDE91B0016904FF4007359
:100870000FA8109304F002FD08B172B6FEE71EB097
:1008800010BD00BFA33101002DE9F04FB74DA5B059
:1008900001F0BAFBFFF7AAFF1422002119A806F005
:1008A0001DFB6B69B24843F400236B616B6903F471
:1008B00000230793079B6B6943F480036B616B69AB
:1008C00003F480030893089B6B6943F400336B6166
:1008D0006B6903F400330993099B6B6943F480232C
:1008E0006B616B6903F480230A9300224FF400418B
:1008F0000A9B02F033FF9F480022032102F02EFFE3
:100900009D4800224FF4705102F028FF00224FF45E
:1009100080614FF09040002402F020FF4FF4441912
:100920004FF4C04392481B9419A90126CDE9193907
:1009300002F0D0FD4FF400438D4819A9CDE91936D6
:100940000327CDE91B4402F0C5FD8A4819A94FF0E1
:100950000208CDE91976CDE91B4402F0BBFD19A9C7
:100960004FF09040CDE919891B9402F0B3FD4FF48C
:100970007053814819A9CDE91936CDE91B4402F01D
:10098000A9FD4FF4806319A94FF09040CDE91936C5
:10099000CDE91B4402F09EFD202377481B9419A942
:1009A000CDE9193402F096FD22462146072002F0D7
:1009B00023FC072002F052FC22463946282002F090
:1009C0001BFC282002F04AFC6B6933436B616B69A6
:1009D00033400593059B6B6943EA08036B616B69C0
:1009E000664D03EA08032246214606931020069B23
:1009F00002F002FC102002F031FC224621461120B8
:100A000002F0FAFB112002F029FC22462146382090
:100A100002F0F2FB382002F021FC1822214619A82E
:100A200006F05CFA564B85F82040C5E900344FF4D7
:100A300080734FF0050A4FF004092B832846C5E95F
:100A40000A64C5E90244C5F81CA085F830402E614F
:100A5000C5F814906C6301F009FC08B172B6FEE7AA
:100A6000CDE91B80CDE91D0019A92846CDE91966FD
:100A700002F0A0F908B172B6FEE719A92846CDE93F
:100A8000198802F097F908B172B6FEE719A928464D
:100A9000CDE9197702F08EF908B172B6FEE719A90F
:100AA0002846CDE9199902F085F908B172B6FEE73A
:100AB0000C2319A92846CDE9193A02F07BF904461E
:100AC00008B172B6FEE7014610220EA806F006FA3B
:100AD0001C22214612A8CDE90B440D9406F0FEF924
:100AE0002C22214619A806F0F9F9264D264BAC60B8
:100AF000C5E900344FF4FA63C5E90334284680237E
:100B00006C61AB6105F09CF808B172B6FEE74FF47A
:100B100080530EA928460E9305F0B8FA08B172B6B4
:100B2000FEE7284605F0BCF808B172B6FEE7CDE94D
:100B30000B000D900BA9284605F080FD08B172B698
:100B4000FEE700224FF060094FF47A7304260D4847
:100B5000189212A9CDE91293CDE91422CDE91662BB
:100B600005F044F990B172B6FEE700BF00100240F4
:100B70000008004800140048000400480401002058
:100B800000010050F4020020002C0140AA48324627
:100B900012A905F02BF908B172B6FEE73223CDE9B0
:100BA0001C304FF40053CDE91E304FF00073CDE9F7
:100BB0001900CDE921301B902090239019A99E485F
:100BC00005F07EFD054608B172B6FEE79A489B4CDB
:100BD00001F010F81022294612A806F07FF9102221
:100BE000294619A8CDE90E551095012706F076F98A
:100BF0004FF08043C4E90037914BA5602046C4E91B
:100C00000335A56105F01CF808B172B6FEE74FF494
:100C1000805312A92046129305F038FA08B172B633
:100C2000FEE7204605F06CF808B172B6FEE70E90BC
:100C300010900EA9204605F001FD024608B172B6DB
:100C4000FEE7CDE919071B900C2519A920461C9534
:100C500005F07CF908B172B6FEE702231C9032461B
:100C600019A92046CDE9193305F070F908B172B61B
:100C7000FEE7744BDFF8F081C3E90200C3E9040525
:100C8000C3E90600C3E908004FF416521846C3E949
:100C9000008206F0D3F808B172B6FEE76A48DFF8C2
:100CA000CCE14FF41643C0E900E30C220023C0E975
:100CB0000233C0E90523C0E907330361436206F04C
:100CC000BDF8054608B172B6FEE7014610220EA82F
:100CD00006F004F91C22294612A8CDE90B550D9502
:100CE00006F0FCF82C22294619A806F0F7F8574C14
:100CF000574BA560C4E900354FF4FA63C4E90335E6
:100D0000204680236561A36104F09AFF08B172B6A2
:100D1000FEE74FF480530EA920460E9305F0B6F976
:100D200008B172B6FEE7204604F0BAFF08B172B609
:100D3000FEE7CDE90B000D900BA9204605F07EFCE7
:100D4000024608B172B6FEE7CDE91400CDE91600FF
:100D50004FF0600C4FF47A73189012A92046CDE939
:100D600012C305F043F808B172B6FEE73223CDE9AD
:100D70001C304FF40053CDE91E304FF00073CDE925
:100D80001900CDE921301B902090239019A920460D
:100D900005F096FC054608B172B6FEE7204600F065
:100DA00029FF2C4C2C4B2D4E2562C4E900632427CF
:100DB00001232046C4E90273C4E90455C4E9065579
:100DC00002F0C6FE014608B172B6FEE7204603F007
:100DD000A1FE014608B172B6FEE7204603F0C0FE50
:100DE00008B172B6FEE71422002119A806F076F8C1
:100DF0001B4C1C4A00237F20C4E9002340F2371219
:100E0000C4E902022046C4E904331293A36104F04A
:100E100082FB08B172B6FEE7CDE91C0009238DF80C
:100E20006600012219A92046ADF8643004F0C6FB23
:100E3000F0B172B6FEE700BFF40200208C03002080
:100E40000090D00370040020F80400202404002047
:100E5000003401407C0200200E09002000540040B4
:100E6000D402002000280040003801400044004027
:100E7000874B12932046012212A904F0F9FB044685
:100E800008B172B6FEE7014610220EA806F026F859
:100E90001C22214612A8CDE90B440D9406F01EF841
:100EA0002C22214619A806F019F87A4D7A4BAC602D
:100EB000C5E900344FF4FA63C5E9033428468023BA
:100EC0006C61AB6104F0BCFE08B172B6FEE74FF492
:100ED00080530EA928460E9305F0D8F808B172B6D3
:100EE000FEE7284604F0DCFE08B172B6FEE70B9080
:100EF0000D900BA9284605F0A1FB024608B172B679
:100F0000FEE760214FF47A73CDE91213CDE91400A6
:100F1000CDE91600189012A9284604F067FF08B121
:100F200072B6FEE74FF40053CDE91900CDE91B007E
:100F3000CDE91E301D90239019A9284605F0C0FB6D
:100F4000044608B172B6FEE7284600F053FE1822A8
:100F5000214619A8CDE91244149405F0BFFF4F486B
:100F600001238362C3614FF0A043C0E900340483CE
:100F70000423C0E9024480F82040C46280F8304075
:100F800004614361446301F071F908B172B6FEE790
:100F900000234248129312A902F098F808B172B6E1
:100FA000FEE7CDE91D001C904FF004093B480126E7
:100FB0004FF0020819A9CDE91996CDF86C8001F01F
:100FC000F9FE044608B172B6FEE7354D1490CDE93E
:100FD00012000146182219A805F080FF314B2C831E
:100FE0002846C5E90A64C5E90034C5E90244C5E9F3
:100FF000044985F82040EE6185F830406C6301F0CB
:1010000035F908B172B6FEE7129012A9284602F02F
:101010005DF808B172B6FEE7CDE91B80CDE91D0091
:1010200019A92846CDE9196601F0C4FE044608B1A5
:1010300072B6FEE70146102219A805F04FFF1A4FBD
:101040001A4B1494C7E900344FF6FF73C7E9033411
:1010500038468023CDE91244BC60BB6104F0F0FD4A
:1010600008B172B6FEE74FF4805B19A93846CDF897
:1010700064B005F00BF808B172B6FEE71290149058
:1010800012A9384605F0DAFA074688B172B6FEE7CB
:10109000010601004003002000400140B400002090
:1010A0005401002000040050D80300200004004038
:1010B000C348C44CDFF88CA33246314602F04EFBE5
:1010C00032464FF480614FF0904002F047FBBE4B38
:1010D00022885A6362889A63A288C3F8342803F589
:1010E0000063E288C3F8342C3946B84805F002F9A9
:1010F0004946B64805F0FEF83946B54805F0FAF815
:101100003946B44805F0F6F83946B34805F04EF9CB
:101110004946B14805F04AF9504632464FF400615D
:1011200002F01CFB504632464FF4806102F016FB81
:1011300050463246594602F011FB324650464FF4B3
:10114000005102F00BFB0521A44801F006FC4946C2
:10115000A34801F002FC4146284601F0FEFBA14BEA
:101160004FF47A701E7000F073FFDAF8003043F429
:101170002023CAF80030DAF8043043F44073CAF888
:101180000430DAF80C3043F42023CAF80C30964BC4
:101190005A6942F480225A61DA6942F40012DA6133
:1011A000DAF8243043F04403CAF824308F4BDFF8D8
:1011B00098A21A6842F400421A601A6822F40042A7
:1011C0001A60FFF770FAFFF7B5FA3A467C483146E5
:1011D00002F0C4FA39463020FFF7E2F940463946BA
:1011E000FFF7DEF939460C20FFF7DAF939463046C9
:1011F000FFF7D6F9DFF8E8817A4B1B78012B5FFA0D
:1012000083FBF9D17A4D75487A4F01F065FBBAF846
:101210000830AB80404601F04DF96421404601F0B2
:1012200011FA0023EB80404601F094FBE880404631
:1012300001F0E8F9FFF7FCF8FFF716F96A8828884B
:10124000AB88B5F8069002938118194449446A4B5B
:1012500003928E101E80694E3180694E31780131C3
:101260003170FFF771FA039A38701046FFF76CFA85
:10127000029B78701846FFF767FAB8704846FFF788
:1012800063FADFF8C891F87099F80070002F3AD12E
:101290003378142B6BD15B4A5B491288029319A8EF
:1012A00005F0FCFD39465846FFF734FA19A8FFF758
:1012B00028FA564A029B12885549B2FBF3F319A843
:1012C00005F0ECFD39460220FFF724FA19A8FFF7D4
:1012D00018FA494B4F491A8819A805F0DFFD39461D
:1012E0000320FFF717FA19A8FFF70BFA4A4B4B49EF
:1012F0001A8819A805F0D2FD04203946FFF70AFA2A
:1013000019A8FFF7FEF999F800203378032A2ED1A7
:10131000142B40F0EB80424F42480022394604F043
:10132000F9F941493F48002204F017FA3F4B404A7F
:101330001B7800933F4B12781B783F4919A805F0A2
:10134000ADFD00210120FFF7E5F919A8FFF7D9F954
:10135000BB7800937B783A78384919A805F09EFD50
:1013600002200021FFF7D6F919A8FFF7CAF999F86A
:1013700000B03378BBF1010F40F0B880122B40F081
:10138000828023882E49142719A8B3FBF7F205F0B1
:1013900085FD00215846FFF7BDF919A8FFF7B1F9FF
:1013A00063882749B3FBF7F219A805F077FD002100
:1013B0000220FFF7AFF919A8FFF7A3F9A38847E0C8
:1013C0000014004804000020002C0140F40200201A
:1013D00024040020400300208C030020040100208E
:1013E000B4000020B2000020001002400054004071
:1013F000A40000209F000020AC000020AE000020D0
:101400009E000020E4050020FC770008E005002095
:101410001078000825780008B00000203378000814
:10142000EC050020D4020020E60500200006002084
:10143000D0020020D00500203D7800084378000845
:101440005778000800040048A4010020D9050020B6
:101450005649B3FBF7F219A805F020FD002103203F
:10146000FFF758F919A8FFF74CF9E3884F49B3FB88
:10147000F7F219A805F012FD04200021FFF74AF940
:1014800019A8FFF73EF93378FA2B2FD12A8848495B
:1014900019A805F003FD0D210120FFF73BF919A85C
:1014A000FFF72FF96A88424919A805F0F7FC0D21CA
:1014B0000220FFF72FF919A8FFF723F9AA883C4962
:1014C00019A805F0EBFC0D210320FFF723F919A85B
:1014D000FFF717F9EA88364919A805F0DFFC042060
:1014E0000D21FFF717F919A8FFF70BF999F800700C
:1014F0003378022F32D1FA2B30D12E4D2E492A7853
:1015000019A805F0CBFC06210120FFF703F919A863
:10151000FFF7F7F86A78284919A805F0BFFC0621FB
:101520003846FFF7F7F819A8FFF7EBF8AA78224931
:1015300019A805F0B3FC06210320FFF7EBF819A862
:10154000FFF7DFF8EA781C4919A805F0A7FC04208A
:101550000621FFF7DFF819A8FFF7D3F83378174A09
:101560001748FC2B4FF0000308BF3370137064233F
:10157000104A009320210A2302F0EAFBFEF790FFB5
:10158000FFF700F90F4B22885A6362889A63A2889A
:10159000C3F8342803F50063E288C3F8342C5146BD
:1015A0000522094801F0EEF826E600BF577800084A
:1015B000677800080106002070780008B20000205B
:1015C0007C020020002C01400401002070B5066858
:1015D000B6F1804F05466AD1037F012B3AD1344BD7
:1015E000344800245C62214604F0DEFE04213148C8
:1015F00004F0DAFE2146304804F0D6FE21462F489A
:1016000004F0D2FE746221462D482E4E04F0F0F90B
:10161000042130802A4804F0EBF92B4B2B49328807
:1016200018802B4BB3FBF2F30B802A4BB3FBF2F386
:10163000294A20481380214604F0FBFF04211D485D
:1016400004F0F7FF21461C4804F0F3FF1B48214635
:1016500004F0EFFF2B7F022B29D1154B1F480024EC
:101660005C624FF4004102F07EF82146114804F01C
:10167000E2FF04210F4804F0DEFF21460E4804F08B
:10168000DAFF21460D4804F0D6FF2146094804F050
:1016900031FE0421074804F02DFE2146064804F0DF
:1016A00029FE21460548BDE8704004F023BE70BD08
:1016B00000040040F4020020240400204003002025
:1016C0008C030020DA050020DC050020E405002062
:1016D00000389C1C0048E801B000002000080048C9
:1016E000B0F5005F73B504463FD13E484FF400416A
:1016F00002F039F83B48214602F02AF8002832D19E
:10170000394C238823889BB2132B18D8374E327854
:10171000AAB9374D37480192294603F0FBFF019AD9
:101720003549344804F019F8344B2A781A70344B90
:101730006A781A70334BAA781A70012333702388A1
:101740000A339BB22380238840F2CE729BB293422D
:1017500084BF4FF4FA6323802B4B04221A702B4B67
:101760004FF400525A6102B070BDB0F5804FFAD10B
:1017700001461C4801F0ECFF012804D119484FF440
:10178000004101F0F0FF17484FF4804101F0E0FF05
:101790000028E8D1144B1A8892B252B9134908783C
:1017A000012806D10A7015490A7015490A701549B1
:1017B0000A701A880A3A92B21A801A8840F63301DF
:1017C00092B28A4284BF00221A801A8892B2012AF9
:1017D0009CBF00221A800C4B04221A700B4B4FF452
:1017E0008042BFE700080048DE0500200B0600200D
:1017F000EC050020D4020020E6050020D0020020E5
:10180000D005002000060020E20500200004014071
:1018100000224FF480614FF0904001F09FBF000024
:101820000268034B9A4202BF024B01221A707047B2
:1018300000010050B200002072B6FEE70F4B07B562
:101840009A6942F001029A619A6902F001020092DB
:10185000009ADA6942F08052DA61DB69002203F013
:101860008053019311460520019B01F0C5FC052022
:1018700003B05DF804EB01F0F1BC00BF00100240C2
:1018800070B505468CB01422002107A805F026FB90
:101890002B68B3F1A04F2BD14D4A13680133012BB4
:1018A00013604C4B08D15A6942F080525A615A6910
:1018B00002F080520092009A5A6942F400325A6152
:1018C0005B6903F4003301930821019B0323CDE9F5
:1018D00007134FF0904007A901F0FCFD00221220F1
:1018E000114601F089FC122001F0B8FC0CB070BD6B
:1018F000394A93424DD1364A13680133012B1360A4
:10190000344B08D15A6942F080525A615A6902F048
:1019100080520292029A5A6942F400325A615A691C
:1019200002F400320392039A5A6942F480225A6107
:101930005B6903F4802304930324049B07A9F02329
:101940004FF090400026CDE9073401F0C3FD042399
:101950002248099607A9CDE9073401F0BBFD204CC8
:10196000204BA660C4E9003680224FF48073C4E99E
:1019700003234FF48063C4E9053620464FF48053B7
:10198000E36101F0BFFC08B1FFF756FFAC6365628D
:10199000A4E7154A9342A9D10E4B10485A6942F068
:1019A00000525A615A6902F000520592059A5A692A
:1019B00042F480225A615B6903F480230693069BFC
:1019C00007A90323CDE9073301F084FD8EE700BFAB
:1019D00010060020001002400001005000040048E2
:1019E000B0010020080402400004005010B5044675
:1019F00088B01422002103A805F070FA22681A4B5F
:101A00009A422FD1194C1A48636943F480236361C9
:101A1000636903F4802301934FF44072019B122306
:101A2000CDE9032303210423CDE9061303A901F023
:101A300051FDE36943F40013E361E369002203F419
:101A40000013114602931F20029B01F0D5FB1F20BB
:101A500001F004FC00222020114601F0CDFB2020E3
:101A600001F0FCFB08B010BD005400400010024023
:101A70000004004808B502680D4B9A4216D10D4A81
:101A80000D48D36923F40013D3614FF4807101F042
:101A9000E5FD09484FF4007101F0E0FD1F2001F061
:101AA000EBFBBDE80840202001F0E6BB08BD00BF0D
:101AB0000054004000100240000400480268074B38
:101AC0009A420AD14FF4004292FAA2F2044BB2FABF
:101AD00082F213449B0001221A60704700280040E4
:101AE0000081901010B504468CB01422002107A884
:101AF00005F0F4F923683A4A934210D1394B9A69B8
:101B000042F400629A619B6903F400630193019BB4
:101B100000221820114601F06FFB182026E0B3F1D7
:101B2000804F27D103F5043307A9DA6942F0010297
:101B3000DA61DA6902F001020292029A5A6942F409
:101B400000325A615B6903F4003303930222039B62
:101B50004FF090400123CDE907320B9301F0BAFC1E
:101B600000221C20114601F047FB1C2001F076FBEF
:101B70000CB010BD1C4A934210D11A4BDA6942F0E6
:101B80000202DA61DB69002203F0020304931D20E4
:101B90001146049B01F030FB1D20E7E7134A9342F6
:101BA00010D1104B9A6942F400529A619B6900224D
:101BB00003F4005305932B201146059B01F01CFBF9
:101BC0002B20D3E70A4A9342D2D1064B9A6942F4BA
:101BD00080329A619B6903F480330693069B97E7F2
:101BE000002C01400010024000040040003401407D
:101BF0000040014010B514228AB0044600210DEBCC
:101C0000020005F06BF92368334A934217D1334B36
:101C10005A6942F400325A615B6903F4003301935C
:101C2000019B4FF4D8520223CDE9052306230993E3
:101C300005A94FF0904001F04DFC0AB010BD284AB4
:101C4000934228D1254B5A6942F400325A615A69AD
:101C500002F400320292029A5A6942F480225A61D6
:101C60005B6903F4802303930224039B09944FF4DC
:101C7000004305A94FF09040CDE9053401F02AFC5E
:101C80000823CDE905340023CDE907330423099364
:101C9000144805A9CFE7144A9342CED10F4B1148FF
:101CA0005A6942F480225A615B6903F480230493E9
:101CB0000224049B4FF48043CDE9053405A9012398
:101CC000099301F007FC4FF40043CDE905340023EC
:101CD000CDE907330994DBE7002C014000100240F6
:101CE0000034014000040048004001402DE9F0416B
:101CF00014228AB0054600210DEB020005F0EEF833
:101D00002B68474A934221D1464B9A6942F480425C
:101D10009A619A6902F480420092009A5A6942F4E8
:101D200080225A615B6903F480230193C021019BE7
:101D30000223CDE9051303200723CDE9080305A9F4
:101D4000394801F0C7FB0AB0BDE8F081374A934239
:101D5000F9D1344BDA6942F40032DA61DA6902F41B
:101D600000320292029A5A6942F400325A615A6968
:101D700002F400320392039A5A6942F480225A61B3
:101D80005B6903F48023049302260724049B4FF02D
:101D90000308042305A94FF090401027CDE905362C
:101DA000CDE9088401F096FBCDE905761E4809943B
:101DB000002605A91E4CCDE9076801F08BFB1D4BE1
:101DC000A660C4E900378023C4E9033620464FF4F7
:101DD0008053C4E90566E36101F094FA08B1FFF7A6
:101DE0002BFD154A2C676562144C0023C4E90023BF
:101DF00020468022C4E90323C4E90533A360E361DC
:101E000001F080FA08B1FFF717FD00226C67114658
:101E10002620656201F0F0F9262001F01FFA92E712
:101E20000038014000100240000400480044004017
:101E300038020020800002406C000240F4010020C3
:101E4000FEE7FEE7FEE7FEE7FEE7704770477047F4
:101E500000F0ECB87047022001F08EBC014801F0A0
:101E6000EFBA00BFF4010020014801F0E9BA00BF59
:101E70003802002008B5044800F0BAFDBDE808406B
:101E8000024800F0B5BD00BFB400002004010020EE
:101E900008B5044803F0C6FDBDE80840024803F059
:101EA000C1BD00BFF402002040030020014803F040
:101EB000B9BD00BF8C030020014803F0B3BD00BFD3
:101EC000D8030020014802F051B900BF7C02002075
:101ED000014802F046BC00BF7C020020014804F02B
:101EE00069BC00BFF804002008B54FF4005001F0B1
:101EF00043FCBDE808404FF4804001F03DBC0000C9
:101F0000014803F08FBD00BF24040020014801F008
:101F100097BA00BFB00100200B4A116810B5034604
:101F200009B90A491160106809490A4C0344091BA0
:101F30008B4206D904F0DAFF0C2303604FF0FF3028
:101F400010BD1360FCE700BF1406002068070020E6
:101F500000A0002000040000034AD2F8883043F4B7
:101F60007003C2F88830704700ED00E0DFF834D02D
:101F7000FFF7F2FF0C480D490D4A002302E0D45848
:101F8000C4500433C4188C42F9D30A4A0A4C0023C3
:101F900001E013600432A242FBD304F0ADFFFEF770
:101FA00073FCFEE700A00020000000206800002075
:101FB000F87800086800002064070020FEE70000B1
:101FC00038B50E4B1A784FF47A73B3FBF2F30C4A20
:101FD00005461068B0FBF3F001F060F9044658B90B
:101FE0000F2D09D8024629464FF0FF3001F004F9C1
:101FF000044B20461D6038BD0120FCE71000002086
:102000000C00002014000020074A08B5136843F0B4
:1020100010031360032001F0DDF80F20FFF7D0FF5D
:10202000FFF70CFC002008BD00200240034A044BCF
:1020300011681B780B441360704700BF180600201E
:1020400010000020014B1868704700BF18060020E0
:1020500038B50446FFF7F6FF631C1CBF054B1B7821
:10206000054618BFE418FFF7EDFF431BA342FAD360
:1020700038BD00BF1000002070477047704738B56A
:1020800003680446986800F00300012801D000208E
:1020900038BD1A68D107FAD59A6802F00D02012AF4
:1020A0001FD19A6842F002029A6003221A60FFF779
:1020B000C9FF054623689B68DB07E8D5FFF7C2FF29
:1020C000401B0228F6D923689B68DA07F2D5236CF7
:1020D00043F010032364636C43F001036364012045
:1020E000D6E7236C43F010032364636C43F00103D1
:1020F0006364CDE703689A6812F00C0F70B504466C
:1021000001D1002070BDDA68900125D5208B40F206
:102110000112904220D1234A1968490610D5402265
:102120001A600C219A68520706D59A6896075EBF16
:102130009A6842F010029A600C290FD104251DE024
:10214000013AE9D1236C43F010032364636C43F03C
:10215000010363640120D5E76029E3D19A68100781
:1021600006D59A6892075EBF9A6842F020029A608C
:10217000602914D06C2914BF04250C25FFF762FFD9
:10218000064623689B682B42BBD0FFF75BFF801B92
:102190000B28F6D923689B682B42F2D0D2E708259A
:1021A000ECE700BF0194090038B503689A6802F0B3
:1021B0000302012A044604D11A68D10701D5002080
:1021C00038BD9968104A114209D0236C43F01003BE
:1021D0002364636C43F0010363640120F0E79A68B1
:1021E00042F001029A60FFF72DFF054623681B6845
:1021F000DB07E4D4FFF726FF401B0228F6D923684B
:102200001B68DA07F2D4E0E73F000080406A036C05
:1022100043F040030364436C43F004034364FFF75B
:102220002DBF406AFFF728BF436A1A6C12F0500FA7
:1022300018D11A6C42F400721A641A68D26812F447
:10224000406F0CD15A7E52B91A6C22F480721A6413
:102250001A6CD2045EBF1A6C42F001021A6418466E
:10226000FFF7DEBA9B6B1B6B1847000037B50021E8
:1022700001910446002800F00481036CDA0616D4AC
:10228000036C002B00F0AA80002123689A68D2001A
:1022900002D59B689D000AD5236C23F0120343F0FE
:1022A00010032364636C43F0010363640121236C16
:1022B000D80600F1E080002940F0DD8023689A68AC
:1022C000520700F1D880226C22F4817242F002029F
:1022D000B3F1A04F22646F4A04D0934240F0D38000
:1022E0004FF0A0426C489D6805F00305012D02D116
:1022F0001D68ED070ED43AB1956805F00305012D70
:1023000002D11268D20705D48268656822F440328F
:102310002A438260D4E902020243606B657E013881
:1023200018BF012042EA453242EA003294F8200008
:10233000012808D1002D40F08D80606A013842EA02
:10234000404040F48032A06A012817D0534DAB4280
:1023500003D005F58075AB420CD1B0F5307F00F0AD
:102360008480B0F5807F00F08380B0F5E07F08BF07
:102370004FF48070E56A154345EA0002986810F052
:102380000C0F0CD1D86820F4804020F00200D860F7
:1023900094F83000257E400040EA85300243DD6835
:1023A0003F48284010432269D860012A05BF186BB6
:1023B000E2691A6B02F1FF3206BF20F00F00024300
:1023C00022F00F021A6300236364236C23F00303DB
:1023D00043F001032364084603B030BDC0E9123363
:1023E000436480F83C30FFF74BFA23689B68DB00BE
:1023F0003FF54AAF2046FFF742FE236CDD0601465B
:102400003FF543AF00287FF440AF236C226823F4EC
:10241000885323F0020343F002032364936823F0FC
:1024200040539360936843F0805393601D4B1E4A62
:102430001B68B3FBF2F30A2253430193019B002B69
:102440003FF422AF019B013BF7E7834218BF002214
:10245000164848E7206C20F0220040F0200020645D
:10246000606C40F0010060646DE74FF4E07081E75C
:102470004FF430707EE7236C23F0120343F0100317
:1024800023640121A7E7054A09489342DDD10246AA
:10249000DEE700BF000100500003005000040050C0
:1024A00007C0F0FF0C00002040420F000007005062
:1024B0000005005038B503689D6815F00405044612
:1024C00040F0958090F83C30012B00F09080012383
:1024D00080F83C30FFF768FE002840F08580236CD0
:1024E00023F4706323F0010343F4807323642368AF
:1024F000B3F1A04F02D03F4A934214D13E4A9268B2
:10250000D10602D0B3F1A04F11D1226C22F4801277
:102510002264DA6895011CD5226C22F4405242F400
:102520008052226415E0354A9268D206EDD03449D3
:102530008B42EAD0226C42F4801222642D4A9342EC
:102540000ABF4FF0A042CA68D268C2F34062002AB4
:10255000E2D1226C12F480521CBF626C22F006029F
:102560006264002284F83C20B3F1A04F4FF01C02BB
:102570001A6002D01F4A934213D11F4A9168C906BC
:102580000AD0B3F1A04F02D01A498B420DD1926804
:1025900002F01F02052A18D19A6842F004029A60DC
:1025A00012E0164A9268D206F6D0144A926802F0F7
:1025B0001F02052AF0D0114A926802F01F02092A70
:1025C000EAD00F4A9342E7D038BDB3F1A04F02D012
:1025D000084A9342EFD1084A926802F01F02092A82
:1025E000DAD0B3F1A04FEBE784F83C50ECE70220DF
:1025F000EAE700BF00010050000300500007005050
:102600000004005010B590F83C30012B044616D061
:10261000012380F83C306C21FFF76CFD58B920464F
:10262000FFF72DFD38B9236C23F4885323F0010301
:1026300043F001032364002384F83C3010BD0220E2
:10264000FCE700002DE9F04146690368082E0446C6
:102650000F4627D0B3F1A04F15D04648464A474908
:10266000834218BF0A46916811F01F010DD1DA6844
:10267000D00716D5236C84F83C1043F02003236464
:102680000120BDE8F0813C4AEDE7926812F4404F2A
:1026900007D0236C43F020032364002384F83C30EC
:1026A000EEE70C26B3F1A04F02D0324A934234D168
:1026B000314A9268D20605D0B3F1A04F02D0304A19
:1026C000934232D1DD68FFF7BDFC804623681A686B
:1026D000324231D0226C42F400722264DA6805F48E
:1026E000005102F440620A4311D11A6811070ED555
:1026F0009A6812F0040F226C34D122F480722264A2
:10270000226CD20403D4226C42F00102226415F43C
:1027100080400CBF1E600020B3E7184A9268D506BF
:10272000D0D0174A934205D1CCE712498B4208BF5B
:102730004FF0A042D568C6E7781CC8D05FB92368BF
:102740001B683340C2D1226C84F83C3042F0040252
:102750002264032095E7FFF775FCA0EB0800B84260
:10276000EDD8B3E742F020022264626C42F001022D
:102770006264CCE7000100500003005000070050E5
:1027800000040050F7B5134602680F4691684907E8
:10279000044600F1908090F83C10012900F08B80F5
:1027A0000121B2F1A04F80F83C1002D043498A4287
:1027B0005CD1434A926812F01F0F0CBF0122002225
:1027C000002A74D020460193FFF7EEFC064600284D
:1027D00069D1206C2568019B20F4706020F0010015
:1027E00040F48070B5F1A04F206402D0334A954286
:1027F0003ED1334A9268D20602D0B5F1A04F3BD108
:10280000226C22F480122264EA68910105D5226CC0
:1028100022F4405242F480522264226CA06B12F4E3
:1028200080521CBF626C22F006026264002284F8AF
:102830003C20244A8262244AC262244A02631C2247
:102840002A606A6842F010026A60EA6842F0010297
:10285000EA6005F140013A4600F076FD226893688F
:1028600043F004039360304603B0F0BD184AA1E77B
:10287000174A9268D006C3D016498D42C0D0226C48
:1028800042F4801222640D4A95420ABF4FF0A042E2
:10289000CA68D268920141BF206C20F4405040F4D5
:1028A00080502064B9E7002384F83C30DBE784F8EB
:1028B0003C200126D7E70226D5E700BF00010050E3
:1028C0000003005029220008232200080D220008DE
:1028D000000700500004005038B590F83C30012B40
:1028E000054635D0012380F83C306C21FFF702FC0F
:1028F0000446E0B92A68A86BD36823F00103D360CB
:1029000090F82130022B07D100F05AFD044618B18F
:102910002B6C43F040032B642A68536823F01003A8
:102920005360284644B9FFF7AAFB044638B1002398
:1029300085F83C30204638BDFFF7A1FBF7E72B6C4C
:1029400023F4885323F0010343F001032B64EEE7E3
:102950000224EFE70368186C7047F8B590F83C3034
:10296000012B04460E463CD0012780F83C70FFF74F
:1029700086FB0546E0B9236827649A6822F0804206
:102980009A60BE4202BF9A6842F080429A609A689A
:1029900042F000429A60FFF755FB064623689B68A9
:1029A000002B09DB236C23F0030343F001032364B2
:1029B000002384F83C3012E0FFF744FB801B0A2818
:1029C000ECD923689B68002BE8DA236C23F0120310
:1029D00043F010032364002384F83C30012528468B
:1029E000F8BD0225FBE7704770477047704700004D
:1029F000036870B51D685E686A07044601D57007F4
:102A000003D4290743D5320741D5226CD0065EBFD7
:102A1000226C42F400722264B3F1A04F03D0904ABA
:102A2000934240F005818F4A9168C9060CD0B3F1FA
:102A3000A04F03D08A498B4240F0FF80926802F099
:102A40001F02052A40F01481DA68D96802F40052A6
:102A500001F44061114314D1290712D59A68520735
:102A600000F122815A6822F00C025A60236C23F490
:102A700080732364236CD80403D4236C43F00103D4
:102A800023642046FEF7CCFE23680C221A60A906B8
:102A900001D5B20603D46B0662D5700660D5236CEF
:102AA00043F4005323642368B3F1A04F03D06C4A6E
:102AB000934240F002816B4A9168C9060CD0B3F191
:102AC000A04F03D066498B4240F0FC80926802F030
:102AD0001F02052A40F00881DA68D96C11F0C00F96
:102AE00038D1910106D5D96802F4005201F4406151
:102AF00011432FD168062DD5B3F1A04F03D0584A0A
:102B0000934240F00D81574A9168C9060CD0B3F149
:102B1000A04F03D052498B4240F00781926802F0E7
:102B20001F02062A40F01381DA68910212D49A68D3
:102B3000120700F128815A6822F060025A60236C63
:102B400023F480532364236CD80503D4236C43F00F
:102B5000010323642046FFF746FF236860221A60C2
:102B600029060BD5320609D5236C43F48033236440
:102B70002046FFF782FA236880221A60EB050CD505
:102B8000F0050AD5236C43F4003323642046FFF795
:102B90002CFF23684FF480721A60A9050CD5B2058A
:102BA0000AD5236C43F4802323642046FFF71EFFDD
:102BB00023684FF400721A60EB0625D5F00623D582
:102BC000636B012B12D02268B2F1A04F00F0E480B9
:102BD0002348254B2349824208BF0B469968C90602
:102BE00040F0DC80D36813F0010F0AD0236C43F46B
:102BF00080632364636C43F0020363642046FFF741
:102C00003DFA236810221A606A0510D573050ED5A7
:102C1000236C43F480432364636C43F008036364D0
:102C200023684FF480621A602046FFF7DDFE70BD16
:102C30000D4A9268D0063FF407AF0B4A926802F043
:102C40001F02052A3FF400AF074A926802F01F02F4
:102C5000092A3FF4F9AE054A934223D1F4E600BFB6
:102C60000001005000030050000700500004005015
:102C7000B3F1A04F02D04B4A9342E5D14A4A926841
:102C800002F01F02092A3FF4DFAEB3F1A04F3FF478
:102C9000DBAE464A93423FF4D7AE42498B4208BF6F
:102CA0004FF0A042D268D0E6236C43F010032364B7
:102CB000636C43F001036364E3E63D4A9268D00627
:102CC0003FF40AAF3A4A926802F01F02052A3FF425
:102CD00003AF374A926802F01F02092A3FF4FCAEA4
:102CE000324A93421AD1F7E6B3F1A04F02D02D4AEF
:102CF0009342EED12C4A926802F01F02092A3FF457
:102D0000EBAEB3F1A04F3FF4E7AE284A93423FF455
:102D1000E3AE24498B4208BF4FF0A042D268DCE604
:102D2000234A9268D0063FF4FFAE214A926802F02F
:102D30001F02062A3FF4F8AE1D4A926802F01F02F5
:102D4000072A3FF4F1AE194A93421AD1ECE6B3F1E7
:102D5000A04F02D0134A9342EED1134A926802F078
:102D60001F02072A3FF4E0AEB3F1A04F3FF4DCAE00
:102D70000E4A93423FF4D8AE0A498B4208BF4FF047
:102D8000A042D268D1E6236C43F010032364636C45
:102D900043F001036364DDE6034B1FE79B6813F414
:102DA000404F22E700010050000300500004005093
:102DB00000070050F7B50023019390F83C30CE682F
:102DC000012B054600F072812B68012085F83C003C
:102DD0009A68520700F1658148680C680622042849
:102DE00000FB02F22CD8186B1F27974020EA07003F
:102DF00004FA02F202431A639A6812F00C0F58D1D7
:102E0000092CD1F808C004EB44024FF007003CD96C
:102E10009F691E3A904027EA00000CFA02F2024332
:102E20009A61DA684869C2F3C102520090400A69A7
:102E3000013AA706032A6BD8DFE802F03149545F54
:102E400009280AD8586B1E3A1F27974020EA070026
:102E500004FA02F202435A63CEE70E284FF01F0035
:102E600009D89F6B3C3A904027EA000004FA02F22E
:102E700002439A63C0E7DF6B5A3A904027EA0000AA
:102E800004FA02F20243DA63B6E75F69904027EA88
:102E900000000CFA02FC40EA0C005861C1E7D3F8CC
:102EA00060C0834A0CEA02023A43024342F0004205
:102EB0001A669A6802F00302012A4DD11A68D707F0
:102EC0004AD50020002385F83C3003B0F0BDD3F88C
:102ED00064C0774A0CEA02023A43024342F00042DD
:102EE0005A66E6E7D3F868C0714A0CEA02023A4330
:102EF000024342F000429A66DBE7D3F86CC06C4AAA
:102F00000CEA02023A43024342F00042DA66D0E79A
:102F10001A6E02F0F842974202BF1A6E22F0004287
:102F20001A665A6E02F0F842974202BF5A6E22F0B9
:102F300000425A669A6E02F0F842974202BF9A6EB9
:102F400022F000429A66DA6E02F0F8429742B0D15F
:102F5000DA6E22F00042D9E70122012E02FA04F2D1
:102F60000AD0D3F8B01021EA0202C3F8B020B3F1BE
:102F7000A04F27D14F492BE0D3F8B000092C42EAEB
:102F80000002C3F8B02088680CD904EB44029969A8
:102F90001B3A0726964021EA060100FA02F20A438C
:102FA0009A61E4E7611C5A6901EB410107268E40F2
:102FB00022EA060200FA01F10A43B3F1A04F5A6176
:102FC0003FF47FAF3C483B493C4A834218BF11461F
:102FD000102C3CD18A6812F4000F7FF472AFB3F169
:102FE000A04F354A09D093423ED002F54072934239
:102FF00033483CD0834218BF0022986800F0030099
:10300000012802D11868C00745D43AB1906800F091
:103010000300012802D11268D2073CD4102C28D119
:10302000B3F1A04F7FF44DAF8B68264A43F4000301
:103030008B60254B1B68B3FBF2F30A2253430193C9
:10304000019B002B3FF43DAF019B013BF7E7112CA7
:1030500003D18A6812F0807FBFE7122C7FF431AF72
:103060008A6812F4800FB8E74FF0A042C5E7024625
:10307000C3E7112C08D1B3F1A04F7FF422AF8B68C6
:1030800043F080738B601CE7122C7FF41AAF8B68BF
:1030900043F48003F6E72B6C43F020032B640120FC
:1030A00010E72B6C43F020032B640BE702200CE7A6
:1030B00000F0FF83000300500001005000070050A3
:1030C0000005005040420F000C000020F0B50546FE
:1030D0003C4B2C680868B4F1A04F09D09C4235D015
:1030E000394A944203F5806302D09C4266D113466C
:1030F00095F83C20012A63D0012285F83C20A26883
:10310000520755D49A68570752D4B4F1A04F20D033
:103110002C4F2E4A2E4EBC4208BF324668B39768E9
:1031200095F830C04E6827F4604746EA4C363E4377
:103130009660A66806F00306012E0CD12468E60707
:1031400009D50020002385F83C30F0BD4FF0A043A6
:10315000CEE71F4AE2E79C6804F00304012C02D189
:103160001B68DC07EDD49368896823F47163084316
:1031700023F00F0318439060E3E7916821F4604166
:103180009160A16801F00301012902D12168C907FA
:10319000D7D4996801F00301012902D11B68DB072C
:1031A000CFD4936823F4716323F00F039360C8E7CF
:1031B0002B6C43F020032B640120C3E70120C4E7FC
:1031C0000220C2E700010050000400500007005038
:1031D000000300500749CA6822F4E06203021204A7
:1031E00003F4E063120C134343F0BF6343F4003372
:1031F000CB60704700ED00E0164B30B5DC68C4F3DF
:103200000224C4F10703251D042B28BF0423062D27
:103210004FF0FF358CBF033C002405FA03F321EA8D
:103220000303A54022EA0502A340002843EA020363
:10323000ACBF00F16040084A4FEA0313B8BF00F08A
:103240000F00DBB2AABF00F56140135480F80033D1
:1032500030BD00BF00ED00E014ED00E0002807DB0A
:103260004109044A00F01F000123834042F8213045
:10327000704700BF00E100E000280CDB430906496D
:1032800000F01F0020330122824041F82320BFF3C9
:103290004F8FBFF36F8F704700E100E00138B0F14E
:1032A000807F0BD24FF0E023054A5861F02182F86D
:1032B00023100020072298611A617047012070478F
:1032C00000ED00E002680A4B9A424FF0140108D862
:1032D000084B1344084AB3FBF1F39B00C0E90F23EA
:1032E0007047064B1344064AB3FBF1F39B00F5E726
:1032F00007040240F8FFFDBF00000240F8FBFDBFDD
:103300000004024038B50446E0B1D0E901352B4352
:10331000C56801682B4305690A682B4345692B433F
:1033200085692B43C56922F47F5222F030022B437A
:1033300013430B60FFF7C6FF00204FF48073A063B8
:10334000238438BD0120FCE7F0B590F82040012C23
:1033500034D090F821500124A54280F820404FF04D
:1033600000064FF0020427D180F8214004688663EC
:10337000266826F001062660D0E90F67BD4075601B
:1033800063604368102BC36A0BBFA260A160E16059
:10339000E2604BB1236843F00E032360236843F0DF
:1033A000010323600020F0BD236843F00A0323607B
:1033B000236823F00403F0E780F820600220F2E79E
:1033C00090F82130022B07D00423836301230022CD
:1033D00080F82020184670470368C16B1A6822F0F5
:1033E0000E021A601A6822F001021A60036C0122B0
:1033F00002FA03F34B6080F821200023E7E710B5C1
:1034000090F82120022A03D004228263012010BDFB
:103410000268436B116821F00E011160116821F000
:1034200001011160D0E90F140122A2404A604FF45B
:103430008072028413B198470020E8E71846E6E757
:10344000C16B026C036870B40E681D68042494405C
:1034500034420ED015F0040F0BD01A6892065EBFEE
:103460001A6822F004021A60C36A4C6063B370BC2D
:10347000184702249440344212D015F0020F0FD0A6
:103480001A68950606D41A6822F00A021A60012307
:1034900080F8213000234C6080F82030836AE5E713
:1034A0000824944034420FD02C070DD51C6824F01A
:1034B0000E041C60012303FA02F24A6083634FF496
:1034C00080730384036BD1E770BC704790F82100D0
:1034D000704700002DE9F74FDFF87C915C4C00232A
:1034E0000A6832FA03F502D103B0BDE8F08F012576
:1034F00005FA03FE1EEA020200F0A0804E680327D0
:1035000006F003054FEA430807FA08FC6F1E012F77
:103510006FEA0C0C34D8876807EA0C0ACF6807FA00
:1035200008F747EA0A078760476827EA0E0EC6F3DE
:1035300000179F4047EA0E074760C76807EA0C0E6E
:103540008F6807FA08F747EA0E07022DC76019D1FE
:103550004FEAD30A00EB8A0A03F0070BDAF820706F
:103560004FEA8B0B4FF00F0E0EFA0BFE27EA0E0EF2
:103570000F6907FA0BF747EA0E07CAF8207001E057
:10358000032DDAD1076805FA08F507EA0C073D4371
:1035900016F4403F056051D0D9F8185045F00105A8
:1035A000C9F81850D9F8185023F0030707F18047DD
:1035B00005F0010507F58037019503F0030E019D25
:1035C000BD684FEA8E0E4FF00F0C0CFA0EFCB0F1F6
:1035D000904F25EA0C0C33D01E4DA84232D005F591
:1035E0008065A84230D005F58065A8422ED005F54B
:1035F0008065A8420CBF0425052505FA0EF545EAAD
:103600000C05BD60A568D74316F4801F0CBF3D4074
:103610001543A560E56816F4001F0CBF3D40154337
:10362000E560656816F4003F0CBF3D4015436560DA
:103630002568F60354BF3D401543256001334FE72D
:103640000025DAE70125D8E70225D6E70325D4E7E8
:103650000004014000040048001002403A4A2DE9ED
:10366000F04F00234FF0010A4FF00F084FF0030B0B
:1036700031FA03F401D1BDE8F08F0AFA03FC1CEA29
:10368000010657D023F0030404F1804404F580348C
:1036900003F00307A568BF0008FA07F9B0F1904FDF
:1036A00009EA050E48D0294DA84247D005F58065A6
:1036B000A84245D005F58065A84243D005F5806550
:1036C000A8420CBF04250525BD40754513D11568DA
:1036D00025EA06051560556825EA06055560D56892
:1036E00025EA0605D560956825EA06059560A56872
:1036F00025EA0905A56005685C000BFA04F4DE08FC
:1037000025EA040500EB8606056003F00705376A25
:10371000AD0008FA05F527EA05073762C56825EA0E
:103720000405C560456825EA0C054560856825EAFD
:103730000404846001339BE70025C5E70125C3E746
:103740000225C1E70325BFE700040140000400484B
:103750000369194214BF0120002070470AB181613A
:10376000704781627047436901EA030221EA03015D
:1037700041EA024181617047044A5169014208B53A
:1037800002D05061FDF7ACFF08BD00BF000401404E
:1037900003689A69910744BF00229A629A69D20726
:1037A0005EBF9A6942F001029A61704730B5039D8D
:1037B00004682B4343EA0243064A6068C1F30901E7
:1037C0000B4342EA555223F0004320EA0200034330
:1037D000636030BDFF63FF0370B5426B1F4CA242B4
:1037E0000BB201F0010501F002041DD01C4EB242E3
:1037F0001AD01C4EB24217D0002BACBF0023B82306
:103800000DB143F0F2030CB143F0F403102902D1DF
:1038100043F0900303E0202901D143F02003016825
:103820000A6813430B6070BD002BACBF0023B823A4
:103830000DB143F0F2030CB143F0F4031029E7D0CB
:10384000202902D143F06003E9E7064CA242E6D00A
:10385000402908BF43F04003E1E700BF614600088C
:10386000F14800083D45000811F0010307D090F829
:10387000413003F02803282B0CBF4223F2238A0790
:1038800009D590F8412002F02802282A0CBF43F005
:10389000440343F0F4030A0401680A6848BF43F094
:1038A000B80322EA03030B60704703682DE9F04177
:1038B0009C6914F0100405460F4616466FD010227E
:1038C0000024DA61A0462B689A69900661D4B8F1A9
:1038D000000F35D044F0040401202E68B369D905E7
:1038E00041BF4FF48072F26144F0010401205A0597
:1038F00041BF4FF4806244F00804F26101209B054F
:103900004FD54FF4007344F00204F3612846FFF7EB
:103910003FFF736823F0FF7323F48B3323F4FF73AB
:1039200023F0010373606B6C23436B64202385F8E1
:103930004130002385F8423085F84030012032E0E4
:103940007A1CC1D0FEF77EFB801BB84201D8002F45
:10395000B9D12B68596895F8422098690004D2B211
:103960000AD5490408D4202A06D05A6842F4804275
:103970005A60FEF767FB06462B689B699B06A2D43C
:10398000FEF760FB801B1928F6D920244FF00108B0
:1039900099E7B8F1000F9DD12022DA619AE720461D
:1039A0009BE70028B2D1BDE8F08170B504460D4612
:1039B000164623689B699B0701D5002070BD3246DF
:1039C00029462046FFF771FFC0B96A1CF1D0FEF707
:1039D00039FB801BA84201D8002DEAD123689B69DE
:1039E00013F00203E5D1626C84F8403042F020020B
:1039F0006264202284F8412084F842300120DDE70F
:103A00002DE9F041069F0446884616461D46226869
:103A1000936938EA03030CBF01230023B34201D0AA
:103A200000201EE06B1CF3D0FEF70CFBC01BA8426D
:103A300001D8002DEBD123689B6938EA03030CBF42
:103A400001230023B342E2D1636C43F0200363649B
:103A5000202384F84130002384F8423084F8403039
:103A60000120BDE8F08170B504460D461646236876
:103A70009B699B0601D5002070BD32462946204631
:103A8000FFF713FFB0B9FEF7DDFA801BA84201D89B
:103A9000002DECD123689B6913F02003E7D1626C01
:103AA00084F8403042F020026264202284F84120F1
:103AB00084F842300120DFE770B504460D46164613
:103AC00023689B695B070ED4324629462046FFF7E0
:103AD000ECFE38BB23689A69910625D59A6952078E
:103AE00003D5228D0AB1002070BD9A6912F0100230
:103AF0001CBF1022DA614FF0200118BF042262645B
:103B0000D9615A6822F0FF7222F48B3222F4FF72DC
:103B100022F001025A60002384F8411084F84230F8
:103B200084F840300120DFE7FEF78CFA801BA842C2
:103B300001D8002DC4D123689B6913F00403BFD1C1
:103B4000626C42F020026264202284F84120E7E7A0
:103B500010B5044600284AD090F8413003F0FF0227
:103B60001BB980F84020FDF741FF242384F8413041
:103B700023681A6822F001021A60626822F07062FB
:103B80001A619A6822F400429A60D4E9022101295C
:103B900024D142F400429A605A6842F0007242F422
:103BA00000425A60DA6822F40042DA60D4E9042163
:103BB0000A43A16942EA0122DA60D4E907210A43F3
:103BC0001A601A6842F001021A6000202023606423
:103BD00084F84130206384F8420010BD42F404426E
:103BE00002299A6004BF4FF400625A60D4E70120B2
:103BF000F3E710B5044698B10268242380F84130F9
:103C0000136823F001031360FDF734FF00206064A4
:103C100084F8400084F84100206384F8420010BD1D
:103C20000120FCE72DE9F347984690F841300A9FC0
:103C3000202B04460E46914640F0868090F8403096
:103C4000012B00F081804FF0010A80F840A0FEF7C0
:103C5000F9F919230546009052464FF400412046D9
:103C6000FFF7CEFE18B1012002B0BDE8F087212396
:103C700084F84130102384F842306064A4F82A802C
:103C8000638DC4F824909BB2FF2B60632F4B26D921
:103C9000FF22228500934FF0807331462046FFF7C4
:103CA00085FD638D9BB22A4639462046FBB9FFF756
:103CB000DAFE0028D7D123682021D9615A6822F082
:103CC000FF7222F48B3222F4FF7222F001025A605A
:103CD00084F8411084F8400084F84200C4E7628D03
:103CE000009392B222854FF00073D2B2D5E7FFF76E
:103CF0005CFE0028B7D1636A226813F8011B916249
:103D00006362638D228D013B9BB26385638D013AB3
:103D100092B29BB22285002BC3D0002AC1D100955C
:103D20003B4680212046FFF76BFE00289BD1638D28
:103D30009BB2FF2B03D9FF2222850090ABE7628D57
:103D4000009092B22285CEE702208DE7002000800D
:103D50002DE9F347984690F841300A9F202B0446FE
:103D60000E46914640F0878090F84030012B00F0DD
:103D700082804FF0010A80F840A0FEF763F9192312
:103D80000546009052464FF400412046FFF738FEAA
:103D900018B1012002B0BDE8F087222384F8413039
:103DA000102384F842306064A4F82A80638DC4F83C
:103DB00024909BB2FF2B6063304B26D9FF222285D3
:103DC00000934FF0807331462046FFF7EFFC638D80
:103DD0009BB22A4639462046FBB9FFF744FE00282D
:103DE000D7D123682021D9615A6822F0FF7222F4CA
:103DF0008B3222F4FF7222F001025A6084F84110E3
:103E000084F8400084F84200C4E7628D009392B2C7
:103E100022854FF00073D2B2D5E7FFF74DFE0028A0
:103E2000B7D123685A6A636A1A70636A228D0133B4
:103E30006362638D013B9BB26385638D013A92B2ED
:103E40009BB22285002BC2D0002AC0D100953B46F0
:103E500080212046FFF7D4FD00289AD1638D9BB2C4
:103E6000FF2B03D9FF2222850090AAE7628D0090E4
:103E700092B22285CDE702208CE700BF00240080AB
:103E80002DE9F04F85B01E460023039390F8413092
:103E9000202B0446914640F0908003689B6913F400
:103EA000004340F08A8090F84020012A00F085808D
:103EB0000122C1F3090780F8402047F0007A24224C
:103EC00080F841204AF4205A4364E3682268012BB9
:103ED00006BF47F0007343F4005353465360FEF7A8
:103EE000B1F8804623689D699B69C5F34015C3F30B
:103EF00000131D4315D023689A69CDF8008012F095
:103F00001002334626D120212046FFF779FDE8B97B
:103F100022682023D361054684F8413084F84000AC
:103F200014E0731CDED0FEF78DF8A0EB0800B04261
:103F300001D8002ED6D1202384F84130636C43F0A1
:103F400020036364002384F840300125284605B02F
:103F5000BDE8F08F002220212046FFF751FD0246E8
:103F60000028F3D1236810214FF0200BD961C3F84A
:103F70001CB0039949450FD1596841F480415960FB
:103F80002046CDF8008033465946FFF739FD00281A
:103F9000DCD12368C3F81CB0039B01330393039B5C
:103FA0004B4592D3202384F84130636C43F02003C7
:103FB0006364002384F84030C8E70225C6E70000A8
:103FC000F8B51F4690F8413003F02803282B04462B
:103FD0000E46154604D101B122B94FF40073636453
:103FE000012047E048F20101FFF73EFC90F8403025
:103FF000012B40D0012380F8403090F841302A2B2B
:1040000014D10221FFF730FC03681A6810040DD5A3
:104010001A68E06B22F400421A6038B1174B436310
:10402000FFF7EDF910B1E06B436B9847292384F853
:10403000413020682023002284F8423062644368C3
:1040400023F4004343606585638D2385E7620C4B51
:104050006363836981696662C90303D51B0744BF33
:104060000823C361204684F8402048F20101FFF78D
:10407000B3FB0020F8BD0220FCE700BFFB4A0008AC
:10408000E9490008F8B51F4690F8413003F02803CD
:10409000282B04460E46154604D101B122B94FF42F
:1040A00000736364012046E048F20201FFF7DCFB85
:1040B00090F84030012B3FD090F841300121292B5E
:1040C00080F8401013D1FFF7CFFB03681A68500443
:1040D0000DD51A68A06B22F480421A6038B1174BD4
:1040E0004363FFF78CF910B1A06B436B98472A2309
:1040F00084F8413020682023002284F84230626432
:10410000436823F4004343606585638D2385E7623C
:104110000B4B6363836981696662C90303D41B0720
:1041200044BF0823C361204684F8402048F20201BE
:10413000FFF752FB0020F8BD0220FCE7FB4A000815
:10414000E949000808B590F84120202A0AD1282220
:1041500080F84120044A42634FF40041FFF73CFBE2
:10416000002008BD0220FCE7E94900080268436B13
:104170009169126803B1184770477047704738B5A6
:10418000002580F8425090F84130212B4FF0200359
:1041900080F841300AD11123036345630121FFF701
:1041A00063FB80F84050FFF7E8FF38BD122303633C
:1041B00045630221FFF758FB80F84050FFF7DEFF10
:1041C000F3E708B503681A68002180F8421051042B
:1041D00015D51A6822F480421A6090F84130292BD4
:1041E00013D1282380F84130212303630121FFF7F5
:1041F0003BFB002380F84030FCF780F808BD120438
:10420000EBD51A6822F40042E6E790F841302A2BF9
:10421000F4D1282380F84130222303630221FFF7E1
:1042200023FB002380F84030FCF780F8E6E790F8A5
:10423000412002F02802282AF8B5036834D19E698B
:10424000C2689D699968DF682D0C022AC6F3004692
:1042500005F0FE051FD185EAD11515F00605C1F35D
:1042600009020ED1816C01318164816C022907D170
:1042700008218564D96180F840503146FCF71AF86E
:10428000F8BD4FF40041FFF7EFFA002380F840300B
:1042900007F0FE02F1E74FF40041FFF7E5FA0023D3
:1042A00080F840302A46E8E70822DA61002380F8E7
:1042B0004030E5E708B5164BC362202200230363B4
:1042C000436380F8412080F842304B0712D50368E1
:1042D0005A6A436A1A70436A01334362038D4BB1D1
:1042E000013B0385438D013B9BB24385436C43F007
:1042F0000403436448F20301FFF7B6FA036810228F
:10430000DA61002380F84030FBF7D2FF08BD00BF20
:104310000000FFFF70477047704790F84120602A07
:1043200008B54FF0000208D1202180F8411080F834
:1043300040200263FFF7F0FF08BD026380F84020D1
:10434000FCF718F8F8E7000070B500223D4D90F832
:10435000413080F84220C5624285426C283B1143BF
:10436000022B044641642AD80321FFF77DFA282353
:1043700080F84130344BA06B6363236B002841D03D
:10438000112B01D0212B3DD123681A68510442BF63
:104390001A6822F480421A60FFF798F801282CD09E
:1043A000A06B2A4B4363002384F84030FFF727F8C3
:1043B000002845D0A06B436BBDE87040184748F219
:1043C0000301FFF751FAFFF7E3F990F84130602B52
:1043D00011D0202380F8413003689A6995060AD5E8
:1043E0009A69D00605D51022DA61626C42F00402A7
:1043F00062642022DA610023BDE72046BDE87040F8
:10440000FFF78BBFE06B0028F7D0122B01D0222BD7
:10441000F3D123681A68120442BF1A6822F40042DA
:104420001A60FFF753F80128E7D0E06B074B4363AE
:10443000002384F84030FEF7E2FF08B1E06BBAE7F2
:1044400070BD00BF0000FFFFE9490008FB4A0008FB
:1044500073B505682023EB6190F84130212B0446A9
:104460000E4635D10121FFF7FFF9112323636B6855
:1044700023F0FF7323F48B3323F4FF7323F0010342
:104480006B6000236363F206A3F58033E36205D516
:104490001023EB61636C43F00403636494F84130D0
:1044A000602B05D1730741BF6B6ADBB20193019B9F
:1044B0002046FFF76DF9636C94F84120602A00D024
:1044C0007BB1616C204602B0BDE87040FFF73CBF95
:1044D00090F84130222BCAD10221FFF7C5F91223EF
:1044E000C4E794F84120212A12D1202284F84120E7
:1044F000236394F8422084F84030402A84F8423004
:1045000003D1FFF707FF02B070BDFFF736FEFAE7F1
:1045100094F84120222AF6D1202284F841202363F6
:1045200094F8422084F84030402A84F8423002D186
:10453000FFF7F1FEE7E7FFF721FEE4E713B590F898
:104540004030012B044600F08580012380F8403084
:10455000CB0612D5D30610D503681022DA61436C5E
:1045600043F0040343642021FFF736F9FFF710F905
:10457000002084F8400002B010BD880708D59307DA
:1045800006D52368226D9A624FF0FF332365EFE76B
:10459000080633D5530631D510212046FFF71CF904
:1045A000638D9BB233B3638D9BB2FF2B18D900236D
:1045B000FF22E16C009322854FF0807389B2FFF7F0
:1045C000F5F8638D228D9B1A9BB2638594F8412088
:1045D0002368222A1A6832D142F400421A60C7E7DF
:1045E000628DE16C92B2002322850093D2B24FF02B
:1045F0000073E3E74021FFF7A7FEB9E7480621D59E
:1046000053061FD594F84110134A144B222908BFB2
:104610001346628D92B2FF2A08D9FF22E16C009303
:1046200022854FF0807389B22046C8E7628D0093DF
:1046300092B22285E16C4FF00073D2B2F3E742F4FC
:104640008042CBE7880693D5930691D52046FFF7A5
:10465000FFFE8DE702208EE700240080002000800E
:1046600073B590F84030012B044678D0012380F8D0
:104670004030CB0612D5D60610D503681022DA6179
:10468000436C43F0040343642021FFF7A5F8FFF7D0
:104690007FF8002084F8400002B070BD0D0641D5BF
:1046A00050063FD525682B6823F040032B60638DAF
:1046B0009BB25BB36968638D9BB2FF2BC1F30901A9
:1046C0001AD9FF2323854FF08073002200922046E1
:1046D00094F82820268DFFF769F8638D9B1B9BB209
:1046E000638594F84130222B2B680CBF43F40043C0
:1046F00043F480432B60CCE7638D2385E36A13F595
:10470000803F14BFE36A4FF00073DEE76B689A01E5
:1047100003D42046FFF733FDBBE740212046FFF7D7
:1047200013FEB6E74B0612D5560610D5638D9BB225
:10473000002BF2D123685A689501AAD4E26A12F5D7
:10474000803FE6D15A6842F480425A60A1E7880669
:104750009FD593069DD52046FFF77AFE99E7022064
:104760009AE7036899691A6810B4CC0508D514064D
:1047700006D5446C44F0010444644FF48074DC6159
:104780004C0508D5140606D5446C44F0080444646E
:104790004FF48064DC61890508D5120606D5426CA9
:1047A00042F0020242644FF40072DA61416C11F08F
:1047B0000B0F03D05DF8044BFFF7C6BD5DF8044B4B
:1047C000704700002DE9F0410568D5F8008090F8A9
:1047D000417007F0F7072023212F04460E46EB61B6
:1047E0004FD148F20101FFF73FF827636B6843F4AC
:1047F00000436B606B6823F0FF7323F48B3323F467
:10480000FF7323F001036B602046FEF7C1FF18F42D
:10481000804F3BD02B6823F480432B60A36B1BB1EC
:104820001B685B689BB2638573070FD5636A6A6A0E
:104830001A70636A01336362238D26F004062BB17C
:10484000013B2385638D013B9BB26385638D9BB2E6
:104850001BB1636C43F004036364002384F84230AB
:10486000656C6363DDB1616C2046FFF76DFD94F804
:104870004130282B25D131462046BDE8F041FFF7D5
:1048800019BD222FB2D148F20201ACE718F4004F53
:10489000CAD02B6823F400432B60E36BBFE7E36AC5
:1048A00013F5803F0FD02046FFF78BFC0F4BE362E0
:1048B000202384F8413084F8405025632046FBF7DC
:1048C000F7FCBDE8F08194F8413084F84050222B89
:1048D0004FF0200384F841302046256302D1FBF7D6
:1048E00025FDEEE7FBF70AFDEBE700BF0000FFFF49
:1048F000F8B590F84030C76A012B04460E461546BD
:1049000070D0012380F840308B0603D5AA0601D56C
:10491000FFF758FFF3065DD5E8065BD515F4404F69
:1049200054D0E26BFAB115F4004304D013685B680D
:10493000B3FA83F35B09A26B22B1690402D5126852
:1049400052680AB1012B21D194F84130282B0CD1A7
:10495000B7F1007F09D131462046FFF7ABFC0020BC
:1049600084F84000F8BD1346E5E794F84120236839
:10497000292A4FF01002DA61F1D117F5803FEED00D
:104980002046FEF705FFFFF71CFCE8E7236810222E
:10499000DA61636C43F00403636494F8413037F0E8
:1049A0008072DBB2DBD1213B092B08D8DFE803F0B2
:1049B000050C070707070707050C21232363616C14
:1049C0002046FFF7C1FCCAE72223F7E7236810223D
:1049D000DA61C4E73207C2D52B07C0D52046FFF7FE
:1049E00026FCBCE70220BDE7F8B590F84030C76A66
:1049F000012B04460D4616467DD001238A0680F819
:104A0000403003D5B30601D5FFF7DCFEE80633D509
:104A1000F10631D5638D9BB2FBB994F84130282B58
:104A20000AD1B7F1007F07D129462046FFF742FCA3
:104A3000002084F84000F8BD94F841202368292A1A
:104A40004FF01002DA61F3D117F5803FF0D0204625
:104A5000FEF79EFEFFF7B5FBEAE723681022DA6156
:104A6000636C43F00403636437F08073E0D1616CDE
:104A70002046FFF769FCDBE76A071BD5730719D5EA
:104A8000638D9BB26BB123685A6A636A1A70636A5A
:104A900001336362238D013B2385638D013B9BB210
:104AA0006385638D9BB2002BC2D117F5803FBFD0C9
:104AB0002046CFE7280705D5310703D52046FFF765
:104AC000B6FBB5E7AA07B3D5B307B1D5638D9BB2E3
:104AD0006BB1636A226813F8011B91626362638D94
:104AE000013B9BB26385238D013B2385A0E737F013
:104AF0008073DDD09CE702209DE7406A836B0BB199
:104B000000225A63C36B0BB100225A63FFF705BC46
:104B1000406C704710B590F84130202BDCB21DD1AD
:104B200090F84030012B19D0242380F841300368DD
:104B30001A6822F001021A601A6822F480521A6080
:104B40001A68114319601A6842F001021A600023C2
:104B500080F8414080F84030184610BD0220FCE744
:104B600010B590F84130202BDCB21CD190F84030C9
:104B7000012B18D0242380F8413003681A6822F0F2
:104B800001021A601A6822F4706242EA0121196077
:104B90001A6842F001021A60002380F8414080F850
:104BA0004030184610BD0220FCE700002DE9F34715
:104BB0000546002833D00368DA0711D42B689B0719
:104BC00000F181802B681C0700F1EB802B685807EF
:104BD00000F13081E869002840F0B581002047E00D
:104BE000B04C636803F00C03042B07D0636803F038
:104BF0000C03082B15D16368DF0312D54FF4003383
:104C000093FAA3F2216893FAA3F30122B3FA83F390
:104C100002FA03F30B42D1D06B68002BCED10120F6
:104C200026E06A68B2F5803F25D1236843F48033DB
:104C30002360E36AA96823F00F030B43E36252B3D6
:104C4000FDF700FA4FF4003706464FF0010897FAD7
:104C5000A7F3226897FAA7F3B3FA83F308FA03F3EA
:104C60001342ABD1FDF7EEF9801B6428EFD9032086
:104C700002B0BDE8F087236832B923F480332360A3
:104C8000236823F48023D3E7B2F5A02FF5D143F4B2
:104C900080232360C9E7FDF7D5F94FF400370646B6
:104CA0004FF0010897FAA7F3226897FAA7F3B3FA2F
:104CB00083F308FA03F3134280D0FDF7C3F9801B96
:104CC0006428EFD9D3E7774C636813F00C0F07D053
:104CD000636803F00C03082B1FD16368DE031CD448
:104CE000022393FAA3F2216893FAA3F30122B3FA01
:104CF00083F302FA03F30B4202D02B6993428ED165
:104D00002168F82292FAA2F26B69B2FA82F2934019
:104D100021F0F8021343236054E72A690126FAB10F
:104D200096FAA6F3B3FA83F303F1845303F58413DD
:104D30009B004FF002081E60FDF784F9074698FAC1
:104D4000A8F3226898FAA8F3B3FA83F306FA03F3F8
:104D50001342D5D1FDF776F9C01B0228EFD986E7BB
:104D600096FAA6F3B3FA83F303F1845303F584139D
:104D70009B004FF002081A60FDF764F9074698FAA5
:104D8000A8F3226898FAA8F3B3FA83F306FA03F3B8
:104D900013423FF417AFFDF755F9C01B0228EED9B7
:104DA00065E7AA693F4E404901240AB394FAA4F387
:104DB000B3FA83F30B449B0002271C60FDF742F912
:104DC000804697FAA7F397FAA7F397FAA7F3726AC0
:104DD00097FAA7F3B3FA83F304FA03F313427FF4C9
:104DE000F5AEFDF72FF9A0EB08000228E9D93EE760
:104DF00094FAA4F3B3FA83F30B449B0002271A60DE
:104E0000FDF720F9804697FAA7F397FAA7F397FAE8
:104E1000A7F3726A97FAA7F3B3FA83F304FA03F3DA
:104E200013423FF4D3AEFDF70DF9A0EB08000228C2
:104E3000E9D91CE71B4CE369D90031D4E36943F09D
:104E40008053E361E36903F080530193019B0126E2
:104E5000164F3B68DA052BD5EB68012B39D1236A55
:104E600043F001032362FDF7EDF8022780464FF07F
:104E7000010941F2883A97FAA7F397FAA7F3226A51
:104E800097FAA7F3B3FA83F309FA03F3134253D063
:104E9000002E3FF49FAEE36923F08053E36199E66F
:104EA0000026D5E7001002402081901000700040DD
:104EB0003B6843F480733B60FDF7C4F880463B6871
:104EC000DB05C9D4FDF7BEF8A0EB08006428F6D9CD
:104ED000CDE61BBB236A23F001032362236A23F080
:104EE00004032362FDF7AEF8022780464FF0010964
:104EF00041F2883A97FAA7F397FAA7F3226A97FA4A
:104F0000A7F3B3FA83F309FA03F31342C0D0FDF712
:104F100099F8A0EB08005045ECD9A8E6052B236AC8
:104F200003D143F00403236299E723F001032362D2
:104F3000236A23F0040395E7FDF784F8A0EB08004B
:104F4000504598D993E6464C636803F00C03082B50
:104F500074D002284FF080734DD193FAA3F3B3FAC3
:104F600083F303F1845303F584139B0000221A603A
:104F7000FDF768F84FF000780746012698FAA8F385
:104F8000226898FAA8F3B3FA83F306FA03F31342FC
:104F90002BD1D5E9081362680B4322F47412134332
:104FA00063604FF0807393FAA3F3B3FA83F303F1D2
:104FB000845303F584139B0001271E60FDF742F81C
:104FC0004FF00076054696FAA6F3226896FAA6F305
:104FD000B3FA83F307FA03F313427FF4FFADFDF74F
:104FE00031F8401B0228EED941E6FDF72BF8C01B33
:104FF0000228C3D93BE693FAA3F3B3FA83F303F190
:10500000845303F584139B0000221A60FDF71AF8FD
:105010004FF000760546012796FAA6F3226896FA25
:10502000A6F3B3FA83F307FA03F313423FF4D6ADC2
:10503000FDF708F8401B0228EED918E601283FF4D6
:1050400017AE63682A6A03F4803191427FF4E7ADBA
:105050006A6A03F4701393423FF4C0ADDFE500BF0A
:105060000010024010B5144C616801F00C03082BCD
:105070001FD14FF4701393FAA3F301F47012B3FA33
:1050800083F322FA03F30D4AD05CE36A0F2292FA0B
:10509000A2F2C90341BF03F00F03B2FA82F2D34078
:1050A000074A51BF074BD25C074BB3FBF2F358439F
:1050B00010BD0548FCE700BF001002409A780008C8
:1050C000AA78000800093D0000127A002DE9F0419D
:1050D0000D46044610B90120BDE8F0814A4A136824
:1050E00003F007038B422ED32268910736D4D207F0
:1050F0003CD4454A136803F00703AB4270D82268DA
:10510000424D12F0040F77D1130706D56B68226960
:1051100023F4605343EAC2036B60FFF7A3FF6B689D
:10512000F02292FAA2F2B2FA82F203F0F003D34034
:10513000374AD35CD840374B1860374B1868FCF7B8
:105140003FFF0020C8E7136823F007030B431360F9
:10515000136803F007038B42BDD1C5E72B49A06854
:105160004B6823F0F00303434B60C0E76268274EAF
:10517000012A24D14FF4003393FAA3F1316893FA52
:10518000A3F3B3FA83F302FA03F30B42A3D07368D9
:1051900023F0030313437360FCF754FF41F2883894
:1051A00007467368626803F00C03B3EB820FA0D06C
:1051B000FCF748FFC01B4045F3D903208CE7022AC7
:1051C0000CBF4FF00073022393FAA3F1306893FAF7
:1051D000A3F30121B3FA83F301FA03F30342D5E702
:1051E000136823F007032B431360136803F00703CE
:1051F000AB427FF470AF82E76B68E16823F4E06351
:105200000B436B6080E700BF0020024000100240AB
:10521000827800080C00002014000020084B4FF496
:10522000E0625B6892FAA2F2B2FA82F203F4E063FF
:10523000D340044AD35C044A1068D840704700BF8A
:1052400000100240927800080C000020084B4FF438
:1052500060525B6892FAA2F2B2FA82F203F46053EF
:10526000D340044AD35C044A1068D840704700BF5A
:1052700000100240927800080C00002003682DE91D
:10528000F347DD03044624D5794DEB69D80000F1DE
:105290009B80EB6943F08053EB61EB6903F0805333
:1052A0000193019B0126734F3B68D90540F18E8025
:1052B0002B6A626813F4407340F09D802B6A626829
:1052C00023F4407313432B621EB1EB6923F0805328
:1052D000EB612368DF0706D56549A0680A6B22F0F9
:1052E000030202430A639E0706D56149E0680A6B20
:1052F00022F4403202430A635D0706D55C49206907
:105300000A6B22F4402202430A63980606D55849E4
:10531000E0690A6B22F0100202430A63990306D582
:105320005349A06B4A6822F4800202434A605A063D
:1053300006D54F49206A0A6B22F0200202430A6315
:105340001F0706D54A4960690A6B22F440120243DE
:105350000A63DE0606D54649A0690A6B22F44002BC
:1053600002430A639D0506D54149E06A4A6822F472
:10537000000202434A60180606D53D49606ACA6ABF
:1053800022F4F8720243CA62D90506D53849A06AE8
:10539000CA6A22F478520243CA62DA0406D5344952
:1053A000206B0A6B22F4807202430A6313F40053E9
:1053B0001FBF2F4A616B136B23F400731DBF0B4398
:1053C00013630020184613E000266CE73B6843F4A3
:1053D00080733B60FCF736FE80463B68DA053FF59C
:1053E00067AFFCF72FFEA0EB08006428F5D9032077
:1053F00002B0BDE8F08702F440729A423FF45EAF1B
:10540000296A4FF4803321F4407093FAA3F2DFF855
:1054100068C0B2FA82F2624492000127176093FAE0
:10542000A3F3B3FA83F363449B0000221A60CB0713
:1054300028627FF543AFFCF705FE4FF00208814676
:1054400041F2883A98FAA8F398FAA8F32A6A98FAE7
:10545000A8F3B3FA83F307FA03F313427FF42EAFF2
:10546000FCF7F0FDA0EB09005045EBD9BFE700BF0A
:1054700000100240007000400081901038B50368B1
:10548000094ADA600446FCF7DDFD05462368DB685F
:105490009B0601D5002038BDFCF7D4FD401BB0F5BC
:1054A0007A7FF3D90320F6E75FFF0100F8B50368C0
:1054B000DC6814F04004054617D1DA6842F0800237
:1054C000DA60FCF7BFFD042706462B68DB685B0645
:1054D00000D40CB12046F8BDFCF7B4FD801BB0F53C
:1054E0007A7F84BF6F770124EFE70024F2E7036837
:1054F000DA6822F0800210B5DA609B689B060446E9
:1055000001D5002010BDFFF7B9FF0028F9D0042312
:1055100063770120F6E710B50446002841D0437FA9
:1055200003F0FF0213B90277FCF7C8FA022363778E
:105530002368DA68D20603D501236377002010BD03
:10554000CA225A6253225A622046FFF7AFFF10BBAD
:10555000236820699A6822F4E00222F040029A60EF
:10556000626899680243606902430A439A60E2688C
:105570001A611A69A16842EA01421A612046FFF7DE
:10558000B6FF40B92368A1691A6C22F480221A641C
:105590001A6C0A431A642368FF225A620028CBD08F
:1055A000CDE70120CBE70023092803D840EA031008
:1055B000C0B270470A380133C0B2F5E72DE9F041B7
:1055C000037F012B06460F464FF0020041D0012316
:1055D00031683377707738787D78BC788B68002AAB
:1055E00039D113F0400308BFFB70FFF7DCFF8046A2
:1055F0002846FFF7D8FF02462046FFF7D4FFFB7886
:1056000040EA835343EA084343EA0224CA234B6235
:1056100053234B623046FFF749FFA8B9326804F0C4
:105620007F3424F0FE441460936823F48023936055
:10563000D7E90330916803430B4393603046FFF78B
:1056400056FF08B9012373773368FF225A6200239B
:105650003377BDE8F08113F0400308BFFB702D02E3
:10566000FA7845EA004545EA040343EA8254CDE767
:10567000F8B5037F012B05464FF0020339D0012016
:1056800028776B770C78C8784E788F78640392BB54
:10569000F30603D526F010060A364E70FFF783FF97
:1056A00006464878FFF77FFF02463846FFF77BFF44
:1056B00040EA040343EA064343EA02242B68CA2271
:1056C0005A6253225A622846FFF7F0FE58B92A68F8
:1056D00024F07F4424F0C00454602846FFF707FFFD
:1056E00008B901236B772B68FF225A6200232B77BE
:1056F000F8BD1846FCE744EA00443C4344EA06246B
:10570000DCE7030903EB830300F00F0000EB430029
:10571000C0B2704738B50368986A486018691B685A
:10572000C0F30E00C3F3062503F07F048860C3F3C3
:105730000540C3F3805308704D708C70CB7052B924
:10574000FFF7DFFF08702846FFF7DBFF48702046B1
:10575000FFF7D7FF8870002038BD38B503685B6855
:10576000C3F30740C3F3042503F03F04C3F34233FC
:10577000C8704D708C700B7052B9FFF7C2FFC870C3
:105780002846FFF7BEFF48702046FFF7BAFF887033
:10579000002038BD036A23F001030362036A70B579
:1057A000446882690D6822F4803222F073022A4331
:1057B0008D6823F002032B431B4DA8420FD005F543
:1057C0000065A8420BD005F54065A84207D005F555
:1057D0008065A84203D005F58065A8421ED1CD683A
:1057E00023F008032B43104DA84223F004030FD0ED
:1057F00005F50065A8420BD005F54065A84207D025
:1058000005F58065A84203D005F58065A84205D15D
:1058100024F44075D1E9054634432C434460826149
:105820004A684263036270BD002C0140036A23F49E
:1058300080730362036A70B54468C2690D6822F41C
:10584000803222F073022A438D6823F4007343EA06
:105850000523164DA84203D005F50065A8420DD1D9
:10586000CD6823F4006343EA0523104DA84223F4D6
:1058700080630ED005F50065A8420AD00C4DA84201
:1058800007D005F58065A84203D005F58065A842DC
:1058900006D124F44055D1E90546344345EA0414C1
:1058A0004460C2614A68C263036270BD002C01405B
:1058B00000400140036A23F480530362036A30B559
:1058C0004468C2690D6822F0807222F4E64242EA1E
:1058D00005228D6823F4005343EA05330E4DA84298
:1058E0000FD005F50065A8420BD005F54065A8422C
:1058F00007D005F58065A84203D005F58065A8426C
:1059000004D14D6924F4804444EA85144460C261A2
:105910004A680264036230BD002C0140036A23F42C
:1059200080330362036A30B54468426D0D6822F427
:10593000803222F070022A438D6823F4003343EA58
:1059400005430F4DA8420FD005F50065A8420BD0C6
:1059500005F54065A84207D005F58065A84203D04B
:1059600005F58065A84204D14D6924F4803444EAE9
:105970000524446042654A688265036230BD00BF09
:10598000002C0140036A23F480130362036A30B5DC
:105990004468426D0D6822F0807222F4E04242EACF
:1059A00005228D6823F4001343EA05530E4DA842E7
:1059B0000FD005F50065A8420BD005F54065A8425B
:1059C00007D005F58065A84203D005F58065A8429B
:1059D00004D14D6924F4802444EA8524446042655E
:1059E0004A68C265036230BD002C014070477047B1
:1059F000082910D004D841B1042909D000207047EB
:105A00000C29FBD10368186C70470368586B70470A
:105A10000368986B70470368D86B7047704770478E
:105A20007047704703681A69910710B504460FD58F
:105A3000DA6892070CD56FF002021A610122027730
:105A40009B69990700F08580FBF7C0FD0023237751
:105A500023681A69520710D5DA6850070DD56FF020
:105A600004021A61022222779B6913F4407F2046C8
:105A700075D0FBF7ABFD0023237723681A69110764
:105A80000FD5DA6812070CD56FF008021A610422EC
:105A90002277DB699B07204667D0FBF797FD002341
:105AA000237723681A69D00610D5DA68D1060DD598
:105AB0006FF010021A6108222277DB6913F4407F2D
:105AC000204658D0FBF782FD0023237723681A690C
:105AD000D20708D5DA68D00705D56FF001021A6140
